{
  "contractName": "CDaiDelegate",
  "abi": [
    {
      "anonymous": false,
      "inputs": [
        {
          "indexed": false,
          "internalType": "uint256",
          "name": "cashPrior",
          "type": "uint256"
        },
        {
          "indexed": false,
          "internalType": "uint256",
          "name": "interestAccumulated",
          "type": "uint256"
        },
        {
          "indexed": false,
          "internalType": "uint256",
          "name": "borrowIndex",
          "type": "uint256"
        },
        {
          "indexed": false,
          "internalType": "uint256",
          "name": "totalBorrows",
          "type": "uint256"
        }
      ],
      "name": "AccrueInterest",
      "type": "event"
    },
    {
      "anonymous": false,
      "inputs": [
        {
          "indexed": true,
          "internalType": "address",
          "name": "owner",
          "type": "address"
        },
        {
          "indexed": true,
          "internalType": "address",
          "name": "spender",
          "type": "address"
        },
        {
          "indexed": false,
          "internalType": "uint256",
          "name": "amount",
          "type": "uint256"
        }
      ],
      "name": "Approval",
      "type": "event"
    },
    {
      "anonymous": false,
      "inputs": [
        {
          "indexed": false,
          "internalType": "address",
          "name": "borrower",
          "type": "address"
        },
        {
          "indexed": false,
          "internalType": "uint256",
          "name": "borrowAmount",
          "type": "uint256"
        },
        {
          "indexed": false,
          "internalType": "uint256",
          "name": "accountBorrows",
          "type": "uint256"
        },
        {
          "indexed": false,
          "internalType": "uint256",
          "name": "totalBorrows",
          "type": "uint256"
        }
      ],
      "name": "Borrow",
      "type": "event"
    },
    {
      "anonymous": false,
      "inputs": [
        {
          "indexed": false,
          "internalType": "uint256",
          "name": "error",
          "type": "uint256"
        },
        {
          "indexed": false,
          "internalType": "uint256",
          "name": "info",
          "type": "uint256"
        },
        {
          "indexed": false,
          "internalType": "uint256",
          "name": "detail",
          "type": "uint256"
        }
      ],
      "name": "Failure",
      "type": "event"
    },
    {
      "anonymous": false,
      "inputs": [
        {
          "indexed": false,
          "internalType": "address",
          "name": "liquidator",
          "type": "address"
        },
        {
          "indexed": false,
          "internalType": "address",
          "name": "borrower",
          "type": "address"
        },
        {
          "indexed": false,
          "internalType": "uint256",
          "name": "repayAmount",
          "type": "uint256"
        },
        {
          "indexed": false,
          "internalType": "address",
          "name": "cTokenCollateral",
          "type": "address"
        },
        {
          "indexed": false,
          "internalType": "uint256",
          "name": "seizeTokens",
          "type": "uint256"
        }
      ],
      "name": "LiquidateBorrow",
      "type": "event"
    },
    {
      "anonymous": false,
      "inputs": [
        {
          "indexed": false,
          "internalType": "address",
          "name": "minter",
          "type": "address"
        },
        {
          "indexed": false,
          "internalType": "uint256",
          "name": "mintAmount",
          "type": "uint256"
        },
        {
          "indexed": false,
          "internalType": "uint256",
          "name": "mintTokens",
          "type": "uint256"
        }
      ],
      "name": "Mint",
      "type": "event"
    },
    {
      "anonymous": false,
      "inputs": [
        {
          "indexed": false,
          "internalType": "address",
          "name": "oldAdmin",
          "type": "address"
        },
        {
          "indexed": false,
          "internalType": "address",
          "name": "newAdmin",
          "type": "address"
        }
      ],
      "name": "NewAdmin",
      "type": "event"
    },
    {
      "anonymous": false,
      "inputs": [
        {
          "indexed": false,
          "internalType": "contract ComptrollerInterface",
          "name": "oldComptroller",
          "type": "address"
        },
        {
          "indexed": false,
          "internalType": "contract ComptrollerInterface",
          "name": "newComptroller",
          "type": "address"
        }
      ],
      "name": "NewComptroller",
      "type": "event"
    },
    {
      "anonymous": false,
      "inputs": [
        {
          "indexed": false,
          "internalType": "contract InterestRateModel",
          "name": "oldInterestRateModel",
          "type": "address"
        },
        {
          "indexed": false,
          "internalType": "contract InterestRateModel",
          "name": "newInterestRateModel",
          "type": "address"
        }
      ],
      "name": "NewMarketInterestRateModel",
      "type": "event"
    },
    {
      "anonymous": false,
      "inputs": [
        {
          "indexed": false,
          "internalType": "address",
          "name": "oldPendingAdmin",
          "type": "address"
        },
        {
          "indexed": false,
          "internalType": "address",
          "name": "newPendingAdmin",
          "type": "address"
        }
      ],
      "name": "NewPendingAdmin",
      "type": "event"
    },
    {
      "anonymous": false,
      "inputs": [
        {
          "indexed": false,
          "internalType": "uint256",
          "name": "oldReserveFactorMantissa",
          "type": "uint256"
        },
        {
          "indexed": false,
          "internalType": "uint256",
          "name": "newReserveFactorMantissa",
          "type": "uint256"
        }
      ],
      "name": "NewReserveFactor",
      "type": "event"
    },
    {
      "anonymous": false,
      "inputs": [
        {
          "indexed": false,
          "internalType": "address",
          "name": "redeemer",
          "type": "address"
        },
        {
          "indexed": false,
          "internalType": "uint256",
          "name": "redeemAmount",
          "type": "uint256"
        },
        {
          "indexed": false,
          "internalType": "uint256",
          "name": "redeemTokens",
          "type": "uint256"
        }
      ],
      "name": "Redeem",
      "type": "event"
    },
    {
      "anonymous": false,
      "inputs": [
        {
          "indexed": false,
          "internalType": "address",
          "name": "payer",
          "type": "address"
        },
        {
          "indexed": false,
          "internalType": "address",
          "name": "borrower",
          "type": "address"
        },
        {
          "indexed": false,
          "internalType": "uint256",
          "name": "repayAmount",
          "type": "uint256"
        },
        {
          "indexed": false,
          "internalType": "uint256",
          "name": "accountBorrows",
          "type": "uint256"
        },
        {
          "indexed": false,
          "internalType": "uint256",
          "name": "totalBorrows",
          "type": "uint256"
        }
      ],
      "name": "RepayBorrow",
      "type": "event"
    },
    {
      "anonymous": false,
      "inputs": [
        {
          "indexed": false,
          "internalType": "address",
          "name": "benefactor",
          "type": "address"
        },
        {
          "indexed": false,
          "internalType": "uint256",
          "name": "addAmount",
          "type": "uint256"
        },
        {
          "indexed": false,
          "internalType": "uint256",
          "name": "newTotalReserves",
          "type": "uint256"
        }
      ],
      "name": "ReservesAdded",
      "type": "event"
    },
    {
      "anonymous": false,
      "inputs": [
        {
          "indexed": false,
          "internalType": "address",
          "name": "admin",
          "type": "address"
        },
        {
          "indexed": false,
          "internalType": "uint256",
          "name": "reduceAmount",
          "type": "uint256"
        },
        {
          "indexed": false,
          "internalType": "uint256",
          "name": "newTotalReserves",
          "type": "uint256"
        }
      ],
      "name": "ReservesReduced",
      "type": "event"
    },
    {
      "anonymous": false,
      "inputs": [
        {
          "indexed": true,
          "internalType": "address",
          "name": "from",
          "type": "address"
        },
        {
          "indexed": true,
          "internalType": "address",
          "name": "to",
          "type": "address"
        },
        {
          "indexed": false,
          "internalType": "uint256",
          "name": "amount",
          "type": "uint256"
        }
      ],
      "name": "Transfer",
      "type": "event"
    },
    {
      "constant": false,
      "inputs": [],
      "name": "_acceptAdmin",
      "outputs": [
        {
          "internalType": "uint256",
          "name": "",
          "type": "uint256"
        }
      ],
      "payable": false,
      "stateMutability": "nonpayable",
      "type": "function"
    },
    {
      "constant": false,
      "inputs": [
        {
          "internalType": "uint256",
          "name": "addAmount",
          "type": "uint256"
        }
      ],
      "name": "_addReserves",
      "outputs": [
        {
          "internalType": "uint256",
          "name": "",
          "type": "uint256"
        }
      ],
      "payable": false,
      "stateMutability": "nonpayable",
      "type": "function"
    },
    {
      "constant": false,
      "inputs": [
        {
          "internalType": "address",
          "name": "compLikeDelegatee",
          "type": "address"
        }
      ],
      "name": "_delegateCompLikeTo",
      "outputs": [],
      "payable": false,
      "stateMutability": "nonpayable",
      "type": "function"
    },
    {
      "constant": false,
      "inputs": [
        {
          "internalType": "uint256",
          "name": "reduceAmount",
          "type": "uint256"
        }
      ],
      "name": "_reduceReserves",
      "outputs": [
        {
          "internalType": "uint256",
          "name": "",
          "type": "uint256"
        }
      ],
      "payable": false,
      "stateMutability": "nonpayable",
      "type": "function"
    },
    {
      "constant": false,
      "inputs": [
        {
          "internalType": "contract ComptrollerInterface",
          "name": "newComptroller",
          "type": "address"
        }
      ],
      "name": "_setComptroller",
      "outputs": [
        {
          "internalType": "uint256",
          "name": "",
          "type": "uint256"
        }
      ],
      "payable": false,
      "stateMutability": "nonpayable",
      "type": "function"
    },
    {
      "constant": false,
      "inputs": [
        {
          "internalType": "contract InterestRateModel",
          "name": "newInterestRateModel",
          "type": "address"
        }
      ],
      "name": "_setInterestRateModel",
      "outputs": [
        {
          "internalType": "uint256",
          "name": "",
          "type": "uint256"
        }
      ],
      "payable": false,
      "stateMutability": "nonpayable",
      "type": "function"
    },
    {
      "constant": false,
      "inputs": [
        {
          "internalType": "address payable",
          "name": "newPendingAdmin",
          "type": "address"
        }
      ],
      "name": "_setPendingAdmin",
      "outputs": [
        {
          "internalType": "uint256",
          "name": "",
          "type": "uint256"
        }
      ],
      "payable": false,
      "stateMutability": "nonpayable",
      "type": "function"
    },
    {
      "constant": false,
      "inputs": [
        {
          "internalType": "uint256",
          "name": "newReserveFactorMantissa",
          "type": "uint256"
        }
      ],
      "name": "_setReserveFactor",
      "outputs": [
        {
          "internalType": "uint256",
          "name": "",
          "type": "uint256"
        }
      ],
      "payable": false,
      "stateMutability": "nonpayable",
      "type": "function"
    },
    {
      "constant": true,
      "inputs": [],
      "name": "accrualBlockNumber",
      "outputs": [
        {
          "internalType": "uint256",
          "name": "",
          "type": "uint256"
        }
      ],
      "payable": false,
      "stateMutability": "view",
      "type": "function"
    },
    {
      "constant": true,
      "inputs": [],
      "name": "admin",
      "outputs": [
        {
          "internalType": "address payable",
          "name": "",
          "type": "address"
        }
      ],
      "payable": false,
      "stateMutability": "view",
      "type": "function"
    },
    {
      "constant": true,
      "inputs": [
        {
          "internalType": "address",
          "name": "owner",
          "type": "address"
        },
        {
          "internalType": "address",
          "name": "spender",
          "type": "address"
        }
      ],
      "name": "allowance",
      "outputs": [
        {
          "internalType": "uint256",
          "name": "",
          "type": "uint256"
        }
      ],
      "payable": false,
      "stateMutability": "view",
      "type": "function"
    },
    {
      "constant": false,
      "inputs": [
        {
          "internalType": "address",
          "name": "spender",
          "type": "address"
        },
        {
          "internalType": "uint256",
          "name": "amount",
          "type": "uint256"
        }
      ],
      "name": "approve",
      "outputs": [
        {
          "internalType": "bool",
          "name": "",
          "type": "bool"
        }
      ],
      "payable": false,
      "stateMutability": "nonpayable",
      "type": "function"
    },
    {
      "constant": true,
      "inputs": [
        {
          "internalType": "address",
          "name": "owner",
          "type": "address"
        }
      ],
      "name": "balanceOf",
      "outputs": [
        {
          "internalType": "uint256",
          "name": "",
          "type": "uint256"
        }
      ],
      "payable": false,
      "stateMutability": "view",
      "type": "function"
    },
    {
      "constant": false,
      "inputs": [
        {
          "internalType": "address",
          "name": "owner",
          "type": "address"
        }
      ],
      "name": "balanceOfUnderlying",
      "outputs": [
        {
          "internalType": "uint256",
          "name": "",
          "type": "uint256"
        }
      ],
      "payable": false,
      "stateMutability": "nonpayable",
      "type": "function"
    },
    {
      "constant": false,
      "inputs": [
        {
          "internalType": "uint256",
          "name": "borrowAmount",
          "type": "uint256"
        }
      ],
      "name": "borrow",
      "outputs": [
        {
          "internalType": "uint256",
          "name": "",
          "type": "uint256"
        }
      ],
      "payable": false,
      "stateMutability": "nonpayable",
      "type": "function"
    },
    {
      "constant": false,
      "inputs": [
        {
          "internalType": "address",
          "name": "account",
          "type": "address"
        }
      ],
      "name": "borrowBalanceCurrent",
      "outputs": [
        {
          "internalType": "uint256",
          "name": "",
          "type": "uint256"
        }
      ],
      "payable": false,
      "stateMutability": "nonpayable",
      "type": "function"
    },
    {
      "constant": true,
      "inputs": [
        {
          "internalType": "address",
          "name": "account",
          "type": "address"
        }
      ],
      "name": "borrowBalanceStored",
      "outputs": [
        {
          "internalType": "uint256",
          "name": "",
          "type": "uint256"
        }
      ],
      "payable": false,
      "stateMutability": "view",
      "type": "function"
    },
    {
      "constant": true,
      "inputs": [],
      "name": "borrowIndex",
      "outputs": [
        {
          "internalType": "uint256",
          "name": "",
          "type": "uint256"
        }
      ],
      "payable": false,
      "stateMutability": "view",
      "type": "function"
    },
    {
      "constant": true,
      "inputs": [],
      "name": "borrowRatePerBlock",
      "outputs": [
        {
          "internalType": "uint256",
          "name": "",
          "type": "uint256"
        }
      ],
      "payable": false,
      "stateMutability": "view",
      "type": "function"
    },
    {
      "constant": true,
      "inputs": [],
      "name": "comptroller",
      "outputs": [
        {
          "internalType": "contract ComptrollerInterface",
          "name": "",
          "type": "address"
        }
      ],
      "payable": false,
      "stateMutability": "view",
      "type": "function"
    },
    {
      "constant": true,
      "inputs": [],
      "name": "daiJoinAddress",
      "outputs": [
        {
          "internalType": "address",
          "name": "",
          "type": "address"
        }
      ],
      "payable": false,
      "stateMutability": "view",
      "type": "function"
    },
    {
      "constant": true,
      "inputs": [],
      "name": "decimals",
      "outputs": [
        {
          "internalType": "uint8",
          "name": "",
          "type": "uint8"
        }
      ],
      "payable": false,
      "stateMutability": "view",
      "type": "function"
    },
    {
      "constant": false,
      "inputs": [],
      "name": "exchangeRateCurrent",
      "outputs": [
        {
          "internalType": "uint256",
          "name": "",
          "type": "uint256"
        }
      ],
      "payable": false,
      "stateMutability": "nonpayable",
      "type": "function"
    },
    {
      "constant": true,
      "inputs": [],
      "name": "exchangeRateStored",
      "outputs": [
        {
          "internalType": "uint256",
          "name": "",
          "type": "uint256"
        }
      ],
      "payable": false,
      "stateMutability": "view",
      "type": "function"
    },
    {
      "constant": true,
      "inputs": [
        {
          "internalType": "address",
          "name": "account",
          "type": "address"
        }
      ],
      "name": "getAccountSnapshot",
      "outputs": [
        {
          "internalType": "uint256",
          "name": "",
          "type": "uint256"
        },
        {
          "internalType": "uint256",
          "name": "",
          "type": "uint256"
        },
        {
          "internalType": "uint256",
          "name": "",
          "type": "uint256"
        },
        {
          "internalType": "uint256",
          "name": "",
          "type": "uint256"
        }
      ],
      "payable": false,
      "stateMutability": "view",
      "type": "function"
    },
    {
      "constant": true,
      "inputs": [],
      "name": "getCash",
      "outputs": [
        {
          "internalType": "uint256",
          "name": "",
          "type": "uint256"
        }
      ],
      "payable": false,
      "stateMutability": "view",
      "type": "function"
    },
    {
      "constant": true,
      "inputs": [],
      "name": "implementation",
      "outputs": [
        {
          "internalType": "address",
          "name": "",
          "type": "address"
        }
      ],
      "payable": false,
      "stateMutability": "view",
      "type": "function"
    },
    {
      "constant": false,
      "inputs": [
        {
          "internalType": "address",
          "name": "underlying_",
          "type": "address"
        },
        {
          "internalType": "contract ComptrollerInterface",
          "name": "comptroller_",
          "type": "address"
        },
        {
          "internalType": "contract InterestRateModel",
          "name": "interestRateModel_",
          "type": "address"
        },
        {
          "internalType": "uint256",
          "name": "initialExchangeRateMantissa_",
          "type": "uint256"
        },
        {
          "internalType": "string",
          "name": "name_",
          "type": "string"
        },
        {
          "internalType": "string",
          "name": "symbol_",
          "type": "string"
        },
        {
          "internalType": "uint8",
          "name": "decimals_",
          "type": "uint8"
        }
      ],
      "name": "initialize",
      "outputs": [],
      "payable": false,
      "stateMutability": "nonpayable",
      "type": "function"
    },
    {
      "constant": false,
      "inputs": [
        {
          "internalType": "contract ComptrollerInterface",
          "name": "comptroller_",
          "type": "address"
        },
        {
          "internalType": "contract InterestRateModel",
          "name": "interestRateModel_",
          "type": "address"
        },
        {
          "internalType": "uint256",
          "name": "initialExchangeRateMantissa_",
          "type": "uint256"
        },
        {
          "internalType": "string",
          "name": "name_",
          "type": "string"
        },
        {
          "internalType": "string",
          "name": "symbol_",
          "type": "string"
        },
        {
          "internalType": "uint8",
          "name": "decimals_",
          "type": "uint8"
        }
      ],
      "name": "initialize",
      "outputs": [],
      "payable": false,
      "stateMutability": "nonpayable",
      "type": "function"
    },
    {
      "constant": true,
      "inputs": [],
      "name": "interestRateModel",
      "outputs": [
        {
          "internalType": "contract InterestRateModel",
          "name": "",
          "type": "address"
        }
      ],
      "payable": false,
      "stateMutability": "view",
      "type": "function"
    },
    {
      "constant": true,
      "inputs": [],
      "name": "isCToken",
      "outputs": [
        {
          "internalType": "bool",
          "name": "",
          "type": "bool"
        }
      ],
      "payable": false,
      "stateMutability": "view",
      "type": "function"
    },
    {
      "constant": false,
      "inputs": [
        {
          "internalType": "address",
          "name": "borrower",
          "type": "address"
        },
        {
          "internalType": "uint256",
          "name": "repayAmount",
          "type": "uint256"
        },
        {
          "internalType": "contract CTokenInterface",
          "name": "cTokenCollateral",
          "type": "address"
        }
      ],
      "name": "liquidateBorrow",
      "outputs": [
        {
          "internalType": "uint256",
          "name": "",
          "type": "uint256"
        }
      ],
      "payable": false,
      "stateMutability": "nonpayable",
      "type": "function"
    },
    {
      "constant": false,
      "inputs": [
        {
          "internalType": "uint256",
          "name": "mintAmount",
          "type": "uint256"
        }
      ],
      "name": "mint",
      "outputs": [
        {
          "internalType": "uint256",
          "name": "",
          "type": "uint256"
        }
      ],
      "payable": false,
      "stateMutability": "nonpayable",
      "type": "function"
    },
    {
      "constant": true,
      "inputs": [],
      "name": "name",
      "outputs": [
        {
          "internalType": "string",
          "name": "",
          "type": "string"
        }
      ],
      "payable": false,
      "stateMutability": "view",
      "type": "function"
    },
    {
      "constant": true,
      "inputs": [],
      "name": "pendingAdmin",
      "outputs": [
        {
          "internalType": "address payable",
          "name": "",
          "type": "address"
        }
      ],
      "payable": false,
      "stateMutability": "view",
      "type": "function"
    },
    {
      "constant": true,
      "inputs": [],
      "name": "potAddress",
      "outputs": [
        {
          "internalType": "address",
          "name": "",
          "type": "address"
        }
      ],
      "payable": false,
      "stateMutability": "view",
      "type": "function"
    },
    {
      "constant": true,
      "inputs": [],
      "name": "protocolSeizeShareMantissa",
      "outputs": [
        {
          "internalType": "uint256",
          "name": "",
          "type": "uint256"
        }
      ],
      "payable": false,
      "stateMutability": "view",
      "type": "function"
    },
    {
      "constant": false,
      "inputs": [
        {
          "internalType": "uint256",
          "name": "redeemTokens",
          "type": "uint256"
        }
      ],
      "name": "redeem",
      "outputs": [
        {
          "internalType": "uint256",
          "name": "",
          "type": "uint256"
        }
      ],
      "payable": false,
      "stateMutability": "nonpayable",
      "type": "function"
    },
    {
      "constant": false,
      "inputs": [
        {
          "internalType": "uint256",
          "name": "redeemAmount",
          "type": "uint256"
        }
      ],
      "name": "redeemUnderlying",
      "outputs": [
        {
          "internalType": "uint256",
          "name": "",
          "type": "uint256"
        }
      ],
      "payable": false,
      "stateMutability": "nonpayable",
      "type": "function"
    },
    {
      "constant": false,
      "inputs": [
        {
          "internalType": "uint256",
          "name": "repayAmount",
          "type": "uint256"
        }
      ],
      "name": "repayBorrow",
      "outputs": [
        {
          "internalType": "uint256",
          "name": "",
          "type": "uint256"
        }
      ],
      "payable": false,
      "stateMutability": "nonpayable",
      "type": "function"
    },
    {
      "constant": false,
      "inputs": [
        {
          "internalType": "address",
          "name": "borrower",
          "type": "address"
        },
        {
          "internalType": "uint256",
          "name": "repayAmount",
          "type": "uint256"
        }
      ],
      "name": "repayBorrowBehalf",
      "outputs": [
        {
          "internalType": "uint256",
          "name": "",
          "type": "uint256"
        }
      ],
      "payable": false,
      "stateMutability": "nonpayable",
      "type": "function"
    },
    {
      "constant": true,
      "inputs": [],
      "name": "reserveFactorMantissa",
      "outputs": [
        {
          "internalType": "uint256",
          "name": "",
          "type": "uint256"
        }
      ],
      "payable": false,
      "stateMutability": "view",
      "type": "function"
    },
    {
      "constant": false,
      "inputs": [
        {
          "internalType": "address",
          "name": "liquidator",
          "type": "address"
        },
        {
          "internalType": "address",
          "name": "borrower",
          "type": "address"
        },
        {
          "internalType": "uint256",
          "name": "seizeTokens",
          "type": "uint256"
        }
      ],
      "name": "seize",
      "outputs": [
        {
          "internalType": "uint256",
          "name": "",
          "type": "uint256"
        }
      ],
      "payable": false,
      "stateMutability": "nonpayable",
      "type": "function"
    },
    {
      "constant": true,
      "inputs": [],
      "name": "supplyRatePerBlock",
      "outputs": [
        {
          "internalType": "uint256",
          "name": "",
          "type": "uint256"
        }
      ],
      "payable": false,
      "stateMutability": "view",
      "type": "function"
    },
    {
      "constant": false,
      "inputs": [
        {
          "internalType": "contract EIP20NonStandardInterface",
          "name": "token",
          "type": "address"
        }
      ],
      "name": "sweepToken",
      "outputs": [],
      "payable": false,
      "stateMutability": "nonpayable",
      "type": "function"
    },
    {
      "constant": true,
      "inputs": [],
      "name": "symbol",
      "outputs": [
        {
          "internalType": "string",
          "name": "",
          "type": "string"
        }
      ],
      "payable": false,
      "stateMutability": "view",
      "type": "function"
    },
    {
      "constant": true,
      "inputs": [],
      "name": "totalBorrows",
      "outputs": [
        {
          "internalType": "uint256",
          "name": "",
          "type": "uint256"
        }
      ],
      "payable": false,
      "stateMutability": "view",
      "type": "function"
    },
    {
      "constant": false,
      "inputs": [],
      "name": "totalBorrowsCurrent",
      "outputs": [
        {
          "internalType": "uint256",
          "name": "",
          "type": "uint256"
        }
      ],
      "payable": false,
      "stateMutability": "nonpayable",
      "type": "function"
    },
    {
      "constant": true,
      "inputs": [],
      "name": "totalReserves",
      "outputs": [
        {
          "internalType": "uint256",
          "name": "",
          "type": "uint256"
        }
      ],
      "payable": false,
      "stateMutability": "view",
      "type": "function"
    },
    {
      "constant": true,
      "inputs": [],
      "name": "totalSupply",
      "outputs": [
        {
          "internalType": "uint256",
          "name": "",
          "type": "uint256"
        }
      ],
      "payable": false,
      "stateMutability": "view",
      "type": "function"
    },
    {
      "constant": false,
      "inputs": [
        {
          "internalType": "address",
          "name": "dst",
          "type": "address"
        },
        {
          "internalType": "uint256",
          "name": "amount",
          "type": "uint256"
        }
      ],
      "name": "transfer",
      "outputs": [
        {
          "internalType": "bool",
          "name": "",
          "type": "bool"
        }
      ],
      "payable": false,
      "stateMutability": "nonpayable",
      "type": "function"
    },
    {
      "constant": false,
      "inputs": [
        {
          "internalType": "address",
          "name": "src",
          "type": "address"
        },
        {
          "internalType": "address",
          "name": "dst",
          "type": "address"
        },
        {
          "internalType": "uint256",
          "name": "amount",
          "type": "uint256"
        }
      ],
      "name": "transferFrom",
      "outputs": [
        {
          "internalType": "bool",
          "name": "",
          "type": "bool"
        }
      ],
      "payable": false,
      "stateMutability": "nonpayable",
      "type": "function"
    },
    {
      "constant": true,
      "inputs": [],
      "name": "underlying",
      "outputs": [
        {
          "internalType": "address",
          "name": "",
          "type": "address"
        }
      ],
      "payable": false,
      "stateMutability": "view",
      "type": "function"
    },
    {
      "constant": true,
      "inputs": [],
      "name": "vatAddress",
      "outputs": [
        {
          "internalType": "address",
          "name": "",
          "type": "address"
        }
      ],
      "payable": false,
      "stateMutability": "view",
      "type": "function"
    },
    {
      "constant": false,
      "inputs": [
        {
          "internalType": "bytes",
          "name": "data",
          "type": "bytes"
        }
      ],
      "name": "_becomeImplementation",
      "outputs": [],
      "payable": false,
      "stateMutability": "nonpayable",
      "type": "function"
    },
    {
      "constant": false,
      "inputs": [],
      "name": "_resignImplementation",
      "outputs": [],
      "payable": false,
      "stateMutability": "nonpayable",
      "type": "function"
    },
    {
      "constant": false,
      "inputs": [],
      "name": "accrueInterest",
      "outputs": [
        {
          "internalType": "uint256",
          "name": "",
          "type": "uint256"
        }
      ],
      "payable": false,
      "stateMutability": "nonpayable",
      "type": "function"
    }
  ],
  "bytecode": "0x6080604052615f36806100136000396000f3fe608060405234801561001057600080fd5b50600436106103835760003560e01c806373acee98116101de578063b2a02ff11161010f578063e9c714f2116100ad578063f851a4401161007c578063f851a44014610c30578063f8f9da2814610c38578063fca7820b14610c40578063fe9c44ae14610c5d57610383565b8063e9c714f214610bc4578063f2b3abbd14610bcc578063f3fdb15a14610bf2578063f5e3c46214610bfa57610383565b8063c37f68e2116100e9578063c37f68e214610b10578063c5ebeaec14610b5c578063db006a7514610b79578063dd62ed3e14610b9657610383565b8063b2a02ff114610aac578063b71d1a0c14610ae2578063bd6d894d14610b0857610383565b806395dd91931161017c578063a6afed9511610156578063a6afed9514610a68578063a9059cbb14610a70578063aa5af0fd14610a9c578063ae9d70b014610aa457610383565b806395dd9193146108d757806399d8c1b4146108fd578063a0712d6814610a4b57610383565b80638a8df2e6116101b85780638a8df2e6146108b75780638d925ccd146108bf5780638f840ddd146108c757806395d89b41146108cf57610383565b806373acee981461086c5780637f1e06be14610874578063852a12e31461089a57610383565b80633af9e669116102b85780635fe3b567116102565780636752e702116102305780636752e7021461082e5780636c540baf146108365780636f307dc31461083e57806370a082311461084657610383565b80635fe3b56714610801578063601a0bf11461080957806366ced6021461082657610383565b80634576b5db116102925780634576b5db1461072757806347bd37181461074d57806356e67728146107555780635c60da1b146107f957610383565b80633af9e669146106dc5780633b1d21a2146107025780633e9410101461070a57610383565b8063182df0f51161032557806323b872dd116102ff57806323b872dd146106385780632608f8181461066e578063267822471461069a578063313ce567146106be57610383565b8063182df0f5146104b45780631a31d465146104bc5780631be195601461061257610383565b8063153ab50511610361578063153ab50514610474578063173b99041461047e57806317bfdfbc1461048657806318160ddd146104ac57610383565b806306fdde0314610388578063095ea7b3146104055780630e75270214610445575b600080fd5b610390610c65565b6040805160208082528351818301528351919283929083019185019080838360005b838110156103ca5781810151838201526020016103b2565b50505050905090810190601f1680156103f75780820380516001836020036101000a031916815260200191505b509250505060405180910390f35b6104316004803603604081101561041b57600080fd5b506001600160a01b038135169060200135610cf2565b604080519115158252519081900360200190f35b6104626004803603602081101561045b57600080fd5b5035610d5f565b60408051918252519081900360200190f35b61047c610d75565b005b610462611013565b6104626004803603602081101561049c57600080fd5b50356001600160a01b0316611019565b6104626110d9565b6104626110df565b61047c600480360360e08110156104d257600080fd5b6001600160a01b03823581169260208101358216926040820135909216916060820135919081019060a081016080820135600160201b81111561051457600080fd5b82018360208201111561052657600080fd5b803590602001918460018302840111600160201b8311171561054757600080fd5b91908080601f0160208091040260200160405190810160405280939291908181526020018383808284376000920191909152509295949360208101935035915050600160201b81111561059957600080fd5b8201836020820111156105ab57600080fd5b803590602001918460018302840111600160201b831117156105cc57600080fd5b91908080601f0160208091040260200160405190810160405280939291908181526020018383808284376000920191909152509295505050903560ff1691506111429050565b61047c6004803603602081101561062857600080fd5b50356001600160a01b03166111d6565b6104316004803603606081101561064e57600080fd5b506001600160a01b03813581169160208101359091169060400135611312565b6104626004803603604081101561068457600080fd5b506001600160a01b038135169060200135611384565b6106a261139a565b604080516001600160a01b039092168252519081900360200190f35b6106c66113a9565b6040805160ff9092168252519081900360200190f35b610462600480360360208110156106f257600080fd5b50356001600160a01b03166113b2565b610462611468565b6104626004803603602081101561072057600080fd5b5035611477565b6104626004803603602081101561073d57600080fd5b50356001600160a01b0316611482565b6104626115d7565b61047c6004803603602081101561076b57600080fd5b810190602081018135600160201b81111561078557600080fd5b82018360208201111561079757600080fd5b803590602001918460018302840111600160201b831117156107b857600080fd5b91908080601f0160208091040260200160405190810160405280939291908181526020018383808284376000920191909152509295506115dd945050505050565b6106a2611660565b6106a261166f565b6104626004803603602081101561081f57600080fd5b503561167e565b6106a2611719565b610462611728565b610462611733565b6106a2611739565b6104626004803603602081101561085c57600080fd5b50356001600160a01b0316611748565b610462611763565b61047c6004803603602081101561088a57600080fd5b50356001600160a01b0316611819565b610462600480360360208110156108b057600080fd5b50356118d0565b6106a26118db565b6106a26118ea565b6104626118f9565b6103906118ff565b610462600480360360208110156108ed57600080fd5b50356001600160a01b0316611957565b61047c600480360360c081101561091357600080fd5b6001600160a01b03823581169260208101359091169160408201359190810190608081016060820135600160201b81111561094d57600080fd5b82018360208201111561095f57600080fd5b803590602001918460018302840111600160201b8311171561098057600080fd5b91908080601f0160208091040260200160405190810160405280939291908181526020018383808284376000920191909152509295949360208101935035915050600160201b8111156109d257600080fd5b8201836020820111156109e457600080fd5b803590602001918460018302840111600160201b83111715610a0557600080fd5b91908080601f0160208091040260200160405190810160405280939291908181526020018383808284376000920191909152509295505050903560ff1691506119b49050565b61046260048036036020811015610a6157600080fd5b5035611b9b565b610462611ba7565b61043160048036036040811015610a8657600080fd5b506001600160a01b038135169060200135611c22565b610462611c93565b610462611c99565b61046260048036036060811015610ac257600080fd5b506001600160a01b03813581169160208101359091169060400135611d38565b61046260048036036020811015610af857600080fd5b50356001600160a01b0316611da9565b610462611e35565b610b3660048036036020811015610b2657600080fd5b50356001600160a01b0316611ef1565b604080519485526020850193909352838301919091526060830152519081900360800190f35b61046260048036036020811015610b7257600080fd5b5035611f86565b61046260048036036020811015610b8f57600080fd5b5035611f91565b61046260048036036040811015610bac57600080fd5b506001600160a01b0381358116916020013516611f9c565b610462611fc7565b61046260048036036020811015610be257600080fd5b50356001600160a01b03166120ca565b6106a2612104565b61046260048036036060811015610c1057600080fd5b506001600160a01b03813581169160208101359160409091013516612113565b6106a261212b565b61046261213f565b61046260048036036020811015610c5657600080fd5b50356121a3565b610431612221565b60018054604080516020600284861615610100026000190190941693909304601f81018490048402820184019092528181529291830182828015610cea5780601f10610cbf57610100808354040283529160200191610cea565b820191906000526020600020905b815481529060010190602001808311610ccd57829003601f168201915b505050505081565b336000818152600f602090815260408083206001600160a01b03871680855290835281842086905581518681529151939493909284927f8c5be1e5ebec7d5bd14f71427d1e84f3dd0314c0f7b2291e5b200ac8c7c3b925929081900390910190a360019150505b92915050565b600080610d6b83612226565b509150505b919050565b60035461010090046001600160a01b03163314610dc35760405162461bcd60e51b815260040180806020018281038252602d815260200180615cba602d913960400191505060405180910390fd5b60135460145460155460408051634fb3c66560e11b815290516001600160a01b039485169493841693909216918391639f678cca9160048083019260209291908290030181600087803b158015610e1957600080fd5b505af1158015610e2d573d6000803e3d6000fd5b505050506040513d6020811015610e4357600080fd5b5050604080516305f5d64360e11b815230600482015290516000916001600160a01b03851691630bebac8691602480820192602092909190829003018186803b158015610e8f57600080fd5b505afa158015610ea3573d6000803e3d6000fd5b505050506040513d6020811015610eb957600080fd5b505160408051637f8661a160e01b81526004810183905290519192506001600160a01b03851691637f8661a19160248082019260009290919082900301818387803b158015610f0757600080fd5b505af1158015610f1b573d6000803e3d6000fd5b505060408051633612d9a360e11b81523060048201529051600093506001600160a01b0386169250636c25b34691602480820192602092909190829003018186803b158015610f6957600080fd5b505afa158015610f7d573d6000803e3d6000fd5b505050506040513d6020811015610f9357600080fd5b50516040805163ef693bed60e01b81523060048201526b033b2e3c9fd0803ce80000008304602482015290519192506001600160a01b0387169163ef693bed9160448082019260009290919082900301818387803b158015610ff457600080fd5b505af1158015611008573d6000803e3d6000fd5b505050505050505050565b60085481565b6000805460ff1661105e576040805162461bcd60e51b815260206004820152600a6024820152691c994b595b9d195c995960b21b604482015290519081900360640190fd5b6000805460ff19168155611070611ba7565b146110bb576040805162461bcd60e51b81526020600482015260166024820152751858d8dc9d59481a5b9d195c995cdd0819985a5b195960521b604482015290519081900360640190fd5b6110c482611957565b90505b6000805460ff19166001179055919050565b600d5481565b60008060006110ec6122cf565b909250905060008260038111156110ff57fe5b1461113b5760405162461bcd60e51b8152600401808060200182810382526035815260200180615e4d6035913960400191505060405180910390fd5b9150505b90565b6111508686868686866119b4565b601180546001600160a01b0319166001600160a01b038981169190911791829055604080516318160ddd60e01b8152905192909116916318160ddd91600480820192602092909190829003018186803b1580156111ac57600080fd5b505afa1580156111c0573d6000803e3d6000fd5b505050506040513d602081101561100857600080fd5b6011546001600160a01b03828116911614156112235760405162461bcd60e51b8152600401808060200182810382526032815260200180615bd96032913960400191505060405180910390fd5b604080516370a0823160e01b815230600482015290516000916001600160a01b038416916370a0823191602480820192602092909190829003018186803b15801561126d57600080fd5b505afa158015611281573d6000803e3d6000fd5b505050506040513d602081101561129757600080fd5b50516003546040805163a9059cbb60e01b81526101009092046001600160a01b03908116600484015260248301849052905192935084169163a9059cbb9160448082019260009290919082900301818387803b1580156112f657600080fd5b505af115801561130a573d6000803e3d6000fd5b505050505050565b6000805460ff16611357576040805162461bcd60e51b815260206004820152600a6024820152691c994b595b9d195c995960b21b604482015290519081900360640190fd5b6000805460ff1916815561136d3386868661237e565b1490506000805460ff191660011790559392505050565b600080611391848461260a565b50949350505050565b6004546001600160a01b031681565b60035460ff1681565b60006113bc6159ec565b60405180602001604052806113cf611e35565b90526001600160a01b0384166000908152600e60205260408120549192509081906113fb9084906126b5565b9092509050600082600381111561140e57fe5b14611460576040805162461bcd60e51b815260206004820152601f60248201527f62616c616e636520636f756c64206e6f742062652063616c63756c6174656400604482015290519081900360640190fd5b949350505050565b6000611472612709565b905090565b6000610d598261281b565b60035460009061010090046001600160a01b031633146114af576114a86001603f6128af565b9050610d70565b60055460408051623f1ee960e11b815290516001600160a01b0392831692851691627e3dd2916004808301926020929190829003018186803b1580156114f457600080fd5b505afa158015611508573d6000803e3d6000fd5b505050506040513d602081101561151e57600080fd5b5051611571576040805162461bcd60e51b815260206004820152601c60248201527f6d61726b6572206d6574686f642072657475726e65642066616c736500000000604482015290519081900360640190fd5b600580546001600160a01b0319166001600160a01b03858116918217909255604080519284168352602083019190915280517f7ac369dbd14fa5ea3f473ed67cc9d598964a77501540ba6751eb0b3decf5870d9281900390910190a160005b9392505050565b600b5481565b60035461010090046001600160a01b0316331461162b5760405162461bcd60e51b8152600401808060200182810382526030815260200180615c0b6030913960400191505060405180910390fd5b60008082806020019051604081101561164357600080fd5b508051602090910151909250905061165b8282612915565b505050565b6012546001600160a01b031681565b6005546001600160a01b031681565b6000805460ff166116c3576040805162461bcd60e51b815260206004820152600a6024820152691c994b595b9d195c995960b21b604482015290519081900360640190fd5b6000805460ff191681556116d5611ba7565b905080156116fb576116f38160108111156116ec57fe5b60306128af565b9150506110c7565b61170483612c30565b9150506000805460ff19166001179055919050565b6014546001600160a01b031681565b666379da05b6000081565b60095481565b6011546001600160a01b031681565b6001600160a01b03166000908152600e602052604090205490565b6000805460ff166117a8576040805162461bcd60e51b815260206004820152600a6024820152691c994b595b9d195c995960b21b604482015290519081900360640190fd5b6000805460ff191681556117ba611ba7565b14611805576040805162461bcd60e51b81526020600482015260166024820152751858d8dc9d59481a5b9d195c995cdd0819985a5b195960521b604482015290519081900360640190fd5b50600b546000805460ff1916600117905590565b60035461010090046001600160a01b031633146118675760405162461bcd60e51b815260040180806020018281038252602d815260200180615c6b602d913960400191505060405180910390fd5b601154604080516317066a5760e21b81526001600160a01b03848116600483015291519190921691635c19a95c91602480830192600092919082900301818387803b1580156118b557600080fd5b505af11580156118c9573d6000803e3d6000fd5b5050505050565b6000610d5982612d63565b6013546001600160a01b031681565b6015546001600160a01b031681565b600c5481565b6002805460408051602060018416156101000260001901909316849004601f81018490048402820184019092528181529291830182828015610cea5780601f10610cbf57610100808354040283529160200191610cea565b600080600061196584612de4565b9092509050600082600381111561197857fe5b146115d05760405162461bcd60e51b8152600401808060200182810382526037815260200180615d126037913960400191505060405180910390fd5b60035461010090046001600160a01b03163314611a025760405162461bcd60e51b8152600401808060200182810382526024815260200180615b926024913960400191505060405180910390fd5b600954158015611a125750600a54155b611a4d5760405162461bcd60e51b8152600401808060200182810382526023815260200180615bb66023913960400191505060405180910390fd5b600784905583611a8e5760405162461bcd60e51b8152600401808060200182810382526030815260200180615c3b6030913960400191505060405180910390fd5b6000611a9987611482565b90508015611aee576040805162461bcd60e51b815260206004820152601a60248201527f73657474696e6720636f6d7074726f6c6c6572206661696c6564000000000000604482015290519081900360640190fd5b611af6612e98565b600955670de0b6b3a7640000600a55611b0e86612e9c565b90508015611b4d5760405162461bcd60e51b8152600401808060200182810382526022815260200180615c986022913960400191505060405180910390fd5b8351611b609060019060208701906159ff565b508251611b749060029060208601906159ff565b50506003805460ff90921660ff199283161790556000805490911660011790555050505050565b600080610d6b83613011565b60145460408051634fb3c66560e11b815290516000926001600160a01b031691639f678cca91600480830192602092919082900301818787803b158015611bed57600080fd5b505af1158015611c01573d6000803e3d6000fd5b505050506040513d6020811015611c1757600080fd5b506114729050613092565b6000805460ff16611c67576040805162461bcd60e51b815260206004820152600a6024820152691c994b595b9d195c995960b21b604482015290519081900360640190fd5b6000805460ff19168155611c7d3333868661237e565b1490506000805460ff1916600117905592915050565b600a5481565b6006546000906001600160a01b031663b8168816611cb5612709565b600b54600c546008546040518563ffffffff1660e01b81526004018085815260200184815260200183815260200182815260200194505050505060206040518083038186803b158015611d0757600080fd5b505afa158015611d1b573d6000803e3d6000fd5b505050506040513d6020811015611d3157600080fd5b5051905090565b6000805460ff16611d7d576040805162461bcd60e51b815260206004820152600a6024820152691c994b595b9d195c995960b21b604482015290519081900360640190fd5b6000805460ff19169055611d93338585856133ea565b90506000805460ff191660011790559392505050565b60035460009061010090046001600160a01b03163314611dcf576114a8600160456128af565b600480546001600160a01b038481166001600160a01b0319831681179093556040805191909216808252602082019390935281517fca4f2f25d0898edd99413412fb94012f9e54ec8142f9b093e7720646a95b16a9929181900390910190a160006115d0565b6000805460ff16611e7a576040805162461bcd60e51b815260206004820152600a6024820152691c994b595b9d195c995960b21b604482015290519081900360640190fd5b6000805460ff19168155611e8c611ba7565b14611ed7576040805162461bcd60e51b81526020600482015260166024820152751858d8dc9d59481a5b9d195c995cdd0819985a5b195960521b604482015290519081900360640190fd5b611edf6110df565b90506000805460ff1916600117905590565b6001600160a01b0381166000908152600e6020526040812054819081908190818080611f1c89612de4565b935090506000816003811115611f2e57fe5b14611f4c5760095b975060009650869550859450611f7f9350505050565b611f546122cf565b925090506000816003811115611f6657fe5b14611f72576009611f36565b5060009650919450925090505b9193509193565b6000610d59826137c4565b6000610d5982613843565b6001600160a01b039182166000908152600f6020908152604080832093909416825291909152205490565b6004546000906001600160a01b031633141580611fe2575033155b15611ffa57611ff3600160006128af565b905061113f565b60038054600480546001600160a01b03818116610100818102610100600160a81b0319871617968790556001600160a01b031990931690935560408051948390048216808652929095041660208401528351909391927ff9ffabca9c8276e99321725bcb43fb076a6c66a54b7f21c4e8146d8519b417dc92908290030190a1600454604080516001600160a01b038085168252909216602083015280517fca4f2f25d0898edd99413412fb94012f9e54ec8142f9b093e7720646a95b16a99281900390910190a160009250505090565b6000806120d5611ba7565b905080156120fb576120f38160108111156120ec57fe5b60406128af565b915050610d70565b6115d083612e9c565b6006546001600160a01b031681565b6000806121218585856138bd565b5095945050505050565b60035461010090046001600160a01b031681565b6006546000906001600160a01b03166315f2405361215b612709565b600b54600c546040518463ffffffff1660e01b815260040180848152602001838152602001828152602001935050505060206040518083038186803b158015611d0757600080fd5b6000805460ff166121e8576040805162461bcd60e51b815260206004820152600a6024820152691c994b595b9d195c995960b21b604482015290519081900360640190fd5b6000805460ff191681556121fa611ba7565b90508015612218576116f381601081111561221157fe5b60466128af565b611704836139ef565b600181565b60008054819060ff1661226d576040805162461bcd60e51b815260206004820152600a6024820152691c994b595b9d195c995960b21b604482015290519081900360640190fd5b6000805460ff1916815561227f611ba7565b905080156122aa5761229d81601081111561229657fe5b60366128af565b9250600091506122bb9050565b6122b5333386613a97565b92509250505b6000805460ff191660011790559092909150565b600d546000908190806122ea5750506007546000915061237a565b60006122f4612709565b905060006123006159ec565b600061231184600b54600c54613de7565b93509050600081600381111561232357fe5b146123385795506000945061237a9350505050565b6123428386613e33565b92509050600081600381111561235457fe5b146123695795506000945061237a9350505050565b505160009550935061237a92505050565b9091565b600554604080516317b9b84b60e31b81523060048201526001600160a01b03868116602483015285811660448301526064820185905291516000938493169163bdcdc25891608480830192602092919082900301818787803b1580156123e357600080fd5b505af11580156123f7573d6000803e3d6000fd5b505050506040513d602081101561240d57600080fd5b50519050801561242c576124246003604a83613ee3565b915050611460565b836001600160a01b0316856001600160a01b03161415612452576124246002604b6128af565b60006001600160a01b0387811690871614156124715750600019612499565b506001600160a01b038086166000908152600f60209081526040808320938a16835292905220545b6000806000806124a98589613f49565b909450925060008460038111156124bc57fe5b146124da576124cd6009604b6128af565b9650505050505050611460565b6001600160a01b038a166000908152600e60205260409020546124fd9089613f49565b9094509150600084600381111561251057fe5b14612521576124cd6009604c6128af565b6001600160a01b0389166000908152600e60205260409020546125449089613f6c565b9094509050600084600381111561255757fe5b14612568576124cd6009604d6128af565b6001600160a01b03808b166000908152600e6020526040808220859055918b1681522081905560001985146125c0576001600160a01b03808b166000908152600f60209081526040808320938f168352929052208390555b886001600160a01b03168a6001600160a01b0316600080516020615da58339815191528a6040518082815260200191505060405180910390a35060009a9950505050505050505050565b60008054819060ff16612651576040805162461bcd60e51b815260206004820152600a6024820152691c994b595b9d195c995960b21b604482015290519081900360640190fd5b6000805460ff19168155612663611ba7565b9050801561268e5761268181601081111561267a57fe5b60356128af565b92506000915061269f9050565b612699338686613a97565b92509250505b6000805460ff1916600117905590939092509050565b60008060006126c26159ec565b6126cc8686613f92565b909250905060008260038111156126df57fe5b146126f05750915060009050612702565b60006126fb82613ffa565b9350935050505b9250929050565b601454604080516305f5d64360e11b815230600482015290516000926001600160a01b03169183918391630bebac86916024808301926020929190829003018186803b15801561275857600080fd5b505afa15801561276c573d6000803e3d6000fd5b505050506040513d602081101561278257600080fd5b50516040805163324abb3160e21b815290519192506b033b2e3c9fd0803ce80000009161280c916001600160a01b0386169163c92aecc491600480820192602092909190829003018186803b1580156127da57600080fd5b505afa1580156127ee573d6000803e3d6000fd5b505050506040513d602081101561280457600080fd5b505183614009565b8161281357fe5b049250505090565b6000805460ff16612860576040805162461bcd60e51b815260206004820152600a6024820152691c994b595b9d195c995960b21b604482015290519081900360640190fd5b6000805460ff19168155612872611ba7565b90508015612890576116f381601081111561288957fe5b604e6128af565b61289983614064565b509150506000805460ff19166001179055919050565b60007f45b96fe442630264581b197e84bbada861235052c5a1aadfff9ea4e40a969aa08360108111156128de57fe5b8360508111156128ea57fe5b604080519283526020830191909152600082820152519081900360600190a18260108111156115d057fe5b600082905060008290506000826001600160a01b031663f4b9fa756040518163ffffffff1660e01b8152600401602060405180830381600087803b15801561295c57600080fd5b505af1158015612970573d6000803e3d6000fd5b505050506040513d602081101561298657600080fd5b5051604080516336569e7760e01b815290519192506000916001600160a01b038616916336569e7791600480830192602092919082900301818787803b1580156129cf57600080fd5b505af11580156129e3573d6000803e3d6000fd5b505050506040513d60208110156129f957600080fd5b50516011549091506001600160a01b03838116911614612a4a5760405162461bcd60e51b8152600401808060200182810382526022815260200180615d496022913960400191505060405180910390fd5b601380546001600160a01b038089166001600160a01b0319928316179283905560148054898316908416179055601580548583169316929092179091556040805163095ea7b360e01b815292821660048401526000196024840152519084169163095ea7b391604480830192600092919082900301818387803b158015612ad057600080fd5b505af1158015612ae4573d6000803e3d6000fd5b5050601454604080516328ec8bf160e21b81526001600160a01b0392831660048201529051918516935063a3b22fc4925060248082019260009290919082900301818387803b158015612b3657600080fd5b505af1158015612b4a573d6000803e3d6000fd5b5050601354604080516328ec8bf160e21b81526001600160a01b0392831660048201529051918516935063a3b22fc4925060248082019260009290919082900301818387803b158015612b9c57600080fd5b505af1158015612bb0573d6000803e3d6000fd5b50505050826001600160a01b0316639f678cca6040518163ffffffff1660e01b8152600401602060405180830381600087803b158015612bef57600080fd5b505af1158015612c03573d6000803e3d6000fd5b505050506040513d6020811015612c1957600080fd5b50612c27905030600061414c565b50505050505050565b600354600090819061010090046001600160a01b03163314612c58576120f3600160316128af565b612c60612e98565b60095414612c74576120f3600a60336128af565b82612c7d612709565b1015612c8f576120f3600e60326128af565b600c54831115612ca5576120f3600260346128af565b50600c5482810390811115612ceb5760405162461bcd60e51b8152600401808060200182810382526024815260200180615ede6024913960400191505060405180910390fd5b600c819055600354612d0b9061010090046001600160a01b031684614471565b600354604080516101009092046001600160a01b0316825260208201859052818101839052517f3bad0c59cf2f06e7314077049f48a93578cd16f5ef92329f1dab1420a99c177e916060908290030190a160006115d0565b6000805460ff16612da8576040805162461bcd60e51b815260206004820152600a6024820152691c994b595b9d195c995960b21b604482015290519081900360640190fd5b6000805460ff19168155612dba611ba7565b90508015612dd8576116f3816010811115612dd157fe5b60276128af565b611704336000856145d6565b6001600160a01b038116600090815260106020526040812080548291829182918291612e1b575060009450849350612e9392505050565b612e2b8160000154600a54614a9d565b90945092506000846003811115612e3e57fe5b14612e53575091935060009250612e93915050565b612e61838260010154614adc565b90945091506000846003811115612e7457fe5b14612e89575091935060009250612e93915050565b5060009450925050505b915091565b4390565b600354600090819061010090046001600160a01b03163314612ec4576120f3600160426128af565b612ecc612e98565b60095414612ee0576120f3600a60416128af565b600660009054906101000a90046001600160a01b03169050826001600160a01b0316632191f92a6040518163ffffffff1660e01b815260040160206040518083038186803b158015612f3157600080fd5b505afa158015612f45573d6000803e3d6000fd5b505050506040513d6020811015612f5b57600080fd5b5051612fae576040805162461bcd60e51b815260206004820152601c60248201527f6d61726b6572206d6574686f642072657475726e65642066616c736500000000604482015290519081900360640190fd5b600680546001600160a01b0319166001600160a01b03858116918217909255604080519284168352602083019190915280517fedffc32e068c7c95dfd4bdfd5c4d939a084d6b11c4199eac8436ed234d72f9269281900390910190a160006115d0565b60008054819060ff16613058576040805162461bcd60e51b815260206004820152600a6024820152691c994b595b9d195c995960b21b604482015290519081900360640190fd5b6000805460ff1916815561306a611ba7565b905080156130885761229d81601081111561308157fe5b601e6128af565b6122b53385614b07565b60008061309d612e98565b600954909150808214156130b65760009250505061113f565b60006130c0612709565b600b54600c54600a54600654604080516315f2405360e01b815260048101879052602481018690526044810185905290519596509394929391926000926001600160a01b03909216916315f24053916064808301926020929190829003018186803b15801561312e57600080fd5b505afa158015613142573d6000803e3d6000fd5b505050506040513d602081101561315857600080fd5b5051905065048c273950008111156131b7576040805162461bcd60e51b815260206004820152601c60248201527f626f72726f772072617465206973206162737572646c79206869676800000000604482015290519081900360640190fd5b6000806131c48989613f49565b909250905060008260038111156131d757fe5b14613229576040805162461bcd60e51b815260206004820152601f60248201527f636f756c64206e6f742063616c63756c61746520626c6f636b2064656c746100604482015290519081900360640190fd5b6132316159ec565b60008060008061324f60405180602001604052808a81525087613f92565b9097509450600087600381111561326257fe5b146132945761327f6009600689600381111561327a57fe5b613ee3565b9e50505050505050505050505050505061113f565b61329e858c6126b5565b909750935060008760038111156132b157fe5b146132c95761327f6009600189600381111561327a57fe5b6132d3848c613f6c565b909750925060008760038111156132e657fe5b146132fe5761327f6009600489600381111561327a57fe5b6133196040518060200160405280600854815250858c614ed7565b9097509150600087600381111561332c57fe5b146133445761327f6009600589600381111561327a57fe5b61334f858a8b614ed7565b9097509050600087600381111561336257fe5b1461337a5761327f6009600389600381111561327a57fe5b60098e9055600a819055600b839055600c829055604080518d8152602081018690528082018390526060810185905290517f4dec04e750ca11537cabcd8a9eab06494de08da3735bc8871cd41250e190bc049181900360800190a160009e50505050505050505050505050505090565b6005546040805163d02f735160e01b81523060048201526001600160a01b038781166024830152868116604483015285811660648301526084820185905291516000938493169163d02f73519160a480830192602092919082900301818787803b15801561345757600080fd5b505af115801561346b573d6000803e3d6000fd5b505050506040513d602081101561348157600080fd5b505190508015613498576124246003601b83613ee3565b846001600160a01b0316846001600160a01b031614156134be576124246006601c6128af565b6134c6615a7d565b6001600160a01b0385166000908152600e60205260409020546134e99085613f49565b60208301819052828260038111156134fd57fe5b600381111561350857fe5b905250600090508151600381111561351c57fe5b14613541576135386009601a8360000151600381111561327a57fe5b92505050611460565b613560846040518060200160405280666379da05b60000815250614f24565b60808201819052613572908590614f4c565b606082015261357f6122cf565b60c083018190528282600381111561359357fe5b600381111561359e57fe5b90525060009050815160038111156135b257fe5b14613604576040805162461bcd60e51b815260206004820152601860248201527f65786368616e67652072617465206d617468206572726f720000000000000000604482015290519081900360640190fd5b61362460405180602001604052808360c001518152508260800151614f86565b60a08201819052600c5461363791614fa5565b60e0820152600d54608082015161364e9190614f4c565b6101008201526001600160a01b0386166000908152600e6020526040902054606082015161367c9190613f6c565b604083018190528282600381111561369057fe5b600381111561369b57fe5b90525060009050815160038111156136af57fe5b146136cb57613538600960198360000151600381111561327a57fe5b60e0810151600c55610100810151600d556020808201516001600160a01b038088166000818152600e855260408082209490945583860151928b16808252908490209290925560608501518351908152925191939092600080516020615da5833981519152929081900390910190a36080810151604080519182525130916001600160a01b03881691600080516020615da58339815191529181900360200190a360a081015160e082015160408051308152602081019390935282810191909152517fa91e67c5ea634cd43a12c5a482724b03de01e85ca68702a53d0c2f45cb7c1dc59181900360600190a16000979650505050505050565b6000805460ff16613809576040805162461bcd60e51b815260206004820152600a6024820152691c994b595b9d195c995960b21b604482015290519081900360640190fd5b6000805460ff1916815561381b611ba7565b90508015613839576116f381601081111561383257fe5b60086128af565b6117043384614fdb565b6000805460ff16613888576040805162461bcd60e51b815260206004820152600a6024820152691c994b595b9d195c995960b21b604482015290519081900360640190fd5b6000805460ff1916815561389a611ba7565b905080156138b1576116f3816010811115612dd157fe5b611704338460006145d6565b60008054819060ff16613904576040805162461bcd60e51b815260206004820152600a6024820152691c994b595b9d195c995960b21b604482015290519081900360640190fd5b6000805460ff19168155613916611ba7565b905080156139415761393481601081111561392d57fe5b600f6128af565b9250600091506139d89050565b836001600160a01b031663a6afed956040518163ffffffff1660e01b8152600401602060405180830381600087803b15801561397c57600080fd5b505af1158015613990573d6000803e3d6000fd5b505050506040513d60208110156139a657600080fd5b5051905080156139c6576139348160108111156139bf57fe5b60106128af565b6139d23387878761526f565b92509250505b6000805460ff191660011790559094909350915050565b60035460009061010090046001600160a01b03163314613a15576114a8600160476128af565b613a1d612e98565b60095414613a31576114a8600a60486128af565b670de0b6b3a7640000821115613a4d576114a8600260496128af565b6008805490839055604080518281526020810185905281517faaa68312e2ea9d50e16af5068410ab56e1a1fd06037b1a35664812c30f821460929181900390910190a160006115d0565b60055460408051631200453160e11b81523060048201526001600160a01b0386811660248301528581166044830152606482018590529151600093849384939116916324008a629160848082019260209290919082900301818787803b158015613b0057600080fd5b505af1158015613b14573d6000803e3d6000fd5b505050506040513d6020811015613b2a57600080fd5b505190508015613b4e57613b416003603883613ee3565b925060009150613ddf9050565b613b56612e98565b60095414613b6a57613b41600a60396128af565b613b72615aca565b6001600160a01b0386166000908152601060205260409020600101546060820152613b9c86612de4565b6080830181905260208301826003811115613bb357fe5b6003811115613bbe57fe5b9052506000905081602001516003811115613bd557fe5b14613bff57613bf1600960378360200151600381111561327a57fe5b935060009250613ddf915050565b600019851415613c185760808101516040820152613c20565b604081018590525b613c2e87826040015161414c565b60e082018190526080820151613c4391613f49565b60a0830181905260208301826003811115613c5a57fe5b6003811115613c6557fe5b9052506000905081602001516003811115613c7c57fe5b14613cb85760405162461bcd60e51b815260040180806020018281038252603a815260200180615d6b603a913960400191505060405180910390fd5b613cc8600b548260e00151613f49565b60c0830181905260208301826003811115613cdf57fe5b6003811115613cea57fe5b9052506000905081602001516003811115613d0157fe5b14613d3d5760405162461bcd60e51b8152600401808060200182810382526031815260200180615dc56031913960400191505060405180910390fd5b60a080820180516001600160a01b03808a16600081815260106020908152604091829020948555600a5460019095019490945560c0870151600b81905560e088015195518251948f16855294840192909252828101949094526060820192909252608081019190915290517f1a2a22cb034d26d1854bdc6666a5b91fe25efbbb5dcad3b0355478d6f5c362a1929181900390910190a160e00151600093509150505b935093915050565b600080600080613df78787613f6c565b90925090506000826003811115613e0a57fe5b14613e1b5750915060009050613ddf565b613e258186613f49565b935093505050935093915050565b6000613e3d6159ec565b600080613e5286670de0b6b3a7640000614a9d565b90925090506000826003811115613e6557fe5b14613e8457506040805160208101909152600081529092509050612702565b600080613e918388614adc565b90925090506000826003811115613ea457fe5b14613ec657506040805160208101909152600081529094509250612702915050565b604080516020810190915290815260009890975095505050505050565b60007f45b96fe442630264581b197e84bbada861235052c5a1aadfff9ea4e40a969aa0846010811115613f1257fe5b846050811115613f1e57fe5b604080519283526020830191909152818101859052519081900360600190a183601081111561146057fe5b600080838311613f60575060009050818303612702565b50600390506000612702565b600080838301848110613f8457600092509050612702565b506002915060009050612702565b6000613f9c6159ec565b600080613fad866000015186614a9d565b90925090506000826003811115613fc057fe5b14613fdf57506040805160208101909152600081529092509050612702565b60408051602081019091529081526000969095509350505050565b51670de0b6b3a7640000900490565b60008115806140245750508082028282828161402157fe5b04145b610d59576040805162461bcd60e51b815260206004820152600c60248201526b6d756c2d6f766572666c6f7760a01b604482015290519081900360640190fd5b600080600080614072612e98565b6009541461409157614086600a604f6128af565b93509150612e939050565b61409b338661414c565b905080600c54019150600c548210156140fb576040805162461bcd60e51b815260206004820181905260248201527f61646420726573657276657320756e6578706563746564206f766572666c6f77604482015290519081900360640190fd5b600c829055604080513381526020810183905280820184905290517fa91e67c5ea634cd43a12c5a482724b03de01e85ca68702a53d0c2f45cb7c1dc59181900360600190a160009350915050915091565b601154604080516323b872dd60e01b81526001600160a01b038581166004830152306024830152604482018590529151600093929092169182916323b872dd91606480830192602092919082900301818887803b1580156141ac57600080fd5b505af11580156141c0573d6000803e3d6000fd5b505050506040513d60208110156141d657600080fd5b50516142135760405162461bcd60e51b8152600401808060200182810382526024815260200180615e296024913960400191505060405180910390fd5b601354601154601454601554604080516370a0823160e01b8152306004820181905291516001600160a01b03968716969586169594851694909316928692633b4da69f92909187916370a08231916024808301926020929190829003018186803b15801561428057600080fd5b505afa158015614294573d6000803e3d6000fd5b505050506040513d60208110156142aa57600080fd5b5051604080516001600160e01b031960e086901b1681526001600160a01b039093166004840152602483019190915251604480830192600092919082900301818387803b1580156142fa57600080fd5b505af115801561430e573d6000803e3d6000fd5b505060408051633612d9a360e11b81523060048201529051600093506001600160a01b0385169250636c25b34691602480820192602092909190829003018186803b15801561435c57600080fd5b505afa158015614370573d6000803e3d6000fd5b505050506040513d602081101561438657600080fd5b50516040805163324abb3160e21b815290519192506000916001600160a01b0386169163c92aecc4916004808301926020929190829003018186803b1580156143ce57600080fd5b505afa1580156143e2573d6000803e3d6000fd5b505050506040513d60208110156143f857600080fd5b5051828161440257fe5b049050836001600160a01b031663049878f3826040518263ffffffff1660e01b815260040180828152602001915050600060405180830381600087803b15801561444b57600080fd5b505af115801561445f573d6000803e3d6000fd5b509a9c9b505050505050505050505050565b6013546014546040805163324abb3160e21b815290516001600160a01b03938416939092169160009161451691849163c92aecc4916004808301926020929190829003018186803b1580156144c557600080fd5b505afa1580156144d9573d6000803e3d6000fd5b505050506040513d60208110156144ef57600080fd5b5051614507866b033b2e3c9fd0803ce8000000614009565b8161450e57fe5b046001615761565b9050816001600160a01b0316637f8661a1826040518263ffffffff1660e01b815260040180828152602001915050600060405180830381600087803b15801561455e57600080fd5b505af1158015614572573d6000803e3d6000fd5b50505050826001600160a01b031663ef693bed86866040518363ffffffff1660e01b815260040180836001600160a01b03166001600160a01b0316815260200182815260200192505050600060405180830381600087803b158015610ff457600080fd5b60008215806145e3575081155b61461e5760405162461bcd60e51b8152600401808060200182810382526034815260200180615eaa6034913960400191505060405180910390fd5b614626615b10565b61462e6122cf565b604083018190526020830182600381111561464557fe5b600381111561465057fe5b905250600090508160200151600381111561466757fe5b1461468b576146836009602b8360200151600381111561327a57fe5b9150506115d0565b831561470c5760608101849052604080516020810182529082015181526146b290856126b5565b60808301819052602083018260038111156146c957fe5b60038111156146d457fe5b90525060009050816020015160038111156146eb57fe5b1461470757614683600960298360200151600381111561327a57fe5b614785565b61472883604051806020016040528084604001518152506157a8565b606083018190526020830182600381111561473f57fe5b600381111561474a57fe5b905250600090508160200151600381111561476157fe5b1461477d576146836009602a8360200151600381111561327a57fe5b608081018390525b60055460608201516040805163eabe7d9160e01b81523060048201526001600160a01b03898116602483015260448201939093529051600093929092169163eabe7d919160648082019260209290919082900301818787803b1580156147ea57600080fd5b505af11580156147fe573d6000803e3d6000fd5b505050506040513d602081101561481457600080fd5b5051905080156148345761482b6003602883613ee3565b925050506115d0565b61483c612e98565b600954146148505761482b600a602c6128af565b614860600d548360600151613f49565b60a084018190526020840182600381111561487757fe5b600381111561488257fe5b905250600090508260200151600381111561489957fe5b146148b55761482b6009602e8460200151600381111561327a57fe5b6001600160a01b0386166000908152600e602052604090205460608301516148dd9190613f49565b60c08401819052602084018260038111156148f457fe5b60038111156148ff57fe5b905250600090508260200151600381111561491657fe5b146149325761482b6009602d8460200151600381111561327a57fe5b816080015161493f612709565b10156149515761482b600e602f6128af565b61495f868360800151614471565b60a0820151600d5560c08201516001600160a01b0387166000818152600e6020908152604091829020939093556060850151815190815290513093600080516020615da5833981519152928290030190a36080820151606080840151604080516001600160a01b038b168152602081019490945283810191909152517fe5b754fb1abb7f01b499791d0b820ae3b6af3424ac1c59768edb53f4ec31a9299281900390910190a160055460808301516060840151604080516351dff98960e01b81523060048201526001600160a01b038b81166024830152604482019490945260648101929092525191909216916351dff98991608480830192600092919082900301818387803b158015614a7257600080fd5b505af1158015614a86573d6000803e3d6000fd5b5060009250614a93915050565b9695505050505050565b60008083614ab057506000905080612702565b83830283858281614abd57fe5b0414614ad157506002915060009050612702565b600092509050612702565b60008082614af05750600190506000612702565b6000838581614afb57fe5b04915091509250929050565b60055460408051634ef4c3e160e01b81523060048201526001600160a01b03858116602483015260448201859052915160009384938493911691634ef4c3e19160648082019260209290919082900301818787803b158015614b6857600080fd5b505af1158015614b7c573d6000803e3d6000fd5b505050506040513d6020811015614b9257600080fd5b505190508015614bb657614ba96003601f83613ee3565b9250600091506127029050565b614bbe612e98565b60095414614bd257614ba9600a60226128af565b614bda615b10565b614be26122cf565b6040830181905260208301826003811115614bf957fe5b6003811115614c0457fe5b9052506000905081602001516003811115614c1b57fe5b14614c4557614c37600960218360200151600381111561327a57fe5b935060009250612702915050565b614c4f868661414c565b60c0820181905260408051602081018252908301518152614c7091906157a8565b6060830181905260208301826003811115614c8757fe5b6003811115614c9257fe5b9052506000905081602001516003811115614ca957fe5b14614cfb576040805162461bcd60e51b815260206004820181905260248201527f4d494e545f45584348414e47455f43414c43554c4154494f4e5f4641494c4544604482015290519081900360640190fd5b614d0b600d548260600151613f6c565b6080830181905260208301826003811115614d2257fe5b6003811115614d2d57fe5b9052506000905081602001516003811115614d4457fe5b14614d805760405162461bcd60e51b8152600401808060200182810382526028815260200180615e826028913960400191505060405180910390fd5b6001600160a01b0386166000908152600e60205260409020546060820151614da89190613f6c565b60a0830181905260208301826003811115614dbf57fe5b6003811115614dca57fe5b9052506000905081602001516003811115614de157fe5b14614e1d5760405162461bcd60e51b815260040180806020018281038252602b815260200180615ce7602b913960400191505060405180910390fd5b6080810151600d5560a08101516001600160a01b0387166000818152600e60209081526040918290209390935560c084015160608086015183519485529484019190915282820193909352517f4c209b5fc8ad50758f13e2e1088ba56a560dff690a1c6fef26394f4c03821c4f929181900390910190a1606081015160408051918252516001600160a01b038816913091600080516020615da58339815191529181900360200190a360c001516000969095509350505050565b6000806000614ee46159ec565b614eee8787613f92565b90925090506000826003811115614f0157fe5b14614f125750915060009050613ddf565b613e25614f1e82613ffa565b86613f6c565b6000670de0b6b3a7640000614f3d8484600001516157bf565b81614f4457fe5b049392505050565b60006115d08383604051806040016040528060158152602001747375627472616374696f6e20756e646572666c6f7760581b815250615801565b6000614f906159ec565b614f9a8484615898565b905061146081613ffa565b60006115d08383604051806040016040528060118152602001706164646974696f6e206f766572666c6f7760781b8152506158c2565b6005546040805163368f515360e21b81523060048201526001600160a01b0385811660248301526044820185905291516000938493169163da3d454c91606480830192602092919082900301818787803b15801561503857600080fd5b505af115801561504c573d6000803e3d6000fd5b505050506040513d602081101561506257600080fd5b505190508015615081576150796003600e83613ee3565b915050610d59565b615089612e98565b6009541461509c57615079600a806128af565b826150a5612709565b10156150b757615079600e60096128af565b6150bf615b4e565b6150c885612de4565b60208301819052828260038111156150dc57fe5b60038111156150e757fe5b90525060009050815160038111156150fb57fe5b1461512057615117600960078360000151600381111561327a57fe5b92505050610d59565b61512e816020015185613f6c565b604083018190528282600381111561514257fe5b600381111561514d57fe5b905250600090508151600381111561516157fe5b1461517d576151176009600c8360000151600381111561327a57fe5b615189600b5485613f6c565b606083018190528282600381111561519d57fe5b60038111156151a857fe5b90525060009050815160038111156151bc57fe5b146151d8576151176009600b8360000151600381111561327a57fe5b6151e28585614471565b604080820180516001600160a01b03881660008181526010602090815290859020928355600a54600190930192909255606080860151600b81905593518551928352928201899052818501929092529081019190915290517f13ed6866d4e1ee6da46f845c46d7e54120883d75c5ea9a2dacc1c4ca8984ab809181900360800190a1600095945050505050565b60055460408051632fe3f38f60e11b81523060048201526001600160a01b0384811660248301528781166044830152868116606483015260848201869052915160009384938493911691635fc7e71e9160a48082019260209290919082900301818787803b1580156152e057600080fd5b505af11580156152f4573d6000803e3d6000fd5b505050506040513d602081101561530a57600080fd5b50519050801561532e576153216003601283613ee3565b9250600091506157589050565b615336612e98565b6009541461534a57615321600a60166128af565b615352612e98565b846001600160a01b0316636c540baf6040518163ffffffff1660e01b815260040160206040518083038186803b15801561538b57600080fd5b505afa15801561539f573d6000803e3d6000fd5b505050506040513d60208110156153b557600080fd5b5051146153c857615321600a60116128af565b866001600160a01b0316866001600160a01b031614156153ee57615321600660176128af565b846153ff57615321600760156128af565b60001985141561541557615321600760146128af565b600080615423898989613a97565b909250905081156154535761544482601081111561543d57fe5b60186128af565b94506000935061575892505050565b6005546040805163c488847b60e01b81523060048201526001600160a01b038981166024830152604482018590528251600094859492169263c488847b926064808301939192829003018186803b1580156154ad57600080fd5b505afa1580156154c1573d6000803e3d6000fd5b505050506040513d60408110156154d757600080fd5b508051602090910151909250905081156155225760405162461bcd60e51b8152600401808060200182810382526033815260200180615df66033913960400191505060405180910390fd5b80886001600160a01b03166370a082318c6040518263ffffffff1660e01b815260040180826001600160a01b03166001600160a01b0316815260200191505060206040518083038186803b15801561557957600080fd5b505afa15801561558d573d6000803e3d6000fd5b505050506040513d60208110156155a357600080fd5b505110156155f8576040805162461bcd60e51b815260206004820152601860248201527f4c49515549444154455f5345495a455f544f4f5f4d5543480000000000000000604482015290519081900360640190fd5b60006001600160a01b03891630141561561e57615617308d8d856133ea565b90506156a8565b6040805163b2a02ff160e01b81526001600160a01b038e811660048301528d81166024830152604482018590529151918b169163b2a02ff1916064808201926020929091908290030181600087803b15801561567957600080fd5b505af115801561568d573d6000803e3d6000fd5b505050506040513d60208110156156a357600080fd5b505190505b80156156f2576040805162461bcd60e51b81526020600482015260146024820152731d1bdad95b881cd95a5e9d5c994819985a5b195960621b604482015290519081900360640190fd5b604080516001600160a01b03808f168252808e1660208301528183018790528b1660608201526080810184905290517f298637f684da70674f26509b10f07ec2fbc77a335ab1e7d6215a4b2484d8bb529181900360a00190a16000975092955050505050505b94509492505050565b80820182811015610d59576040805162461bcd60e51b815260206004820152600c60248201526b6164642d6f766572666c6f7760a01b604482015290519081900360640190fd5b60008060006157b56159ec565b6126cc8686615917565b60006115d083836040518060400160405280601781526020017f6d756c7469706c69636174696f6e206f766572666c6f77000000000000000000815250615976565b600081848411156158905760405162461bcd60e51b81526004018080602001828103825283818151815260200191508051906020019080838360005b8381101561585557818101518382015260200161583d565b50505050905090810190601f1680156158825780820380516001836020036101000a031916815260200191505b509250505060405180910390fd5b505050900390565b6158a06159ec565b60405180602001604052806158b98560000151856157bf565b90529392505050565b600083830182858210156113915760405162461bcd60e51b815260206004820181815283516024840152835190928392604490910191908501908083836000831561585557818101518382015260200161583d565b60006159216159ec565b600080615936670de0b6b3a764000087614a9d565b9092509050600082600381111561594957fe5b1461596857506040805160208101909152600081529092509050612702565b6126fb818660000151613e33565b6000831580615983575082155b15615990575060006115d0565b8383028385828161599d57fe5b041483906113915760405162461bcd60e51b815260206004820181815283516024840152835190928392604490910191908501908083836000831561585557818101518382015260200161583d565b6040518060200160405280600081525090565b828054600181600116156101000203166002900490600052602060002090601f016020900481019282601f10615a4057805160ff1916838001178555615a6d565b82800160010185558215615a6d579182015b82811115615a6d578251825591602001919060010190615a52565b50615a79929150615b77565b5090565b604080516101208101909152806000815260200160008152602001600081526020016000815260200160008152602001600081526020016000815260200160008152602001600081525090565b6040805161010081019091528060008152602001600081526020016000815260200160008152602001600081526020016000815260200160008152602001600081525090565b6040805160e0810190915280600081526020016000815260200160008152602001600081526020016000815260200160008152602001600081525090565b604080516080810190915280600081526020016000815260200160008152602001600081525090565b61113f91905b80821115615a795760008155600101615b7d56fe6f6e6c792061646d696e206d617920696e697469616c697a6520746865206d61726b65746d61726b6574206d6179206f6e6c7920626520696e697469616c697a6564206f6e63654345726332303a3a7377656570546f6b656e3a2063616e206e6f7420737765657020756e6465726c79696e6720746f6b656e6f6e6c79207468652061646d696e206d617920696e697469616c697a652074686520696d706c656d656e746174696f6e696e697469616c2065786368616e67652072617465206d7573742062652067726561746572207468616e207a65726f2e6f6e6c79207468652061646d696e206d6179207365742074686520636f6d702d6c696b652064656c656761746573657474696e6720696e7465726573742072617465206d6f64656c206661696c65646f6e6c79207468652061646d696e206d6179206162616e646f6e2074686520696d706c656d656e746174696f6e4d494e545f4e45575f4143434f554e545f42414c414e43455f43414c43554c4154494f4e5f4641494c4544626f72726f7742616c616e636553746f7265643a20626f72726f7742616c616e636553746f726564496e7465726e616c206661696c6564444149206d757374206265207468652073616d6520617320756e6465726c79696e6752455041595f424f52524f575f4e45575f4143434f554e545f424f52524f575f42414c414e43455f43414c43554c4154494f4e5f4641494c4544ddf252ad1be2c89b69c2b068fc378daa952ba7f163c4a11628f55a4df523b3ef52455041595f424f52524f575f4e45575f544f54414c5f42414c414e43455f43414c43554c4154494f4e5f4641494c45444c49515549444154455f434f4d5054524f4c4c45525f43414c43554c4154455f414d4f554e545f5345495a455f4641494c4544756e6578706563746564204549502d3230207472616e7366657220696e2072657475726e65786368616e67655261746553746f7265643a2065786368616e67655261746553746f726564496e7465726e616c206661696c65644d494e545f4e45575f544f54414c5f535550504c595f43414c43554c4154494f4e5f4641494c45446f6e65206f662072656465656d546f6b656e73496e206f722072656465656d416d6f756e74496e206d757374206265207a65726f72656475636520726573657276657320756e657870656374656420756e646572666c6f77a265627a7a72315820123fc1c92716e389b3f81430725fbb2fa8c7d07c71792d9468f1d7a9f419f25464736f6c63430005100032",
  "source": "pragma solidity ^0.5.16;\r\n\r\nimport \"./CErc20Delegate.sol\";\r\n\r\n/**\r\n * @title Compound's CDai Contract\r\n * @notice CToken which wraps Multi-Collateral DAI\r\n * @author Compound\r\n */\r\ncontract CDaiDelegate is CErc20Delegate {\r\n    /**\r\n     * @notice DAI adapter address\r\n     */\r\n    address public daiJoinAddress;\r\n\r\n    /**\r\n     * @notice DAI Savings Rate (DSR) pot address\r\n     */\r\n    address public potAddress;\r\n\r\n    /**\r\n     * @notice DAI vat address\r\n     */\r\n    address public vatAddress;\r\n\r\n    /**\r\n     * @notice Delegate interface to become the implementation\r\n     * @param data The encoded arguments for becoming\r\n     */\r\n    function _becomeImplementation(bytes memory data) public {\r\n        require(msg.sender == admin, \"only the admin may initialize the implementation\");\r\n\r\n        (address daiJoinAddress_, address potAddress_) = abi.decode(data, (address, address));\r\n        return _becomeImplementation(daiJoinAddress_, potAddress_);\r\n    }\r\n\r\n    /**\r\n     * @notice Explicit interface to become the implementation\r\n     * @param daiJoinAddress_ DAI adapter address\r\n     * @param potAddress_ DAI Savings Rate (DSR) pot address\r\n     */\r\n    function _becomeImplementation(address daiJoinAddress_, address potAddress_) internal {\r\n        // Get dai and vat and sanity check the underlying\r\n        DaiJoinLike daiJoin = DaiJoinLike(daiJoinAddress_);\r\n        PotLike pot = PotLike(potAddress_);\r\n        GemLike dai = daiJoin.dai();\r\n        VatLike vat = daiJoin.vat();\r\n        require(address(dai) == underlying, \"DAI must be the same as underlying\");\r\n\r\n        // Remember the relevant addresses\r\n        daiJoinAddress = daiJoinAddress_;\r\n        potAddress = potAddress_;\r\n        vatAddress = address(vat);\r\n\r\n        // Approve moving our DAI into the vat through daiJoin\r\n        dai.approve(daiJoinAddress, uint(-1));\r\n\r\n        // Approve the pot to transfer our funds within the vat\r\n        vat.hope(potAddress);\r\n        vat.hope(daiJoinAddress);\r\n\r\n        // Accumulate DSR interest -- must do this in order to doTransferIn\r\n        pot.drip();\r\n\r\n        // Transfer all cash in (doTransferIn does this regardless of amount)\r\n        doTransferIn(address(this), 0);\r\n    }\r\n\r\n    /**\r\n     * @notice Delegate interface to resign the implementation\r\n     */\r\n    function _resignImplementation() public {\r\n        require(msg.sender == admin, \"only the admin may abandon the implementation\");\r\n\r\n        // Transfer all cash out of the DSR - note that this relies on self-transfer\r\n        DaiJoinLike daiJoin = DaiJoinLike(daiJoinAddress);\r\n        PotLike pot = PotLike(potAddress);\r\n        VatLike vat = VatLike(vatAddress);\r\n\r\n        // Accumulate interest\r\n        pot.drip();\r\n\r\n        // Calculate the total amount in the pot, and move it out\r\n        uint pie = pot.pie(address(this));\r\n        pot.exit(pie);\r\n\r\n        // Checks the actual balance of DAI in the vat after the pot exit\r\n        uint bal = vat.dai(address(this));\r\n\r\n        // Remove our whole balance\r\n        daiJoin.exit(address(this), bal / RAY);\r\n    }\r\n\r\n    /*** CToken Overrides ***/\r\n\r\n    /**\r\n      * @notice Accrues DSR then applies accrued interest to total borrows and reserves\r\n      * @dev This calculates interest accrued from the last checkpointed block\r\n      *      up to the current block and writes new checkpoint to storage.\r\n      */\r\n    function accrueInterest() public returns (uint) {\r\n        // Accumulate DSR interest\r\n        PotLike(potAddress).drip();\r\n\r\n        // Accumulate CToken interest\r\n        return super.accrueInterest();\r\n    }\r\n\r\n    /*** Safe Token ***/\r\n\r\n    /**\r\n     * @notice Gets balance of this contract in terms of the underlying\r\n     * @dev This excludes the value of the current message, if any\r\n     * @return The quantity of underlying tokens owned by this contract\r\n     */\r\n    function getCashPrior() internal view returns (uint) {\r\n        PotLike pot = PotLike(potAddress);\r\n        uint pie = pot.pie(address(this));\r\n        return mul(pot.chi(), pie) / RAY;\r\n    }\r\n\r\n    /**\r\n     * @notice Transfer the underlying to this contract and sweep into DSR pot\r\n     * @param from Address to transfer funds from\r\n     * @param amount Amount of underlying to transfer\r\n     * @return The actual amount that is transferred\r\n     */\r\n    function doTransferIn(address from, uint amount) internal returns (uint) {\r\n        // Perform the EIP-20 transfer in\r\n        EIP20Interface token = EIP20Interface(underlying);\r\n        require(token.transferFrom(from, address(this), amount), \"unexpected EIP-20 transfer in return\");\r\n\r\n        DaiJoinLike daiJoin = DaiJoinLike(daiJoinAddress);\r\n        GemLike dai = GemLike(underlying);\r\n        PotLike pot = PotLike(potAddress);\r\n        VatLike vat = VatLike(vatAddress);\r\n\r\n        // Convert all our DAI to internal DAI in the vat\r\n        daiJoin.join(address(this), dai.balanceOf(address(this)));\r\n\r\n        // Checks the actual balance of DAI in the vat after the join\r\n        uint bal = vat.dai(address(this));\r\n\r\n        // Calculate the percentage increase to th pot for the entire vat, and move it in\r\n        // Note: We may leave a tiny bit of DAI in the vat...but we do the whole thing every time\r\n        uint pie = bal / pot.chi();\r\n        pot.join(pie);\r\n\r\n        return amount;\r\n    }\r\n\r\n    /**\r\n     * @notice Transfer the underlying from this contract, after sweeping out of DSR pot\r\n     * @param to Address to transfer funds to\r\n     * @param amount Amount of underlying to transfer\r\n     */\r\n    function doTransferOut(address payable to, uint amount) internal {\r\n        DaiJoinLike daiJoin = DaiJoinLike(daiJoinAddress);\r\n        PotLike pot = PotLike(potAddress);\r\n\r\n        // Calculate the percentage decrease from the pot, and move that much out\r\n        // Note: Use a slightly larger pie size to ensure that we get at least amount in the vat\r\n        uint pie = add(mul(amount, RAY) / pot.chi(), 1);\r\n        pot.exit(pie);\r\n\r\n        daiJoin.exit(to, amount);\r\n    }\r\n\r\n    /*** Maker Internals ***/\r\n\r\n    uint256 constant RAY = 10 ** 27;\r\n\r\n    function add(uint x, uint y) internal pure returns (uint z) {\r\n        require((z = x + y) >= x, \"add-overflow\");\r\n    }\r\n\r\n    function mul(uint x, uint y) internal pure returns (uint z) {\r\n        require(y == 0 || (z = x * y) / y == x, \"mul-overflow\");\r\n    }\r\n}\r\n\r\n/*** Maker Interfaces ***/\r\n\r\ninterface PotLike {\r\n    function chi() external view returns (uint);\r\n    function pie(address) external view returns (uint);\r\n    function drip() external returns (uint);\r\n    function join(uint) external;\r\n    function exit(uint) external;\r\n}\r\n\r\ninterface GemLike {\r\n    function approve(address, uint) external;\r\n    function balanceOf(address) external view returns (uint);\r\n    function transferFrom(address, address, uint) external returns (bool);\r\n}\r\n\r\ninterface VatLike {\r\n    function dai(address) external view returns (uint);\r\n    function hope(address) external;\r\n}\r\n\r\ninterface DaiJoinLike {\r\n    function vat() external returns (VatLike);\r\n    function dai() external returns (GemLike);\r\n    function join(address, uint) external payable;\r\n    function exit(address, uint) external;\r\n}\r\n",
  "sourcePath": "F:\\7-hlf-github\\compound-play\\compound\\contracts\\CDaiDelegate.sol",
  "compiler": {
    "name": "solc",
    "version": "0.5.16+commit.9c3226ce.Emscripten.clang"
  },
  "schemaVersion": "3.4.3",
  "updatedAt": "2022-01-24T11:39:40.462Z",
  "devdoc": {
    "author": "Compound",
    "methods": {
      "_acceptAdmin()": {
        "details": "Admin function for pending admin to accept role and update admin",
        "return": "uint 0=success, otherwise a failure (see ErrorReporter.sol for details)"
      },
      "_addReserves(uint256)": {
        "params": {
          "addAmount": "The amount fo underlying token to add as reserves"
        },
        "return": "uint 0=success, otherwise a failure (see ErrorReporter.sol for details)"
      },
      "_becomeImplementation(bytes)": {
        "params": {
          "data": "The encoded arguments for becoming"
        }
      },
      "_delegateCompLikeTo(address)": {
        "details": "CTokens whose underlying are not CompLike should revert here",
        "params": {
          "compLikeDelegatee": "The address to delegate votes to"
        }
      },
      "_reduceReserves(uint256)": {
        "params": {
          "reduceAmount": "Amount of reduction to reserves"
        },
        "return": "uint 0=success, otherwise a failure (see ErrorReporter.sol for details)"
      },
      "_setComptroller(address)": {
        "details": "Admin function to set a new comptroller",
        "return": "uint 0=success, otherwise a failure (see ErrorReporter.sol for details)"
      },
      "_setInterestRateModel(address)": {
        "details": "Admin function to accrue interest and update the interest rate model",
        "params": {
          "newInterestRateModel": "the new interest rate model to use"
        },
        "return": "uint 0=success, otherwise a failure (see ErrorReporter.sol for details)"
      },
      "_setPendingAdmin(address)": {
        "details": "Admin function to begin change of admin. The newPendingAdmin must call `_acceptAdmin` to finalize the transfer.",
        "params": {
          "newPendingAdmin": "New pending admin."
        },
        "return": "uint 0=success, otherwise a failure (see ErrorReporter.sol for details)"
      },
      "_setReserveFactor(uint256)": {
        "details": "Admin function to accrue interest and set a new reserve factor",
        "return": "uint 0=success, otherwise a failure (see ErrorReporter.sol for details)"
      },
      "accrueInterest()": {
        "details": "This calculates interest accrued from the last checkpointed block     up to the current block and writes new checkpoint to storage."
      },
      "allowance(address,address)": {
        "params": {
          "owner": "The address of the account which owns the tokens to be spent",
          "spender": "The address of the account which may transfer tokens"
        },
        "return": "The number of tokens allowed to be spent (-1 means infinite)"
      },
      "approve(address,uint256)": {
        "details": "This will overwrite the approval amount for `spender` and is subject to issues noted [here](https://eips.ethereum.org/EIPS/eip-20#approve)",
        "params": {
          "amount": "The number of tokens that are approved (-1 means infinite)",
          "spender": "The address of the account which may transfer tokens"
        },
        "return": "Whether or not the approval succeeded"
      },
      "balanceOf(address)": {
        "params": {
          "owner": "The address of the account to query"
        },
        "return": "The number of tokens owned by `owner`"
      },
      "balanceOfUnderlying(address)": {
        "details": "This also accrues interest in a transaction",
        "params": {
          "owner": "The address of the account to query"
        },
        "return": "The amount of underlying owned by `owner`"
      },
      "borrow(uint256)": {
        "params": {
          "borrowAmount": "The amount of the underlying asset to borrow"
        },
        "return": "uint 0=success, otherwise a failure (see ErrorReporter.sol for details)"
      },
      "borrowBalanceCurrent(address)": {
        "params": {
          "account": "The address whose balance should be calculated after updating borrowIndex"
        },
        "return": "The calculated balance"
      },
      "borrowBalanceStored(address)": {
        "params": {
          "account": "The address whose balance should be calculated"
        },
        "return": "The calculated balance"
      },
      "borrowRatePerBlock()": {
        "return": "The borrow interest rate per block, scaled by 1e18"
      },
      "exchangeRateCurrent()": {
        "return": "Calculated exchange rate scaled by 1e18"
      },
      "exchangeRateStored()": {
        "details": "This function does not accrue interest before calculating the exchange rate",
        "return": "Calculated exchange rate scaled by 1e18"
      },
      "getAccountSnapshot(address)": {
        "details": "This is used by comptroller to more efficiently perform liquidity checks.",
        "params": {
          "account": "Address of the account to snapshot"
        },
        "return": "(possible error, token balance, borrow balance, exchange rate mantissa)"
      },
      "getCash()": {
        "return": "The quantity of underlying asset owned by this contract"
      },
      "initialize(address,address,address,uint256,string,string,uint8)": {
        "params": {
          "comptroller_": "The address of the Comptroller",
          "decimals_": "ERC-20 decimal precision of this token",
          "initialExchangeRateMantissa_": "The initial exchange rate, scaled by 1e18",
          "interestRateModel_": "The address of the interest rate model",
          "name_": "ERC-20 name of this token",
          "symbol_": "ERC-20 symbol of this token",
          "underlying_": "The address of the underlying asset"
        }
      },
      "initialize(address,address,uint256,string,string,uint8)": {
        "params": {
          "comptroller_": "The address of the Comptroller",
          "decimals_": "EIP-20 decimal precision of this token",
          "initialExchangeRateMantissa_": "The initial exchange rate, scaled by 1e18",
          "interestRateModel_": "The address of the interest rate model",
          "name_": "EIP-20 name of this token",
          "symbol_": "EIP-20 symbol of this token"
        }
      },
      "liquidateBorrow(address,uint256,address)": {
        "params": {
          "borrower": "The borrower of this cToken to be liquidated",
          "cTokenCollateral": "The market in which to seize collateral from the borrower",
          "repayAmount": "The amount of the underlying borrowed asset to repay"
        },
        "return": "uint 0=success, otherwise a failure (see ErrorReporter.sol for details)"
      },
      "mint(uint256)": {
        "details": "Accrues interest whether or not the operation succeeds, unless reverted",
        "params": {
          "mintAmount": "The amount of the underlying asset to supply"
        },
        "return": "uint 0=success, otherwise a failure (see ErrorReporter.sol for details)"
      },
      "redeem(uint256)": {
        "details": "Accrues interest whether or not the operation succeeds, unless reverted",
        "params": {
          "redeemTokens": "The number of cTokens to redeem into underlying"
        },
        "return": "uint 0=success, otherwise a failure (see ErrorReporter.sol for details)"
      },
      "redeemUnderlying(uint256)": {
        "details": "Accrues interest whether or not the operation succeeds, unless reverted",
        "params": {
          "redeemAmount": "The amount of underlying to redeem"
        },
        "return": "uint 0=success, otherwise a failure (see ErrorReporter.sol for details)"
      },
      "repayBorrow(uint256)": {
        "params": {
          "repayAmount": "The amount to repay"
        },
        "return": "uint 0=success, otherwise a failure (see ErrorReporter.sol for details)"
      },
      "repayBorrowBehalf(address,uint256)": {
        "params": {
          "borrower": "the account with the debt being payed off",
          "repayAmount": "The amount to repay"
        },
        "return": "uint 0=success, otherwise a failure (see ErrorReporter.sol for details)"
      },
      "seize(address,address,uint256)": {
        "details": "Will fail unless called by another cToken during the process of liquidation. Its absolutely critical to use msg.sender as the borrowed cToken and not a parameter.",
        "params": {
          "borrower": "The account having collateral seized",
          "liquidator": "The account receiving seized collateral",
          "seizeTokens": "The number of cTokens to seize"
        },
        "return": "uint 0=success, otherwise a failure (see ErrorReporter.sol for details)"
      },
      "supplyRatePerBlock()": {
        "return": "The supply interest rate per block, scaled by 1e18"
      },
      "sweepToken(address)": {
        "params": {
          "token": "The address of the ERC-20 token to sweep"
        }
      },
      "totalBorrowsCurrent()": {
        "return": "The total borrows with interest"
      },
      "transfer(address,uint256)": {
        "params": {
          "amount": "The number of tokens to transfer",
          "dst": "The address of the destination account"
        },
        "return": "Whether or not the transfer succeeded"
      },
      "transferFrom(address,address,uint256)": {
        "params": {
          "amount": "The number of tokens to transfer",
          "dst": "The address of the destination account",
          "src": "The address of the source account"
        },
        "return": "Whether or not the transfer succeeded"
      }
    },
    "title": "Compound's CDai Contract"
  },
  "userdoc": {
    "methods": {
      "_acceptAdmin()": {
        "notice": "Accepts transfer of admin rights. msg.sender must be pendingAdmin"
      },
      "_addReserves(uint256)": {
        "notice": "The sender adds to reserves."
      },
      "_becomeImplementation(bytes)": {
        "notice": "Delegate interface to become the implementation"
      },
      "_delegateCompLikeTo(address)": {
        "notice": "Admin call to delegate the votes of the COMP-like underlying"
      },
      "_reduceReserves(uint256)": {
        "notice": "Accrues interest and reduces reserves by transferring to admin"
      },
      "_resignImplementation()": {
        "notice": "Delegate interface to resign the implementation"
      },
      "_setComptroller(address)": {
        "notice": "Sets a new comptroller for the market"
      },
      "_setInterestRateModel(address)": {
        "notice": "accrues interest and updates the interest rate model using _setInterestRateModelFresh"
      },
      "_setPendingAdmin(address)": {
        "notice": "Begins transfer of admin rights. The newPendingAdmin must call `_acceptAdmin` to finalize the transfer."
      },
      "_setReserveFactor(uint256)": {
        "notice": "accrues interest and sets a new reserve factor for the protocol using _setReserveFactorFresh"
      },
      "accrueInterest()": {
        "notice": "Accrues DSR then applies accrued interest to total borrows and reserves"
      },
      "allowance(address,address)": {
        "notice": "Get the current allowance from `owner` for `spender`"
      },
      "approve(address,uint256)": {
        "notice": "Approve `spender` to transfer up to `amount` from `src`"
      },
      "balanceOf(address)": {
        "notice": "Get the token balance of the `owner`"
      },
      "balanceOfUnderlying(address)": {
        "notice": "Get the underlying balance of the `owner`"
      },
      "borrow(uint256)": {
        "notice": "Sender borrows assets from the protocol to their own address"
      },
      "borrowBalanceCurrent(address)": {
        "notice": "Accrue interest to updated borrowIndex and then calculate account's borrow balance using the updated borrowIndex"
      },
      "borrowBalanceStored(address)": {
        "notice": "Return the borrow balance of account based on stored data"
      },
      "borrowRatePerBlock()": {
        "notice": "Returns the current per-block borrow interest rate for this cToken"
      },
      "exchangeRateCurrent()": {
        "notice": "Accrue interest then return the up-to-date exchange rate"
      },
      "exchangeRateStored()": {
        "notice": "Calculates the exchange rate from the underlying to the CToken"
      },
      "getAccountSnapshot(address)": {
        "notice": "Get a snapshot of the account's balances, and the cached exchange rate"
      },
      "getCash()": {
        "notice": "Get cash balance of this cToken in the underlying asset"
      },
      "initialize(address,address,address,uint256,string,string,uint8)": {
        "notice": "Initialize the new money market"
      },
      "initialize(address,address,uint256,string,string,uint8)": {
        "notice": "Initialize the money market"
      },
      "liquidateBorrow(address,uint256,address)": {
        "notice": "The sender liquidates the borrowers collateral. The collateral seized is transferred to the liquidator."
      },
      "mint(uint256)": {
        "notice": "Sender supplies assets into the market and receives cTokens in exchange"
      },
      "redeem(uint256)": {
        "notice": "Sender redeems cTokens in exchange for the underlying asset"
      },
      "redeemUnderlying(uint256)": {
        "notice": "Sender redeems cTokens in exchange for a specified amount of underlying asset"
      },
      "repayBorrow(uint256)": {
        "notice": "Sender repays their own borrow"
      },
      "repayBorrowBehalf(address,uint256)": {
        "notice": "Sender repays a borrow belonging to borrower"
      },
      "seize(address,address,uint256)": {
        "notice": "Transfers collateral tokens (this market) to the liquidator."
      },
      "supplyRatePerBlock()": {
        "notice": "Returns the current per-block supply interest rate for this cToken"
      },
      "sweepToken(address)": {
        "notice": "A public function to sweep accidental ERC-20 transfers to this contract. Tokens are sent to admin (timelock)"
      },
      "totalBorrowsCurrent()": {
        "notice": "Returns the current total borrows plus accrued interest"
      },
      "transfer(address,uint256)": {
        "notice": "Transfer `amount` tokens from `msg.sender` to `dst`"
      },
      "transferFrom(address,address,uint256)": {
        "notice": "Transfer `amount` tokens from `src` to `dst`"
      }
    },
    "notice": "CToken which wraps Multi-Collateral DAI"
  }
}