{
  "contractName": "CErc20Delegator",
  "abi": [
    {
      "inputs": [
        {
          "internalType": "address",
          "name": "underlying_",
          "type": "address"
        },
        {
          "internalType": "contract ComptrollerInterface",
          "name": "comptroller_",
          "type": "address"
        },
        {
          "internalType": "contract InterestRateModel",
          "name": "interestRateModel_",
          "type": "address"
        },
        {
          "internalType": "uint256",
          "name": "initialExchangeRateMantissa_",
          "type": "uint256"
        },
        {
          "internalType": "string",
          "name": "name_",
          "type": "string"
        },
        {
          "internalType": "string",
          "name": "symbol_",
          "type": "string"
        },
        {
          "internalType": "uint8",
          "name": "decimals_",
          "type": "uint8"
        },
        {
          "internalType": "address payable",
          "name": "admin_",
          "type": "address"
        },
        {
          "internalType": "address",
          "name": "implementation_",
          "type": "address"
        },
        {
          "internalType": "bytes",
          "name": "becomeImplementationData",
          "type": "bytes"
        }
      ],
      "payable": false,
      "stateMutability": "nonpayable",
      "type": "constructor"
    },
    {
      "anonymous": false,
      "inputs": [
        {
          "indexed": false,
          "internalType": "uint256",
          "name": "cashPrior",
          "type": "uint256"
        },
        {
          "indexed": false,
          "internalType": "uint256",
          "name": "interestAccumulated",
          "type": "uint256"
        },
        {
          "indexed": false,
          "internalType": "uint256",
          "name": "borrowIndex",
          "type": "uint256"
        },
        {
          "indexed": false,
          "internalType": "uint256",
          "name": "totalBorrows",
          "type": "uint256"
        }
      ],
      "name": "AccrueInterest",
      "type": "event"
    },
    {
      "anonymous": false,
      "inputs": [
        {
          "indexed": true,
          "internalType": "address",
          "name": "owner",
          "type": "address"
        },
        {
          "indexed": true,
          "internalType": "address",
          "name": "spender",
          "type": "address"
        },
        {
          "indexed": false,
          "internalType": "uint256",
          "name": "amount",
          "type": "uint256"
        }
      ],
      "name": "Approval",
      "type": "event"
    },
    {
      "anonymous": false,
      "inputs": [
        {
          "indexed": false,
          "internalType": "address",
          "name": "borrower",
          "type": "address"
        },
        {
          "indexed": false,
          "internalType": "uint256",
          "name": "borrowAmount",
          "type": "uint256"
        },
        {
          "indexed": false,
          "internalType": "uint256",
          "name": "accountBorrows",
          "type": "uint256"
        },
        {
          "indexed": false,
          "internalType": "uint256",
          "name": "totalBorrows",
          "type": "uint256"
        }
      ],
      "name": "Borrow",
      "type": "event"
    },
    {
      "anonymous": false,
      "inputs": [
        {
          "indexed": false,
          "internalType": "uint256",
          "name": "error",
          "type": "uint256"
        },
        {
          "indexed": false,
          "internalType": "uint256",
          "name": "info",
          "type": "uint256"
        },
        {
          "indexed": false,
          "internalType": "uint256",
          "name": "detail",
          "type": "uint256"
        }
      ],
      "name": "Failure",
      "type": "event"
    },
    {
      "anonymous": false,
      "inputs": [
        {
          "indexed": false,
          "internalType": "address",
          "name": "liquidator",
          "type": "address"
        },
        {
          "indexed": false,
          "internalType": "address",
          "name": "borrower",
          "type": "address"
        },
        {
          "indexed": false,
          "internalType": "uint256",
          "name": "repayAmount",
          "type": "uint256"
        },
        {
          "indexed": false,
          "internalType": "address",
          "name": "cTokenCollateral",
          "type": "address"
        },
        {
          "indexed": false,
          "internalType": "uint256",
          "name": "seizeTokens",
          "type": "uint256"
        }
      ],
      "name": "LiquidateBorrow",
      "type": "event"
    },
    {
      "anonymous": false,
      "inputs": [
        {
          "indexed": false,
          "internalType": "address",
          "name": "minter",
          "type": "address"
        },
        {
          "indexed": false,
          "internalType": "uint256",
          "name": "mintAmount",
          "type": "uint256"
        },
        {
          "indexed": false,
          "internalType": "uint256",
          "name": "mintTokens",
          "type": "uint256"
        }
      ],
      "name": "Mint",
      "type": "event"
    },
    {
      "anonymous": false,
      "inputs": [
        {
          "indexed": false,
          "internalType": "address",
          "name": "oldAdmin",
          "type": "address"
        },
        {
          "indexed": false,
          "internalType": "address",
          "name": "newAdmin",
          "type": "address"
        }
      ],
      "name": "NewAdmin",
      "type": "event"
    },
    {
      "anonymous": false,
      "inputs": [
        {
          "indexed": false,
          "internalType": "contract ComptrollerInterface",
          "name": "oldComptroller",
          "type": "address"
        },
        {
          "indexed": false,
          "internalType": "contract ComptrollerInterface",
          "name": "newComptroller",
          "type": "address"
        }
      ],
      "name": "NewComptroller",
      "type": "event"
    },
    {
      "anonymous": false,
      "inputs": [
        {
          "indexed": false,
          "internalType": "address",
          "name": "oldImplementation",
          "type": "address"
        },
        {
          "indexed": false,
          "internalType": "address",
          "name": "newImplementation",
          "type": "address"
        }
      ],
      "name": "NewImplementation",
      "type": "event"
    },
    {
      "anonymous": false,
      "inputs": [
        {
          "indexed": false,
          "internalType": "contract InterestRateModel",
          "name": "oldInterestRateModel",
          "type": "address"
        },
        {
          "indexed": false,
          "internalType": "contract InterestRateModel",
          "name": "newInterestRateModel",
          "type": "address"
        }
      ],
      "name": "NewMarketInterestRateModel",
      "type": "event"
    },
    {
      "anonymous": false,
      "inputs": [
        {
          "indexed": false,
          "internalType": "address",
          "name": "oldPendingAdmin",
          "type": "address"
        },
        {
          "indexed": false,
          "internalType": "address",
          "name": "newPendingAdmin",
          "type": "address"
        }
      ],
      "name": "NewPendingAdmin",
      "type": "event"
    },
    {
      "anonymous": false,
      "inputs": [
        {
          "indexed": false,
          "internalType": "uint256",
          "name": "oldReserveFactorMantissa",
          "type": "uint256"
        },
        {
          "indexed": false,
          "internalType": "uint256",
          "name": "newReserveFactorMantissa",
          "type": "uint256"
        }
      ],
      "name": "NewReserveFactor",
      "type": "event"
    },
    {
      "anonymous": false,
      "inputs": [
        {
          "indexed": false,
          "internalType": "address",
          "name": "redeemer",
          "type": "address"
        },
        {
          "indexed": false,
          "internalType": "uint256",
          "name": "redeemAmount",
          "type": "uint256"
        },
        {
          "indexed": false,
          "internalType": "uint256",
          "name": "redeemTokens",
          "type": "uint256"
        }
      ],
      "name": "Redeem",
      "type": "event"
    },
    {
      "anonymous": false,
      "inputs": [
        {
          "indexed": false,
          "internalType": "address",
          "name": "payer",
          "type": "address"
        },
        {
          "indexed": false,
          "internalType": "address",
          "name": "borrower",
          "type": "address"
        },
        {
          "indexed": false,
          "internalType": "uint256",
          "name": "repayAmount",
          "type": "uint256"
        },
        {
          "indexed": false,
          "internalType": "uint256",
          "name": "accountBorrows",
          "type": "uint256"
        },
        {
          "indexed": false,
          "internalType": "uint256",
          "name": "totalBorrows",
          "type": "uint256"
        }
      ],
      "name": "RepayBorrow",
      "type": "event"
    },
    {
      "anonymous": false,
      "inputs": [
        {
          "indexed": false,
          "internalType": "address",
          "name": "benefactor",
          "type": "address"
        },
        {
          "indexed": false,
          "internalType": "uint256",
          "name": "addAmount",
          "type": "uint256"
        },
        {
          "indexed": false,
          "internalType": "uint256",
          "name": "newTotalReserves",
          "type": "uint256"
        }
      ],
      "name": "ReservesAdded",
      "type": "event"
    },
    {
      "anonymous": false,
      "inputs": [
        {
          "indexed": false,
          "internalType": "address",
          "name": "admin",
          "type": "address"
        },
        {
          "indexed": false,
          "internalType": "uint256",
          "name": "reduceAmount",
          "type": "uint256"
        },
        {
          "indexed": false,
          "internalType": "uint256",
          "name": "newTotalReserves",
          "type": "uint256"
        }
      ],
      "name": "ReservesReduced",
      "type": "event"
    },
    {
      "anonymous": false,
      "inputs": [
        {
          "indexed": true,
          "internalType": "address",
          "name": "from",
          "type": "address"
        },
        {
          "indexed": true,
          "internalType": "address",
          "name": "to",
          "type": "address"
        },
        {
          "indexed": false,
          "internalType": "uint256",
          "name": "amount",
          "type": "uint256"
        }
      ],
      "name": "Transfer",
      "type": "event"
    },
    {
      "payable": true,
      "stateMutability": "payable",
      "type": "fallback"
    },
    {
      "constant": true,
      "inputs": [],
      "name": "accrualBlockNumber",
      "outputs": [
        {
          "internalType": "uint256",
          "name": "",
          "type": "uint256"
        }
      ],
      "payable": false,
      "stateMutability": "view",
      "type": "function"
    },
    {
      "constant": true,
      "inputs": [],
      "name": "admin",
      "outputs": [
        {
          "internalType": "address payable",
          "name": "",
          "type": "address"
        }
      ],
      "payable": false,
      "stateMutability": "view",
      "type": "function"
    },
    {
      "constant": true,
      "inputs": [],
      "name": "borrowIndex",
      "outputs": [
        {
          "internalType": "uint256",
          "name": "",
          "type": "uint256"
        }
      ],
      "payable": false,
      "stateMutability": "view",
      "type": "function"
    },
    {
      "constant": true,
      "inputs": [],
      "name": "comptroller",
      "outputs": [
        {
          "internalType": "contract ComptrollerInterface",
          "name": "",
          "type": "address"
        }
      ],
      "payable": false,
      "stateMutability": "view",
      "type": "function"
    },
    {
      "constant": true,
      "inputs": [],
      "name": "decimals",
      "outputs": [
        {
          "internalType": "uint8",
          "name": "",
          "type": "uint8"
        }
      ],
      "payable": false,
      "stateMutability": "view",
      "type": "function"
    },
    {
      "constant": true,
      "inputs": [],
      "name": "implementation",
      "outputs": [
        {
          "internalType": "address",
          "name": "",
          "type": "address"
        }
      ],
      "payable": false,
      "stateMutability": "view",
      "type": "function"
    },
    {
      "constant": true,
      "inputs": [],
      "name": "interestRateModel",
      "outputs": [
        {
          "internalType": "contract InterestRateModel",
          "name": "",
          "type": "address"
        }
      ],
      "payable": false,
      "stateMutability": "view",
      "type": "function"
    },
    {
      "constant": true,
      "inputs": [],
      "name": "isCToken",
      "outputs": [
        {
          "internalType": "bool",
          "name": "",
          "type": "bool"
        }
      ],
      "payable": false,
      "stateMutability": "view",
      "type": "function"
    },
    {
      "constant": true,
      "inputs": [],
      "name": "name",
      "outputs": [
        {
          "internalType": "string",
          "name": "",
          "type": "string"
        }
      ],
      "payable": false,
      "stateMutability": "view",
      "type": "function"
    },
    {
      "constant": true,
      "inputs": [],
      "name": "pendingAdmin",
      "outputs": [
        {
          "internalType": "address payable",
          "name": "",
          "type": "address"
        }
      ],
      "payable": false,
      "stateMutability": "view",
      "type": "function"
    },
    {
      "constant": true,
      "inputs": [],
      "name": "protocolSeizeShareMantissa",
      "outputs": [
        {
          "internalType": "uint256",
          "name": "",
          "type": "uint256"
        }
      ],
      "payable": false,
      "stateMutability": "view",
      "type": "function"
    },
    {
      "constant": true,
      "inputs": [],
      "name": "reserveFactorMantissa",
      "outputs": [
        {
          "internalType": "uint256",
          "name": "",
          "type": "uint256"
        }
      ],
      "payable": false,
      "stateMutability": "view",
      "type": "function"
    },
    {
      "constant": true,
      "inputs": [],
      "name": "symbol",
      "outputs": [
        {
          "internalType": "string",
          "name": "",
          "type": "string"
        }
      ],
      "payable": false,
      "stateMutability": "view",
      "type": "function"
    },
    {
      "constant": true,
      "inputs": [],
      "name": "totalBorrows",
      "outputs": [
        {
          "internalType": "uint256",
          "name": "",
          "type": "uint256"
        }
      ],
      "payable": false,
      "stateMutability": "view",
      "type": "function"
    },
    {
      "constant": true,
      "inputs": [],
      "name": "totalReserves",
      "outputs": [
        {
          "internalType": "uint256",
          "name": "",
          "type": "uint256"
        }
      ],
      "payable": false,
      "stateMutability": "view",
      "type": "function"
    },
    {
      "constant": true,
      "inputs": [],
      "name": "totalSupply",
      "outputs": [
        {
          "internalType": "uint256",
          "name": "",
          "type": "uint256"
        }
      ],
      "payable": false,
      "stateMutability": "view",
      "type": "function"
    },
    {
      "constant": true,
      "inputs": [],
      "name": "underlying",
      "outputs": [
        {
          "internalType": "address",
          "name": "",
          "type": "address"
        }
      ],
      "payable": false,
      "stateMutability": "view",
      "type": "function"
    },
    {
      "constant": false,
      "inputs": [
        {
          "internalType": "address",
          "name": "implementation_",
          "type": "address"
        },
        {
          "internalType": "bool",
          "name": "allowResign",
          "type": "bool"
        },
        {
          "internalType": "bytes",
          "name": "becomeImplementationData",
          "type": "bytes"
        }
      ],
      "name": "_setImplementation",
      "outputs": [],
      "payable": false,
      "stateMutability": "nonpayable",
      "type": "function"
    },
    {
      "constant": false,
      "inputs": [
        {
          "internalType": "uint256",
          "name": "mintAmount",
          "type": "uint256"
        }
      ],
      "name": "mint",
      "outputs": [
        {
          "internalType": "uint256",
          "name": "",
          "type": "uint256"
        }
      ],
      "payable": false,
      "stateMutability": "nonpayable",
      "type": "function"
    },
    {
      "constant": false,
      "inputs": [
        {
          "internalType": "uint256",
          "name": "redeemTokens",
          "type": "uint256"
        }
      ],
      "name": "redeem",
      "outputs": [
        {
          "internalType": "uint256",
          "name": "",
          "type": "uint256"
        }
      ],
      "payable": false,
      "stateMutability": "nonpayable",
      "type": "function"
    },
    {
      "constant": false,
      "inputs": [
        {
          "internalType": "uint256",
          "name": "redeemAmount",
          "type": "uint256"
        }
      ],
      "name": "redeemUnderlying",
      "outputs": [
        {
          "internalType": "uint256",
          "name": "",
          "type": "uint256"
        }
      ],
      "payable": false,
      "stateMutability": "nonpayable",
      "type": "function"
    },
    {
      "constant": false,
      "inputs": [
        {
          "internalType": "uint256",
          "name": "borrowAmount",
          "type": "uint256"
        }
      ],
      "name": "borrow",
      "outputs": [
        {
          "internalType": "uint256",
          "name": "",
          "type": "uint256"
        }
      ],
      "payable": false,
      "stateMutability": "nonpayable",
      "type": "function"
    },
    {
      "constant": false,
      "inputs": [
        {
          "internalType": "uint256",
          "name": "repayAmount",
          "type": "uint256"
        }
      ],
      "name": "repayBorrow",
      "outputs": [
        {
          "internalType": "uint256",
          "name": "",
          "type": "uint256"
        }
      ],
      "payable": false,
      "stateMutability": "nonpayable",
      "type": "function"
    },
    {
      "constant": false,
      "inputs": [
        {
          "internalType": "address",
          "name": "borrower",
          "type": "address"
        },
        {
          "internalType": "uint256",
          "name": "repayAmount",
          "type": "uint256"
        }
      ],
      "name": "repayBorrowBehalf",
      "outputs": [
        {
          "internalType": "uint256",
          "name": "",
          "type": "uint256"
        }
      ],
      "payable": false,
      "stateMutability": "nonpayable",
      "type": "function"
    },
    {
      "constant": false,
      "inputs": [
        {
          "internalType": "address",
          "name": "borrower",
          "type": "address"
        },
        {
          "internalType": "uint256",
          "name": "repayAmount",
          "type": "uint256"
        },
        {
          "internalType": "contract CTokenInterface",
          "name": "cTokenCollateral",
          "type": "address"
        }
      ],
      "name": "liquidateBorrow",
      "outputs": [
        {
          "internalType": "uint256",
          "name": "",
          "type": "uint256"
        }
      ],
      "payable": false,
      "stateMutability": "nonpayable",
      "type": "function"
    },
    {
      "constant": false,
      "inputs": [
        {
          "internalType": "address",
          "name": "dst",
          "type": "address"
        },
        {
          "internalType": "uint256",
          "name": "amount",
          "type": "uint256"
        }
      ],
      "name": "transfer",
      "outputs": [
        {
          "internalType": "bool",
          "name": "",
          "type": "bool"
        }
      ],
      "payable": false,
      "stateMutability": "nonpayable",
      "type": "function"
    },
    {
      "constant": false,
      "inputs": [
        {
          "internalType": "address",
          "name": "src",
          "type": "address"
        },
        {
          "internalType": "address",
          "name": "dst",
          "type": "address"
        },
        {
          "internalType": "uint256",
          "name": "amount",
          "type": "uint256"
        }
      ],
      "name": "transferFrom",
      "outputs": [
        {
          "internalType": "bool",
          "name": "",
          "type": "bool"
        }
      ],
      "payable": false,
      "stateMutability": "nonpayable",
      "type": "function"
    },
    {
      "constant": false,
      "inputs": [
        {
          "internalType": "address",
          "name": "spender",
          "type": "address"
        },
        {
          "internalType": "uint256",
          "name": "amount",
          "type": "uint256"
        }
      ],
      "name": "approve",
      "outputs": [
        {
          "internalType": "bool",
          "name": "",
          "type": "bool"
        }
      ],
      "payable": false,
      "stateMutability": "nonpayable",
      "type": "function"
    },
    {
      "constant": true,
      "inputs": [
        {
          "internalType": "address",
          "name": "owner",
          "type": "address"
        },
        {
          "internalType": "address",
          "name": "spender",
          "type": "address"
        }
      ],
      "name": "allowance",
      "outputs": [
        {
          "internalType": "uint256",
          "name": "",
          "type": "uint256"
        }
      ],
      "payable": false,
      "stateMutability": "view",
      "type": "function"
    },
    {
      "constant": true,
      "inputs": [
        {
          "internalType": "address",
          "name": "owner",
          "type": "address"
        }
      ],
      "name": "balanceOf",
      "outputs": [
        {
          "internalType": "uint256",
          "name": "",
          "type": "uint256"
        }
      ],
      "payable": false,
      "stateMutability": "view",
      "type": "function"
    },
    {
      "constant": false,
      "inputs": [
        {
          "internalType": "address",
          "name": "owner",
          "type": "address"
        }
      ],
      "name": "balanceOfUnderlying",
      "outputs": [
        {
          "internalType": "uint256",
          "name": "",
          "type": "uint256"
        }
      ],
      "payable": false,
      "stateMutability": "nonpayable",
      "type": "function"
    },
    {
      "constant": true,
      "inputs": [
        {
          "internalType": "address",
          "name": "account",
          "type": "address"
        }
      ],
      "name": "getAccountSnapshot",
      "outputs": [
        {
          "internalType": "uint256",
          "name": "",
          "type": "uint256"
        },
        {
          "internalType": "uint256",
          "name": "",
          "type": "uint256"
        },
        {
          "internalType": "uint256",
          "name": "",
          "type": "uint256"
        },
        {
          "internalType": "uint256",
          "name": "",
          "type": "uint256"
        }
      ],
      "payable": false,
      "stateMutability": "view",
      "type": "function"
    },
    {
      "constant": true,
      "inputs": [],
      "name": "borrowRatePerBlock",
      "outputs": [
        {
          "internalType": "uint256",
          "name": "",
          "type": "uint256"
        }
      ],
      "payable": false,
      "stateMutability": "view",
      "type": "function"
    },
    {
      "constant": true,
      "inputs": [],
      "name": "supplyRatePerBlock",
      "outputs": [
        {
          "internalType": "uint256",
          "name": "",
          "type": "uint256"
        }
      ],
      "payable": false,
      "stateMutability": "view",
      "type": "function"
    },
    {
      "constant": false,
      "inputs": [],
      "name": "totalBorrowsCurrent",
      "outputs": [
        {
          "internalType": "uint256",
          "name": "",
          "type": "uint256"
        }
      ],
      "payable": false,
      "stateMutability": "nonpayable",
      "type": "function"
    },
    {
      "constant": false,
      "inputs": [
        {
          "internalType": "address",
          "name": "account",
          "type": "address"
        }
      ],
      "name": "borrowBalanceCurrent",
      "outputs": [
        {
          "internalType": "uint256",
          "name": "",
          "type": "uint256"
        }
      ],
      "payable": false,
      "stateMutability": "nonpayable",
      "type": "function"
    },
    {
      "constant": true,
      "inputs": [
        {
          "internalType": "address",
          "name": "account",
          "type": "address"
        }
      ],
      "name": "borrowBalanceStored",
      "outputs": [
        {
          "internalType": "uint256",
          "name": "",
          "type": "uint256"
        }
      ],
      "payable": false,
      "stateMutability": "view",
      "type": "function"
    },
    {
      "constant": false,
      "inputs": [],
      "name": "exchangeRateCurrent",
      "outputs": [
        {
          "internalType": "uint256",
          "name": "",
          "type": "uint256"
        }
      ],
      "payable": false,
      "stateMutability": "nonpayable",
      "type": "function"
    },
    {
      "constant": true,
      "inputs": [],
      "name": "exchangeRateStored",
      "outputs": [
        {
          "internalType": "uint256",
          "name": "",
          "type": "uint256"
        }
      ],
      "payable": false,
      "stateMutability": "view",
      "type": "function"
    },
    {
      "constant": true,
      "inputs": [],
      "name": "getCash",
      "outputs": [
        {
          "internalType": "uint256",
          "name": "",
          "type": "uint256"
        }
      ],
      "payable": false,
      "stateMutability": "view",
      "type": "function"
    },
    {
      "constant": false,
      "inputs": [],
      "name": "accrueInterest",
      "outputs": [
        {
          "internalType": "uint256",
          "name": "",
          "type": "uint256"
        }
      ],
      "payable": false,
      "stateMutability": "nonpayable",
      "type": "function"
    },
    {
      "constant": false,
      "inputs": [
        {
          "internalType": "address",
          "name": "liquidator",
          "type": "address"
        },
        {
          "internalType": "address",
          "name": "borrower",
          "type": "address"
        },
        {
          "internalType": "uint256",
          "name": "seizeTokens",
          "type": "uint256"
        }
      ],
      "name": "seize",
      "outputs": [
        {
          "internalType": "uint256",
          "name": "",
          "type": "uint256"
        }
      ],
      "payable": false,
      "stateMutability": "nonpayable",
      "type": "function"
    },
    {
      "constant": false,
      "inputs": [
        {
          "internalType": "contract EIP20NonStandardInterface",
          "name": "token",
          "type": "address"
        }
      ],
      "name": "sweepToken",
      "outputs": [],
      "payable": false,
      "stateMutability": "nonpayable",
      "type": "function"
    },
    {
      "constant": false,
      "inputs": [
        {
          "internalType": "address payable",
          "name": "newPendingAdmin",
          "type": "address"
        }
      ],
      "name": "_setPendingAdmin",
      "outputs": [
        {
          "internalType": "uint256",
          "name": "",
          "type": "uint256"
        }
      ],
      "payable": false,
      "stateMutability": "nonpayable",
      "type": "function"
    },
    {
      "constant": false,
      "inputs": [
        {
          "internalType": "contract ComptrollerInterface",
          "name": "newComptroller",
          "type": "address"
        }
      ],
      "name": "_setComptroller",
      "outputs": [
        {
          "internalType": "uint256",
          "name": "",
          "type": "uint256"
        }
      ],
      "payable": false,
      "stateMutability": "nonpayable",
      "type": "function"
    },
    {
      "constant": false,
      "inputs": [
        {
          "internalType": "uint256",
          "name": "newReserveFactorMantissa",
          "type": "uint256"
        }
      ],
      "name": "_setReserveFactor",
      "outputs": [
        {
          "internalType": "uint256",
          "name": "",
          "type": "uint256"
        }
      ],
      "payable": false,
      "stateMutability": "nonpayable",
      "type": "function"
    },
    {
      "constant": false,
      "inputs": [],
      "name": "_acceptAdmin",
      "outputs": [
        {
          "internalType": "uint256",
          "name": "",
          "type": "uint256"
        }
      ],
      "payable": false,
      "stateMutability": "nonpayable",
      "type": "function"
    },
    {
      "constant": false,
      "inputs": [
        {
          "internalType": "uint256",
          "name": "addAmount",
          "type": "uint256"
        }
      ],
      "name": "_addReserves",
      "outputs": [
        {
          "internalType": "uint256",
          "name": "",
          "type": "uint256"
        }
      ],
      "payable": false,
      "stateMutability": "nonpayable",
      "type": "function"
    },
    {
      "constant": false,
      "inputs": [
        {
          "internalType": "uint256",
          "name": "reduceAmount",
          "type": "uint256"
        }
      ],
      "name": "_reduceReserves",
      "outputs": [
        {
          "internalType": "uint256",
          "name": "",
          "type": "uint256"
        }
      ],
      "payable": false,
      "stateMutability": "nonpayable",
      "type": "function"
    },
    {
      "constant": false,
      "inputs": [
        {
          "internalType": "contract InterestRateModel",
          "name": "newInterestRateModel",
          "type": "address"
        }
      ],
      "name": "_setInterestRateModel",
      "outputs": [
        {
          "internalType": "uint256",
          "name": "",
          "type": "uint256"
        }
      ],
      "payable": false,
      "stateMutability": "nonpayable",
      "type": "function"
    },
    {
      "constant": false,
      "inputs": [
        {
          "internalType": "bytes",
          "name": "data",
          "type": "bytes"
        }
      ],
      "name": "delegateToImplementation",
      "outputs": [
        {
          "internalType": "bytes",
          "name": "",
          "type": "bytes"
        }
      ],
      "payable": false,
      "stateMutability": "nonpayable",
      "type": "function"
    },
    {
      "constant": true,
      "inputs": [
        {
          "internalType": "bytes",
          "name": "data",
          "type": "bytes"
        }
      ],
      "name": "delegateToViewImplementation",
      "outputs": [
        {
          "internalType": "bytes",
          "name": "",
          "type": "bytes"
        }
      ],
      "payable": false,
      "stateMutability": "view",
      "type": "function"
    }
  ],
  "bytecode": "0x60806040523480156200001157600080fd5b50604051620025f3380380620025f383398181016040526101408110156200003857600080fd5b81516020830151604080850151606086015160808701805193519597949692959194919392820192846401000000008211156200007457600080fd5b9083019060208201858111156200008a57600080fd5b8251640100000000811182820188101715620000a557600080fd5b82525081516020918201929091019080838360005b83811015620000d4578181015183820152602001620000ba565b50505050905090810190601f168015620001025780820380516001836020036101000a031916815260200191505b50604052602001805160405193929190846401000000008211156200012657600080fd5b9083019060208201858111156200013c57600080fd5b82516401000000008111828201881017156200015757600080fd5b82525081516020918201929091019080838360005b83811015620001865781810151838201526020016200016c565b50505050905090810190601f168015620001b45780820380516001836020036101000a031916815260200191505b50604081815260208301519083015160608401516080909401805192969195919284640100000000821115620001e957600080fd5b908301906020820185811115620001ff57600080fd5b82516401000000008111828201881017156200021a57600080fd5b82525081516020918201929091019080838360005b83811015620002495781810151838201526020016200022f565b50505050905090810190601f168015620002775780820380516001836020036101000a031916815260200191505b5060405250505033600360016101000a8154816001600160a01b0302191690836001600160a01b0316021790555062000424828b8b8b8b8b8b8b60405160240180886001600160a01b03166001600160a01b03168152602001876001600160a01b03166001600160a01b03168152602001866001600160a01b03166001600160a01b0316815260200185815260200180602001806020018460ff1660ff168152602001838103835286818151815260200191508051906020019080838360005b838110156200035157818101518382015260200162000337565b50505050905090810190601f1680156200037f5780820380516001836020036101000a031916815260200191505b50838103825285518152855160209182019187019080838360005b83811015620003b45781810151838201526020016200039a565b50505050905090810190601f168015620003e25780820380516001836020036101000a031916815260200191505b5060408051601f198184030181529190526020810180516001600160e01b03908116631a31d46560e01b17909152909a50620004721698505050505050505050565b506200043c826000836001600160e01b036200053916565b5050600380546001600160a01b0390921661010002610100600160a81b0319909216919091179055506200071a95505050505050565b606060006060846001600160a01b0316846040518082805190602001908083835b60208310620004b45780518252601f19909201916020918201910162000493565b6001836020036101000a038019825116818451168082178552505050505050905001915050600060405180830381855af49150503d806000811462000516576040519150601f19603f3d011682016040523d82523d6000602084013e6200051b565b606091505b5091509150600082141562000531573d60208201fd5b949350505050565b60035461010090046001600160a01b03163314620005895760405162461bcd60e51b8152600401808060200182810382526039815260200180620025ba6039913960400191505060405180910390fd5b8115620005cb576040805160048152602481019091526020810180516001600160e01b0390811663153ab50560e01b17909152620005c99190620006f016565b505b601280546001600160a01b038581166001600160a01b03198316179092556040516020602482018181528551604484015285519490931693620006a1938693909283926064909201919085019080838360005b83811015620006385781810151838201526020016200061e565b50505050905090810190601f168015620006665780820380516001836020036101000a031916815260200191505b5060408051601f198184030181529190526020810180516001600160e01b03908116630adccee560e31b17909152909350620006f016915050565b50601254604080516001600160a01b038085168252909216602083015280517fd604de94d45953f9138079ec1b82d533cb2160c906d1076d1f7ed54befbca97a9281900390910190a150505050565b60125460609062000714906001600160a01b0316836001600160e01b036200047216565b92915050565b611e90806200072a6000396000f3fe6080604052600436106102ff5760003560e01c806370a0823111610190578063bd6d894d116100dc578063f2b3abbd11610095578063f851a4401161006f578063f851a44014610d4c578063f8f9da2814610d61578063fca7820b14610d76578063fe9c44ae14610da0576102ff565b8063f2b3abbd14610cc1578063f3fdb15a14610cf4578063f5e3c46214610d09576102ff565b8063bd6d894d14610baf578063c37f68e214610bc4578063c5ebeaec14610c1d578063db006a7514610c47578063dd62ed3e14610c71578063e9c714f214610cac576102ff565b8063a0712d6811610149578063aa5af0fd11610123578063aa5af0fd14610b0f578063ae9d70b014610b24578063b2a02ff114610b39578063b71d1a0c14610b7c576102ff565b8063a0712d6814610a97578063a6afed9514610ac1578063a9059cbb14610ad6576102ff565b806370a08231146109c857806373acee98146109fb578063852a12e314610a105780638f840ddd14610a3a57806395d89b4114610a4f57806395dd919314610a64576102ff565b80633af9e6691161024f578063555bcc4011610208578063601a0bf1116101e2578063601a0bf11461095f5780636752e702146109895780636c540baf1461099e5780636f307dc3146109b3576102ff565b8063555bcc401461086d5780635c60da1b146109355780635fe3b5671461094a576102ff565b80633af9e669146107025780633b1d21a2146107355780633e9410101461074a5780634487152f146107745780634576b5db1461082557806347bd371814610858576102ff565b806318160ddd116102bc57806323b872dd1161029657806323b872dd1461062a5780632608f8181461066d57806326782247146106a6578063313ce567146106d7576102ff565b806318160ddd146105cb578063182df0f5146105e05780631be19560146105f5576102ff565b806306fdde03146103bf5780630933c1ed14610449578063095ea7b3146104fa5780630e75270214610547578063173b99041461058357806317bfdfbc14610598575b341561033c5760405162461bcd60e51b8152600401808060200182810382526037815260200180611dec6037913960400191505060405180910390fd5b6012546040516000916001600160a01b031690829036908083838082843760405192019450600093509091505080830381855af49150503d806000811461039f576040519150601f19603f3d011682016040523d82523d6000602084013e6103a4565b606091505b505090506040513d6000823e8180156103bb573d82f35b3d82fd5b3480156103cb57600080fd5b506103d4610db5565b6040805160208082528351818301528351919283929083019185019080838360005b8381101561040e5781810151838201526020016103f6565b50505050905090810190601f16801561043b5780820380516001836020036101000a031916815260200191505b509250505060405180910390f35b34801561045557600080fd5b506103d46004803603602081101561046c57600080fd5b810190602081018135600160201b81111561048657600080fd5b82018360208201111561049857600080fd5b803590602001918460018302840111600160201b831117156104b957600080fd5b91908080601f016020809104026020016040519081016040528093929190818152602001838380828437600092019190915250929550610e42945050505050565b34801561050657600080fd5b506105336004803603604081101561051d57600080fd5b506001600160a01b038135169060200135610e61565b604080519115158252519081900360200190f35b34801561055357600080fd5b506105716004803603602081101561056a57600080fd5b5035610ed8565b60408051918252519081900360200190f35b34801561058f57600080fd5b50610571610f3f565b3480156105a457600080fd5b50610571600480360360208110156105bb57600080fd5b50356001600160a01b0316610f45565b3480156105d757600080fd5b50610571610f97565b3480156105ec57600080fd5b50610571610f9d565b34801561060157600080fd5b506106286004803603602081101561061857600080fd5b50356001600160a01b0316610ff4565b005b34801561063657600080fd5b506105336004803603606081101561064d57600080fd5b506001600160a01b03813581169160208101359091169060400135611043565b34801561067957600080fd5b506105716004803603604081101561069057600080fd5b506001600160a01b0381351690602001356110c3565b3480156106b257600080fd5b506106bb611119565b604080516001600160a01b039092168252519081900360200190f35b3480156106e357600080fd5b506106ec611128565b6040805160ff9092168252519081900360200190f35b34801561070e57600080fd5b506105716004803603602081101561072557600080fd5b50356001600160a01b0316611131565b34801561074157600080fd5b50610571611183565b34801561075657600080fd5b506105716004803603602081101561076d57600080fd5b50356111bb565b34801561078057600080fd5b506103d46004803603602081101561079757600080fd5b810190602081018135600160201b8111156107b157600080fd5b8201836020820111156107c357600080fd5b803590602001918460018302840111600160201b831117156107e457600080fd5b91908080601f016020809104026020016040519081016040528093929190818152602001838380828437600092019190915250929550611202945050505050565b34801561083157600080fd5b506105716004803603602081101561084857600080fd5b50356001600160a01b0316611421565b34801561086457600080fd5b50610571611473565b34801561087957600080fd5b506106286004803603606081101561089057600080fd5b6001600160a01b03823516916020810135151591810190606081016040820135600160201b8111156108c157600080fd5b8201836020820111156108d357600080fd5b803590602001918460018302840111600160201b831117156108f457600080fd5b91908080601f016020809104026020016040519081016040528093929190818152602001838380828437600092019190915250929550611479945050505050565b34801561094157600080fd5b506106bb61161c565b34801561095657600080fd5b506106bb61162b565b34801561096b57600080fd5b506105716004803603602081101561098257600080fd5b503561163a565b34801561099557600080fd5b50610571611681565b3480156109aa57600080fd5b5061057161168c565b3480156109bf57600080fd5b506106bb611692565b3480156109d457600080fd5b50610571600480360360208110156109eb57600080fd5b50356001600160a01b03166116a1565b348015610a0757600080fd5b506105716116f3565b348015610a1c57600080fd5b5061057160048036036020811015610a3357600080fd5b503561172b565b348015610a4657600080fd5b50610571611772565b348015610a5b57600080fd5b506103d4611778565b348015610a7057600080fd5b5061057160048036036020811015610a8757600080fd5b50356001600160a01b03166117d0565b348015610aa357600080fd5b5061057160048036036020811015610aba57600080fd5b5035611822565b348015610acd57600080fd5b50610571611869565b348015610ae257600080fd5b5061053360048036036040811015610af957600080fd5b506001600160a01b0381351690602001356118a1565b348015610b1b57600080fd5b506105716118f7565b348015610b3057600080fd5b506105716118fd565b348015610b4557600080fd5b5061057160048036036060811015610b5c57600080fd5b506001600160a01b03813581169160208101359091169060400135611935565b348015610b8857600080fd5b5061057160048036036020811015610b9f57600080fd5b50356001600160a01b0316611993565b348015610bbb57600080fd5b506105716119e5565b348015610bd057600080fd5b50610bf760048036036020811015610be757600080fd5b50356001600160a01b0316611a1d565b604080519485526020850193909352838301919091526060830152519081900360800190f35b348015610c2957600080fd5b5061057160048036036020811015610c4057600080fd5b5035611aaf565b348015610c5357600080fd5b5061057160048036036020811015610c6a57600080fd5b5035611af6565b348015610c7d57600080fd5b5061057160048036036040811015610c9457600080fd5b506001600160a01b0381358116916020013516611b3d565b348015610cb857600080fd5b50610571611b97565b348015610ccd57600080fd5b5061057160048036036020811015610ce457600080fd5b50356001600160a01b0316611bcf565b348015610d0057600080fd5b506106bb611c21565b348015610d1557600080fd5b5061057160048036036060811015610d2c57600080fd5b506001600160a01b03813581169160208101359160409091013516611c30565b348015610d5857600080fd5b506106bb611c91565b348015610d6d57600080fd5b50610571611ca5565b348015610d8257600080fd5b5061057160048036036020811015610d9957600080fd5b5035611cdd565b348015610dac57600080fd5b50610533611d24565b60018054604080516020600284861615610100026000190190941693909304601f81018490048402820184019092528181529291830182828015610e3a5780601f10610e0f57610100808354040283529160200191610e3a565b820191906000526020600020905b815481529060010190602001808311610e1d57829003601f168201915b505050505081565b601254606090610e5b906001600160a01b031683611d29565b92915050565b604080516001600160a01b038416602482015260448082018490528251808303909101815260649091019091526020810180516001600160e01b031663095ea7b360e01b179052600090606090610eb790610e42565b9050808060200190516020811015610ece57600080fd5b5051949350505050565b6040805160248082018490528251808303909101815260449091019091526020810180516001600160e01b031663073a938160e11b179052600090606090610f1f90610e42565b9050808060200190516020811015610f3657600080fd5b50519392505050565b60085481565b604080516001600160a01b0383166024808301919091528251808303909101815260449091019091526020810180516001600160e01b03166305eff7ef60e21b179052600090606090610f1f90610e42565b600d5481565b6040805160048152602481019091526020810180516001600160e01b031663182df0f560e01b179052600090606090610fd590611202565b9050808060200190516020811015610fec57600080fd5b505191505090565b604080516001600160a01b0383166024808301919091528251808303909101815260449091019091526020810180516001600160e01b031662df0cab60e51b17905261103f90610e42565b5050565b604080516001600160a01b0380861660248301528416604482015260648082018490528251808303909101815260849091019091526020810180516001600160e01b03166323b872dd60e01b1790526000906060906110a190610e42565b90508080602001905160208110156110b857600080fd5b505195945050505050565b604080516001600160a01b038416602482015260448082018490528251808303909101815260649091019091526020810180516001600160e01b03166304c11f0360e31b179052600090606090610eb790610e42565b6004546001600160a01b031681565b60035460ff1681565b604080516001600160a01b0383166024808301919091528251808303909101815260449091019091526020810180516001600160e01b0316633af9e66960e01b179052600090606090610f1f90610e42565b6040805160048152602481019091526020810180516001600160e01b0316631d8e90d160e11b179052600090606090610fd590611202565b6040805160248082018490528251808303909101815260449091019091526020810180516001600160e01b03166303e9410160e41b179052600090606090610f1f90610e42565b606060006060306001600160a01b0316846040516024018080602001828103825283818151815260200191508051906020019080838360005b8381101561125357818101518382015260200161123b565b50505050905090810190601f1680156112805780820380516001836020036101000a031916815260200191505b5060408051601f198184030181529181526020820180516001600160e01b0316630933c1ed60e01b178152905182519295509350839250908083835b602083106112db5780518252601f1990920191602091820191016112bc565b6001836020036101000a038019825116818451168082178552505050505050905001915050600060405180830381855afa9150503d806000811461133b576040519150601f19603f3d011682016040523d82523d6000602084013e611340565b606091505b50915091506000821415611355573d60208201fd5b80806020019051602081101561136a57600080fd5b8101908080516040519392919084600160201b82111561138957600080fd5b90830190602082018581111561139e57600080fd5b8251600160201b8111828201881017156113b757600080fd5b82525081516020918201929091019080838360005b838110156113e45781810151838201526020016113cc565b50505050905090810190601f1680156114115780820380516001836020036101000a031916815260200191505b5060405250505092505050919050565b604080516001600160a01b0383166024808301919091528251808303909101815260449091019091526020810180516001600160e01b0316634576b5db60e01b179052600090606090610f1f90610e42565b600b5481565b60035461010090046001600160a01b031633146114c75760405162461bcd60e51b8152600401808060200182810382526039815260200180611e236039913960400191505060405180910390fd5b8115611501576040805160048152602481019091526020810180516001600160e01b031663153ab50560e01b1790526114ff90610e42565b505b601280546001600160a01b038581166001600160a01b031983161790925560405160206024820181815285516044840152855194909316936115cd938693909283926064909201919085019080838360005b8381101561156b578181015183820152602001611553565b50505050905090810190601f1680156115985780820380516001836020036101000a031916815260200191505b5060408051601f198184030181529190526020810180516001600160e01b0316630adccee560e31b1790529250610e42915050565b50601254604080516001600160a01b038085168252909216602083015280517fd604de94d45953f9138079ec1b82d533cb2160c906d1076d1f7ed54befbca97a9281900390910190a150505050565b6012546001600160a01b031681565b6005546001600160a01b031681565b6040805160248082018490528251808303909101815260449091019091526020810180516001600160e01b031663601a0bf160e01b179052600090606090610f1f90610e42565b666379da05b6000081565b60095481565b6011546001600160a01b031681565b604080516001600160a01b0383166024808301919091528251808303909101815260449091019091526020810180516001600160e01b03166370a0823160e01b179052600090606090610f1f90611202565b6040805160048152602481019091526020810180516001600160e01b0316630e759dd360e31b179052600090606090610fd590610e42565b6040805160248082018490528251808303909101815260449091019091526020810180516001600160e01b031663852a12e360e01b179052600090606090610f1f90610e42565b600c5481565b6002805460408051602060018416156101000260001901909316849004601f81018490048402820184019092528181529291830182828015610e3a5780601f10610e0f57610100808354040283529160200191610e3a565b604080516001600160a01b0383166024808301919091528251808303909101815260449091019091526020810180516001600160e01b03166395dd919360e01b179052600090606090610f1f90611202565b6040805160248082018490528251808303909101815260449091019091526020810180516001600160e01b031663140e25ad60e31b179052600090606090610f1f90610e42565b6040805160048152602481019091526020810180516001600160e01b031663a6afed9560e01b179052600090606090610fd590610e42565b604080516001600160a01b038416602482015260448082018490528251808303909101815260649091019091526020810180516001600160e01b031663a9059cbb60e01b179052600090606090610eb790610e42565b600a5481565b6040805160048152602481019091526020810180516001600160e01b0316630ae9d70b60e41b179052600090606090610fd590611202565b604080516001600160a01b0380861660248301528416604482015260648082018490528251808303909101815260849091019091526020810180516001600160e01b031663b2a02ff160e01b1790526000906060906110a190610e42565b604080516001600160a01b0383166024808301919091528251808303909101815260449091019091526020810180516001600160e01b0316632dc7468360e21b179052600090606090610f1f90610e42565b6040805160048152602481019091526020810180516001600160e01b031663bd6d894d60e01b179052600090606090610fd590610e42565b604080516001600160a01b0383166024808301919091528251808303909101815260449091019091526020810180516001600160e01b03166361bfb47160e11b179052600090819081908190606090611a7590611202565b9050808060200190516080811015611a8c57600080fd5b508051602082015160408301516060909301519199909850919650945092505050565b6040805160248082018490528251808303909101815260449091019091526020810180516001600160e01b031663317afabb60e21b179052600090606090610f1f90610e42565b6040805160248082018490528251808303909101815260449091019091526020810180516001600160e01b031663db006a7560e01b179052600090606090610f1f90610e42565b604080516001600160a01b03808516602483015283166044808301919091528251808303909101815260649091019091526020810180516001600160e01b0316636eb1769f60e11b179052600090606090610eb790611202565b6040805160048152602481019091526020810180516001600160e01b03166374e38a7960e11b179052600090606090610fd590610e42565b604080516001600160a01b0383166024808301919091528251808303909101815260449091019091526020810180516001600160e01b031663f2b3abbd60e01b179052600090606090610f1f90610e42565b6006546001600160a01b031681565b604080516001600160a01b0380861660248301526044820185905283166064808301919091528251808303909101815260849091019091526020810180516001600160e01b0316637af1e23160e11b1790526000906060906110a190610e42565b60035461010090046001600160a01b031681565b6040805160048152602481019091526020810180516001600160e01b0316631f1f3b4560e31b179052600090606090610fd590611202565b6040805160248082018490528251808303909101815260449091019091526020810180516001600160e01b031663fca7820b60e01b179052600090606090610f1f90610e42565b600181565b606060006060846001600160a01b0316846040518082805190602001908083835b60208310611d695780518252601f199092019160209182019101611d4a565b6001836020036101000a038019825116818451168082178552505050505050905001915050600060405180830381855af49150503d8060008114611dc9576040519150601f19603f3d011682016040523d82523d6000602084013e611dce565b606091505b50915091506000821415611de3573d60208201fd5b94935050505056fe43457263323044656c656761746f723a66616c6c6261636b3a2063616e6e6f742073656e642076616c756520746f2066616c6c6261636b43457263323044656c656761746f723a3a5f736574496d706c656d656e746174696f6e3a2043616c6c6572206d7573742062652061646d696ea265627a7a723158205adfc87b2cbcc1dba919950a792fc2304c40165b6f8df5ad7db44ba1319520d864736f6c6343000510003243457263323044656c656761746f723a3a5f736574496d706c656d656e746174696f6e3a2043616c6c6572206d7573742062652061646d696e",
  "source": "pragma solidity ^0.5.16;\r\n\r\nimport \"./CTokenInterfaces.sol\";\r\n\r\n/**\r\n * @title Compound's CErc20Delegator Contract\r\n * @notice CTokens which wrap an EIP-20 underlying and delegate to an implementation\r\n * @author Compound\r\n */\r\ncontract CErc20Delegator is CTokenInterface, CErc20Interface, CDelegatorInterface {\r\n    /**\r\n     * @notice Construct a new money market\r\n     * @param underlying_ The address of the underlying asset\r\n     * @param comptroller_ The address of the Comptroller\r\n     * @param interestRateModel_ The address of the interest rate model\r\n     * @param initialExchangeRateMantissa_ The initial exchange rate, scaled by 1e18\r\n     * @param name_ ERC-20 name of this token\r\n     * @param symbol_ ERC-20 symbol of this token\r\n     * @param decimals_ ERC-20 decimal precision of this token\r\n     * @param admin_ Address of the administrator of this token\r\n     * @param implementation_ The address of the implementation the contract delegates to\r\n     * @param becomeImplementationData The encoded args for becomeImplementation\r\n     */\r\n    constructor(address underlying_,\r\n                ComptrollerInterface comptroller_,\r\n                InterestRateModel interestRateModel_,\r\n                uint initialExchangeRateMantissa_,\r\n                string memory name_,\r\n                string memory symbol_,\r\n                uint8 decimals_,\r\n                address payable admin_,\r\n                address implementation_,\r\n                bytes memory becomeImplementationData) public {\r\n        // Creator of the contract is admin during initialization\r\n        admin = msg.sender;\r\n\r\n        // First delegate gets to initialize the delegator (i.e. storage contract)\r\n        delegateTo(implementation_, abi.encodeWithSignature(\"initialize(address,address,address,uint256,string,string,uint8)\",\r\n                                                            underlying_,\r\n                                                            comptroller_,\r\n                                                            interestRateModel_,\r\n                                                            initialExchangeRateMantissa_,\r\n                                                            name_,\r\n                                                            symbol_,\r\n                                                            decimals_));\r\n\r\n        // New implementations always get set via the settor (post-initialize)\r\n        _setImplementation(implementation_, false, becomeImplementationData);\r\n\r\n        // Set the proper admin now that initialization is done\r\n        admin = admin_;\r\n    }\r\n\r\n    /**\r\n     * @notice Called by the admin to update the implementation of the delegator\r\n     * @param implementation_ The address of the new implementation for delegation\r\n     * @param allowResign Flag to indicate whether to call _resignImplementation on the old implementation\r\n     * @param becomeImplementationData The encoded bytes data to be passed to _becomeImplementation\r\n     */\r\n    function _setImplementation(address implementation_, bool allowResign, bytes memory becomeImplementationData) public {\r\n        require(msg.sender == admin, \"CErc20Delegator::_setImplementation: Caller must be admin\");\r\n\r\n        if (allowResign) {\r\n            delegateToImplementation(abi.encodeWithSignature(\"_resignImplementation()\"));\r\n        }\r\n\r\n        address oldImplementation = implementation;\r\n        implementation = implementation_;\r\n\r\n        delegateToImplementation(abi.encodeWithSignature(\"_becomeImplementation(bytes)\", becomeImplementationData));\r\n\r\n        emit NewImplementation(oldImplementation, implementation);\r\n    }\r\n\r\n    /**\r\n     * @notice Sender supplies assets into the market and receives cTokens in exchange\r\n     * @dev Accrues interest whether or not the operation succeeds, unless reverted\r\n     * @param mintAmount The amount of the underlying asset to supply\r\n     * @return uint 0=success, otherwise a failure (see ErrorReporter.sol for details)\r\n     */\r\n    function mint(uint mintAmount) external returns (uint) {\r\n        bytes memory data = delegateToImplementation(abi.encodeWithSignature(\"mint(uint256)\", mintAmount));\r\n        return abi.decode(data, (uint));\r\n    }\r\n\r\n    /**\r\n     * @notice Sender redeems cTokens in exchange for the underlying asset\r\n     * @dev Accrues interest whether or not the operation succeeds, unless reverted\r\n     * @param redeemTokens The number of cTokens to redeem into underlying\r\n     * @return uint 0=success, otherwise a failure (see ErrorReporter.sol for details)\r\n     */\r\n    function redeem(uint redeemTokens) external returns (uint) {\r\n        bytes memory data = delegateToImplementation(abi.encodeWithSignature(\"redeem(uint256)\", redeemTokens));\r\n        return abi.decode(data, (uint));\r\n    }\r\n\r\n    /**\r\n     * @notice Sender redeems cTokens in exchange for a specified amount of underlying asset\r\n     * @dev Accrues interest whether or not the operation succeeds, unless reverted\r\n     * @param redeemAmount The amount of underlying to redeem\r\n     * @return uint 0=success, otherwise a failure (see ErrorReporter.sol for details)\r\n     */\r\n    function redeemUnderlying(uint redeemAmount) external returns (uint) {\r\n        bytes memory data = delegateToImplementation(abi.encodeWithSignature(\"redeemUnderlying(uint256)\", redeemAmount));\r\n        return abi.decode(data, (uint));\r\n    }\r\n\r\n    /**\r\n      * @notice Sender borrows assets from the protocol to their own address\r\n      * @param borrowAmount The amount of the underlying asset to borrow\r\n      * @return uint 0=success, otherwise a failure (see ErrorReporter.sol for details)\r\n      */\r\n    function borrow(uint borrowAmount) external returns (uint) {\r\n        bytes memory data = delegateToImplementation(abi.encodeWithSignature(\"borrow(uint256)\", borrowAmount));\r\n        return abi.decode(data, (uint));\r\n    }\r\n\r\n    /**\r\n     * @notice Sender repays their own borrow\r\n     * @param repayAmount The amount to repay\r\n     * @return uint 0=success, otherwise a failure (see ErrorReporter.sol for details)\r\n     */\r\n    function repayBorrow(uint repayAmount) external returns (uint) {\r\n        bytes memory data = delegateToImplementation(abi.encodeWithSignature(\"repayBorrow(uint256)\", repayAmount));\r\n        return abi.decode(data, (uint));\r\n    }\r\n\r\n    /**\r\n     * @notice Sender repays a borrow belonging to borrower\r\n     * @param borrower the account with the debt being payed off\r\n     * @param repayAmount The amount to repay\r\n     * @return uint 0=success, otherwise a failure (see ErrorReporter.sol for details)\r\n     */\r\n    function repayBorrowBehalf(address borrower, uint repayAmount) external returns (uint) {\r\n        bytes memory data = delegateToImplementation(abi.encodeWithSignature(\"repayBorrowBehalf(address,uint256)\", borrower, repayAmount));\r\n        return abi.decode(data, (uint));\r\n    }\r\n\r\n    /**\r\n     * @notice The sender liquidates the borrowers collateral.\r\n     *  The collateral seized is transferred to the liquidator.\r\n     * @param borrower The borrower of this cToken to be liquidated\r\n     * @param cTokenCollateral The market in which to seize collateral from the borrower\r\n     * @param repayAmount The amount of the underlying borrowed asset to repay\r\n     * @return uint 0=success, otherwise a failure (see ErrorReporter.sol for details)\r\n     */\r\n    function liquidateBorrow(address borrower, uint repayAmount, CTokenInterface cTokenCollateral) external returns (uint) {\r\n        bytes memory data = delegateToImplementation(abi.encodeWithSignature(\"liquidateBorrow(address,uint256,address)\", borrower, repayAmount, cTokenCollateral));\r\n        return abi.decode(data, (uint));\r\n    }\r\n\r\n    /**\r\n     * @notice Transfer `amount` tokens from `msg.sender` to `dst`\r\n     * @param dst The address of the destination account\r\n     * @param amount The number of tokens to transfer\r\n     * @return Whether or not the transfer succeeded\r\n     */\r\n    function transfer(address dst, uint amount) external returns (bool) {\r\n        bytes memory data = delegateToImplementation(abi.encodeWithSignature(\"transfer(address,uint256)\", dst, amount));\r\n        return abi.decode(data, (bool));\r\n    }\r\n\r\n    /**\r\n     * @notice Transfer `amount` tokens from `src` to `dst`\r\n     * @param src The address of the source account\r\n     * @param dst The address of the destination account\r\n     * @param amount The number of tokens to transfer\r\n     * @return Whether or not the transfer succeeded\r\n     */\r\n    function transferFrom(address src, address dst, uint256 amount) external returns (bool) {\r\n        bytes memory data = delegateToImplementation(abi.encodeWithSignature(\"transferFrom(address,address,uint256)\", src, dst, amount));\r\n        return abi.decode(data, (bool));\r\n    }\r\n\r\n    /**\r\n     * @notice Approve `spender` to transfer up to `amount` from `src`\r\n     * @dev This will overwrite the approval amount for `spender`\r\n     *  and is subject to issues noted [here](https://eips.ethereum.org/EIPS/eip-20#approve)\r\n     * @param spender The address of the account which may transfer tokens\r\n     * @param amount The number of tokens that are approved (-1 means infinite)\r\n     * @return Whether or not the approval succeeded\r\n     */\r\n    function approve(address spender, uint256 amount) external returns (bool) {\r\n        bytes memory data = delegateToImplementation(abi.encodeWithSignature(\"approve(address,uint256)\", spender, amount));\r\n        return abi.decode(data, (bool));\r\n    }\r\n\r\n    /**\r\n     * @notice Get the current allowance from `owner` for `spender`\r\n     * @param owner The address of the account which owns the tokens to be spent\r\n     * @param spender The address of the account which may transfer tokens\r\n     * @return The number of tokens allowed to be spent (-1 means infinite)\r\n     */\r\n    function allowance(address owner, address spender) external view returns (uint) {\r\n        bytes memory data = delegateToViewImplementation(abi.encodeWithSignature(\"allowance(address,address)\", owner, spender));\r\n        return abi.decode(data, (uint));\r\n    }\r\n\r\n    /**\r\n     * @notice Get the token balance of the `owner`\r\n     * @param owner The address of the account to query\r\n     * @return The number of tokens owned by `owner`\r\n     */\r\n    function balanceOf(address owner) external view returns (uint) {\r\n        bytes memory data = delegateToViewImplementation(abi.encodeWithSignature(\"balanceOf(address)\", owner));\r\n        return abi.decode(data, (uint));\r\n    }\r\n\r\n    /**\r\n     * @notice Get the underlying balance of the `owner`\r\n     * @dev This also accrues interest in a transaction\r\n     * @param owner The address of the account to query\r\n     * @return The amount of underlying owned by `owner`\r\n     */\r\n    function balanceOfUnderlying(address owner) external returns (uint) {\r\n        bytes memory data = delegateToImplementation(abi.encodeWithSignature(\"balanceOfUnderlying(address)\", owner));\r\n        return abi.decode(data, (uint));\r\n    }\r\n\r\n    /**\r\n     * @notice Get a snapshot of the account's balances, and the cached exchange rate\r\n     * @dev This is used by comptroller to more efficiently perform liquidity checks.\r\n     * @param account Address of the account to snapshot\r\n     * @return (possible error, token balance, borrow balance, exchange rate mantissa)\r\n     */\r\n    function getAccountSnapshot(address account) external view returns (uint, uint, uint, uint) {\r\n        bytes memory data = delegateToViewImplementation(abi.encodeWithSignature(\"getAccountSnapshot(address)\", account));\r\n        return abi.decode(data, (uint, uint, uint, uint));\r\n    }\r\n\r\n    /**\r\n     * @notice Returns the current per-block borrow interest rate for this cToken\r\n     * @return The borrow interest rate per block, scaled by 1e18\r\n     */\r\n    function borrowRatePerBlock() external view returns (uint) {\r\n        bytes memory data = delegateToViewImplementation(abi.encodeWithSignature(\"borrowRatePerBlock()\"));\r\n        return abi.decode(data, (uint));\r\n    }\r\n\r\n    /**\r\n     * @notice Returns the current per-block supply interest rate for this cToken\r\n     * @return The supply interest rate per block, scaled by 1e18\r\n     */\r\n    function supplyRatePerBlock() external view returns (uint) {\r\n        bytes memory data = delegateToViewImplementation(abi.encodeWithSignature(\"supplyRatePerBlock()\"));\r\n        return abi.decode(data, (uint));\r\n    }\r\n\r\n    /**\r\n     * @notice Returns the current total borrows plus accrued interest\r\n     * @return The total borrows with interest\r\n     */\r\n    function totalBorrowsCurrent() external returns (uint) {\r\n        bytes memory data = delegateToImplementation(abi.encodeWithSignature(\"totalBorrowsCurrent()\"));\r\n        return abi.decode(data, (uint));\r\n    }\r\n\r\n    /**\r\n     * @notice Accrue interest to updated borrowIndex and then calculate account's borrow balance using the updated borrowIndex\r\n     * @param account The address whose balance should be calculated after updating borrowIndex\r\n     * @return The calculated balance\r\n     */\r\n    function borrowBalanceCurrent(address account) external returns (uint) {\r\n        bytes memory data = delegateToImplementation(abi.encodeWithSignature(\"borrowBalanceCurrent(address)\", account));\r\n        return abi.decode(data, (uint));\r\n    }\r\n\r\n    /**\r\n     * @notice Return the borrow balance of account based on stored data\r\n     * @param account The address whose balance should be calculated\r\n     * @return The calculated balance\r\n     */\r\n    function borrowBalanceStored(address account) public view returns (uint) {\r\n        bytes memory data = delegateToViewImplementation(abi.encodeWithSignature(\"borrowBalanceStored(address)\", account));\r\n        return abi.decode(data, (uint));\r\n    }\r\n\r\n   /**\r\n     * @notice Accrue interest then return the up-to-date exchange rate\r\n     * @return Calculated exchange rate scaled by 1e18\r\n     */\r\n    function exchangeRateCurrent() public returns (uint) {\r\n        bytes memory data = delegateToImplementation(abi.encodeWithSignature(\"exchangeRateCurrent()\"));\r\n        return abi.decode(data, (uint));\r\n    }\r\n\r\n    /**\r\n     * @notice Calculates the exchange rate from the underlying to the CToken\r\n     * @dev This function does not accrue interest before calculating the exchange rate\r\n     * @return Calculated exchange rate scaled by 1e18\r\n     */\r\n    function exchangeRateStored() public view returns (uint) {\r\n        bytes memory data = delegateToViewImplementation(abi.encodeWithSignature(\"exchangeRateStored()\"));\r\n        return abi.decode(data, (uint));\r\n    }\r\n\r\n    /**\r\n     * @notice Get cash balance of this cToken in the underlying asset\r\n     * @return The quantity of underlying asset owned by this contract\r\n     */\r\n    function getCash() external view returns (uint) {\r\n        bytes memory data = delegateToViewImplementation(abi.encodeWithSignature(\"getCash()\"));\r\n        return abi.decode(data, (uint));\r\n    }\r\n\r\n    /**\r\n      * @notice Applies accrued interest to total borrows and reserves.\r\n      * @dev This calculates interest accrued from the last checkpointed block\r\n      *      up to the current block and writes new checkpoint to storage.\r\n      */\r\n    function accrueInterest() public returns (uint) {\r\n        bytes memory data = delegateToImplementation(abi.encodeWithSignature(\"accrueInterest()\"));\r\n        return abi.decode(data, (uint));\r\n    }\r\n\r\n    /**\r\n     * @notice Transfers collateral tokens (this market) to the liquidator.\r\n     * @dev Will fail unless called by another cToken during the process of liquidation.\r\n     *  Its absolutely critical to use msg.sender as the borrowed cToken and not a parameter.\r\n     * @param liquidator The account receiving seized collateral\r\n     * @param borrower The account having collateral seized\r\n     * @param seizeTokens The number of cTokens to seize\r\n     * @return uint 0=success, otherwise a failure (see ErrorReporter.sol for details)\r\n     */\r\n    function seize(address liquidator, address borrower, uint seizeTokens) external returns (uint) {\r\n        bytes memory data = delegateToImplementation(abi.encodeWithSignature(\"seize(address,address,uint256)\", liquidator, borrower, seizeTokens));\r\n        return abi.decode(data, (uint));\r\n    }\r\n\r\n    /**\r\n     * @notice A public function to sweep accidental ERC-20 transfers to this contract. Tokens are sent to admin (timelock)\r\n     * @param token The address of the ERC-20 token to sweep\r\n     */\r\n    function sweepToken(EIP20NonStandardInterface token) external {\r\n        delegateToImplementation(abi.encodeWithSignature(\"sweepToken(address)\", token));\r\n    }\r\n\r\n\r\n    /*** Admin Functions ***/\r\n\r\n    /**\r\n      * @notice Begins transfer of admin rights. The newPendingAdmin must call `_acceptAdmin` to finalize the transfer.\r\n      * @dev Admin function to begin change of admin. The newPendingAdmin must call `_acceptAdmin` to finalize the transfer.\r\n      * @param newPendingAdmin New pending admin.\r\n      * @return uint 0=success, otherwise a failure (see ErrorReporter.sol for details)\r\n      */\r\n    function _setPendingAdmin(address payable newPendingAdmin) external returns (uint) {\r\n        bytes memory data = delegateToImplementation(abi.encodeWithSignature(\"_setPendingAdmin(address)\", newPendingAdmin));\r\n        return abi.decode(data, (uint));\r\n    }\r\n\r\n    /**\r\n      * @notice Sets a new comptroller for the market\r\n      * @dev Admin function to set a new comptroller\r\n      * @return uint 0=success, otherwise a failure (see ErrorReporter.sol for details)\r\n      */\r\n    function _setComptroller(ComptrollerInterface newComptroller) public returns (uint) {\r\n        bytes memory data = delegateToImplementation(abi.encodeWithSignature(\"_setComptroller(address)\", newComptroller));\r\n        return abi.decode(data, (uint));\r\n    }\r\n\r\n    /**\r\n      * @notice accrues interest and sets a new reserve factor for the protocol using _setReserveFactorFresh\r\n      * @dev Admin function to accrue interest and set a new reserve factor\r\n      * @return uint 0=success, otherwise a failure (see ErrorReporter.sol for details)\r\n      */\r\n    function _setReserveFactor(uint newReserveFactorMantissa) external returns (uint) {\r\n        bytes memory data = delegateToImplementation(abi.encodeWithSignature(\"_setReserveFactor(uint256)\", newReserveFactorMantissa));\r\n        return abi.decode(data, (uint));\r\n    }\r\n\r\n    /**\r\n      * @notice Accepts transfer of admin rights. msg.sender must be pendingAdmin\r\n      * @dev Admin function for pending admin to accept role and update admin\r\n      * @return uint 0=success, otherwise a failure (see ErrorReporter.sol for details)\r\n      */\r\n    function _acceptAdmin() external returns (uint) {\r\n        bytes memory data = delegateToImplementation(abi.encodeWithSignature(\"_acceptAdmin()\"));\r\n        return abi.decode(data, (uint));\r\n    }\r\n\r\n    /**\r\n     * @notice Accrues interest and adds reserves by transferring from admin\r\n     * @param addAmount Amount of reserves to add\r\n     * @return uint 0=success, otherwise a failure (see ErrorReporter.sol for details)\r\n     */\r\n    function _addReserves(uint addAmount) external returns (uint) {\r\n        bytes memory data = delegateToImplementation(abi.encodeWithSignature(\"_addReserves(uint256)\", addAmount));\r\n        return abi.decode(data, (uint));\r\n    }\r\n\r\n    /**\r\n     * @notice Accrues interest and reduces reserves by transferring to admin\r\n     * @param reduceAmount Amount of reduction to reserves\r\n     * @return uint 0=success, otherwise a failure (see ErrorReporter.sol for details)\r\n     */\r\n    function _reduceReserves(uint reduceAmount) external returns (uint) {\r\n        bytes memory data = delegateToImplementation(abi.encodeWithSignature(\"_reduceReserves(uint256)\", reduceAmount));\r\n        return abi.decode(data, (uint));\r\n    }\r\n\r\n    /**\r\n     * @notice Accrues interest and updates the interest rate model using _setInterestRateModelFresh\r\n     * @dev Admin function to accrue interest and update the interest rate model\r\n     * @param newInterestRateModel the new interest rate model to use\r\n     * @return uint 0=success, otherwise a failure (see ErrorReporter.sol for details)\r\n     */\r\n    function _setInterestRateModel(InterestRateModel newInterestRateModel) public returns (uint) {\r\n        bytes memory data = delegateToImplementation(abi.encodeWithSignature(\"_setInterestRateModel(address)\", newInterestRateModel));\r\n        return abi.decode(data, (uint));\r\n    }\r\n\r\n    /**\r\n     * @notice Internal method to delegate execution to another contract\r\n     * @dev It returns to the external caller whatever the implementation returns or forwards reverts\r\n     * @param callee The contract to delegatecall\r\n     * @param data The raw data to delegatecall\r\n     * @return The returned bytes from the delegatecall\r\n     */\r\n    function delegateTo(address callee, bytes memory data) internal returns (bytes memory) {\r\n        (bool success, bytes memory returnData) = callee.delegatecall(data);\r\n        assembly {\r\n            if eq(success, 0) {\r\n                revert(add(returnData, 0x20), returndatasize)\r\n            }\r\n        }\r\n        return returnData;\r\n    }\r\n\r\n    /**\r\n     * @notice Delegates execution to the implementation contract\r\n     * @dev It returns to the external caller whatever the implementation returns or forwards reverts\r\n     * @param data The raw data to delegatecall\r\n     * @return The returned bytes from the delegatecall\r\n     */\r\n    function delegateToImplementation(bytes memory data) public returns (bytes memory) {\r\n        return delegateTo(implementation, data);\r\n    }\r\n\r\n    /**\r\n     * @notice Delegates execution to an implementation contract\r\n     * @dev It returns to the external caller whatever the implementation returns or forwards reverts\r\n     *  There are an additional 2 prefix uints from the wrapper returndata, which we ignore since we make an extra hop.\r\n     * @param data The raw data to delegatecall\r\n     * @return The returned bytes from the delegatecall\r\n     */\r\n    function delegateToViewImplementation(bytes memory data) public view returns (bytes memory) {\r\n        (bool success, bytes memory returnData) = address(this).staticcall(abi.encodeWithSignature(\"delegateToImplementation(bytes)\", data));\r\n        assembly {\r\n            if eq(success, 0) {\r\n                revert(add(returnData, 0x20), returndatasize)\r\n            }\r\n        }\r\n        return abi.decode(returnData, (bytes));\r\n    }\r\n\r\n    /**\r\n     * @notice Delegates execution to an implementation contract\r\n     * @dev It returns to the external caller whatever the implementation returns or forwards reverts\r\n     */\r\n    function () external payable {\r\n        require(msg.value == 0,\"CErc20Delegator:fallback: cannot send value to fallback\");\r\n\r\n        // delegate all other functions to current implementation\r\n        (bool success, ) = implementation.delegatecall(msg.data);\r\n\r\n        assembly {\r\n            let free_mem_ptr := mload(0x40)\r\n            returndatacopy(free_mem_ptr, 0, returndatasize)\r\n\r\n            switch success\r\n            case 0 { revert(free_mem_ptr, returndatasize) }\r\n            default { return(free_mem_ptr, returndatasize) }\r\n        }\r\n    }\r\n}\r\n",
  "sourcePath": "F:\\7-hlf-github\\compound-play\\compound\\contracts\\CErc20Delegator.sol",
  "compiler": {
    "name": "solc",
    "version": "0.5.16+commit.9c3226ce.Emscripten.clang"
  },
  "schemaVersion": "3.4.3",
  "updatedAt": "2022-01-24T11:39:40.560Z",
  "devdoc": {
    "author": "Compound",
    "methods": {
      "_acceptAdmin()": {
        "details": "Admin function for pending admin to accept role and update admin",
        "return": "uint 0=success, otherwise a failure (see ErrorReporter.sol for details)"
      },
      "_addReserves(uint256)": {
        "params": {
          "addAmount": "Amount of reserves to add"
        },
        "return": "uint 0=success, otherwise a failure (see ErrorReporter.sol for details)"
      },
      "_reduceReserves(uint256)": {
        "params": {
          "reduceAmount": "Amount of reduction to reserves"
        },
        "return": "uint 0=success, otherwise a failure (see ErrorReporter.sol for details)"
      },
      "_setComptroller(address)": {
        "details": "Admin function to set a new comptroller",
        "return": "uint 0=success, otherwise a failure (see ErrorReporter.sol for details)"
      },
      "_setImplementation(address,bool,bytes)": {
        "params": {
          "allowResign": "Flag to indicate whether to call _resignImplementation on the old implementation",
          "becomeImplementationData": "The encoded bytes data to be passed to _becomeImplementation",
          "implementation_": "The address of the new implementation for delegation"
        }
      },
      "_setInterestRateModel(address)": {
        "details": "Admin function to accrue interest and update the interest rate model",
        "params": {
          "newInterestRateModel": "the new interest rate model to use"
        },
        "return": "uint 0=success, otherwise a failure (see ErrorReporter.sol for details)"
      },
      "_setPendingAdmin(address)": {
        "details": "Admin function to begin change of admin. The newPendingAdmin must call `_acceptAdmin` to finalize the transfer.",
        "params": {
          "newPendingAdmin": "New pending admin."
        },
        "return": "uint 0=success, otherwise a failure (see ErrorReporter.sol for details)"
      },
      "_setReserveFactor(uint256)": {
        "details": "Admin function to accrue interest and set a new reserve factor",
        "return": "uint 0=success, otherwise a failure (see ErrorReporter.sol for details)"
      },
      "accrueInterest()": {
        "details": "This calculates interest accrued from the last checkpointed block     up to the current block and writes new checkpoint to storage."
      },
      "allowance(address,address)": {
        "params": {
          "owner": "The address of the account which owns the tokens to be spent",
          "spender": "The address of the account which may transfer tokens"
        },
        "return": "The number of tokens allowed to be spent (-1 means infinite)"
      },
      "approve(address,uint256)": {
        "details": "This will overwrite the approval amount for `spender` and is subject to issues noted [here](https://eips.ethereum.org/EIPS/eip-20#approve)",
        "params": {
          "amount": "The number of tokens that are approved (-1 means infinite)",
          "spender": "The address of the account which may transfer tokens"
        },
        "return": "Whether or not the approval succeeded"
      },
      "balanceOf(address)": {
        "params": {
          "owner": "The address of the account to query"
        },
        "return": "The number of tokens owned by `owner`"
      },
      "balanceOfUnderlying(address)": {
        "details": "This also accrues interest in a transaction",
        "params": {
          "owner": "The address of the account to query"
        },
        "return": "The amount of underlying owned by `owner`"
      },
      "borrow(uint256)": {
        "params": {
          "borrowAmount": "The amount of the underlying asset to borrow"
        },
        "return": "uint 0=success, otherwise a failure (see ErrorReporter.sol for details)"
      },
      "borrowBalanceCurrent(address)": {
        "params": {
          "account": "The address whose balance should be calculated after updating borrowIndex"
        },
        "return": "The calculated balance"
      },
      "borrowBalanceStored(address)": {
        "params": {
          "account": "The address whose balance should be calculated"
        },
        "return": "The calculated balance"
      },
      "borrowRatePerBlock()": {
        "return": "The borrow interest rate per block, scaled by 1e18"
      },
      "constructor": {
        "params": {
          "admin_": "Address of the administrator of this token",
          "becomeImplementationData": "The encoded args for becomeImplementation",
          "comptroller_": "The address of the Comptroller",
          "decimals_": "ERC-20 decimal precision of this token",
          "implementation_": "The address of the implementation the contract delegates to",
          "initialExchangeRateMantissa_": "The initial exchange rate, scaled by 1e18",
          "interestRateModel_": "The address of the interest rate model",
          "name_": "ERC-20 name of this token",
          "symbol_": "ERC-20 symbol of this token",
          "underlying_": "The address of the underlying asset"
        }
      },
      "delegateToImplementation(bytes)": {
        "details": "It returns to the external caller whatever the implementation returns or forwards reverts",
        "params": {
          "data": "The raw data to delegatecall"
        },
        "return": "The returned bytes from the delegatecall"
      },
      "delegateToViewImplementation(bytes)": {
        "details": "It returns to the external caller whatever the implementation returns or forwards reverts There are an additional 2 prefix uints from the wrapper returndata, which we ignore since we make an extra hop.",
        "params": {
          "data": "The raw data to delegatecall"
        },
        "return": "The returned bytes from the delegatecall"
      },
      "exchangeRateCurrent()": {
        "return": "Calculated exchange rate scaled by 1e18"
      },
      "exchangeRateStored()": {
        "details": "This function does not accrue interest before calculating the exchange rate",
        "return": "Calculated exchange rate scaled by 1e18"
      },
      "getAccountSnapshot(address)": {
        "details": "This is used by comptroller to more efficiently perform liquidity checks.",
        "params": {
          "account": "Address of the account to snapshot"
        },
        "return": "(possible error, token balance, borrow balance, exchange rate mantissa)"
      },
      "getCash()": {
        "return": "The quantity of underlying asset owned by this contract"
      },
      "liquidateBorrow(address,uint256,address)": {
        "params": {
          "borrower": "The borrower of this cToken to be liquidated",
          "cTokenCollateral": "The market in which to seize collateral from the borrower",
          "repayAmount": "The amount of the underlying borrowed asset to repay"
        },
        "return": "uint 0=success, otherwise a failure (see ErrorReporter.sol for details)"
      },
      "mint(uint256)": {
        "details": "Accrues interest whether or not the operation succeeds, unless reverted",
        "params": {
          "mintAmount": "The amount of the underlying asset to supply"
        },
        "return": "uint 0=success, otherwise a failure (see ErrorReporter.sol for details)"
      },
      "redeem(uint256)": {
        "details": "Accrues interest whether or not the operation succeeds, unless reverted",
        "params": {
          "redeemTokens": "The number of cTokens to redeem into underlying"
        },
        "return": "uint 0=success, otherwise a failure (see ErrorReporter.sol for details)"
      },
      "redeemUnderlying(uint256)": {
        "details": "Accrues interest whether or not the operation succeeds, unless reverted",
        "params": {
          "redeemAmount": "The amount of underlying to redeem"
        },
        "return": "uint 0=success, otherwise a failure (see ErrorReporter.sol for details)"
      },
      "repayBorrow(uint256)": {
        "params": {
          "repayAmount": "The amount to repay"
        },
        "return": "uint 0=success, otherwise a failure (see ErrorReporter.sol for details)"
      },
      "repayBorrowBehalf(address,uint256)": {
        "params": {
          "borrower": "the account with the debt being payed off",
          "repayAmount": "The amount to repay"
        },
        "return": "uint 0=success, otherwise a failure (see ErrorReporter.sol for details)"
      },
      "seize(address,address,uint256)": {
        "details": "Will fail unless called by another cToken during the process of liquidation. Its absolutely critical to use msg.sender as the borrowed cToken and not a parameter.",
        "params": {
          "borrower": "The account having collateral seized",
          "liquidator": "The account receiving seized collateral",
          "seizeTokens": "The number of cTokens to seize"
        },
        "return": "uint 0=success, otherwise a failure (see ErrorReporter.sol for details)"
      },
      "supplyRatePerBlock()": {
        "return": "The supply interest rate per block, scaled by 1e18"
      },
      "sweepToken(address)": {
        "params": {
          "token": "The address of the ERC-20 token to sweep"
        }
      },
      "totalBorrowsCurrent()": {
        "return": "The total borrows with interest"
      },
      "transfer(address,uint256)": {
        "params": {
          "amount": "The number of tokens to transfer",
          "dst": "The address of the destination account"
        },
        "return": "Whether or not the transfer succeeded"
      },
      "transferFrom(address,address,uint256)": {
        "params": {
          "amount": "The number of tokens to transfer",
          "dst": "The address of the destination account",
          "src": "The address of the source account"
        },
        "return": "Whether or not the transfer succeeded"
      }
    },
    "title": "Compound's CErc20Delegator Contract"
  },
  "userdoc": {
    "methods": {
      "_acceptAdmin()": {
        "notice": "Accepts transfer of admin rights. msg.sender must be pendingAdmin"
      },
      "_addReserves(uint256)": {
        "notice": "Accrues interest and adds reserves by transferring from admin"
      },
      "_reduceReserves(uint256)": {
        "notice": "Accrues interest and reduces reserves by transferring to admin"
      },
      "_setComptroller(address)": {
        "notice": "Sets a new comptroller for the market"
      },
      "_setImplementation(address,bool,bytes)": {
        "notice": "Called by the admin to update the implementation of the delegator"
      },
      "_setInterestRateModel(address)": {
        "notice": "Accrues interest and updates the interest rate model using _setInterestRateModelFresh"
      },
      "_setPendingAdmin(address)": {
        "notice": "Begins transfer of admin rights. The newPendingAdmin must call `_acceptAdmin` to finalize the transfer."
      },
      "_setReserveFactor(uint256)": {
        "notice": "accrues interest and sets a new reserve factor for the protocol using _setReserveFactorFresh"
      },
      "accrueInterest()": {
        "notice": "Applies accrued interest to total borrows and reserves."
      },
      "allowance(address,address)": {
        "notice": "Get the current allowance from `owner` for `spender`"
      },
      "approve(address,uint256)": {
        "notice": "Approve `spender` to transfer up to `amount` from `src`"
      },
      "balanceOf(address)": {
        "notice": "Get the token balance of the `owner`"
      },
      "balanceOfUnderlying(address)": {
        "notice": "Get the underlying balance of the `owner`"
      },
      "borrow(uint256)": {
        "notice": "Sender borrows assets from the protocol to their own address"
      },
      "borrowBalanceCurrent(address)": {
        "notice": "Accrue interest to updated borrowIndex and then calculate account's borrow balance using the updated borrowIndex"
      },
      "borrowBalanceStored(address)": {
        "notice": "Return the borrow balance of account based on stored data"
      },
      "borrowRatePerBlock()": {
        "notice": "Returns the current per-block borrow interest rate for this cToken"
      },
      "constructor": "Construct a new money market",
      "delegateToImplementation(bytes)": {
        "notice": "Delegates execution to the implementation contract"
      },
      "delegateToViewImplementation(bytes)": {
        "notice": "Delegates execution to an implementation contract"
      },
      "exchangeRateCurrent()": {
        "notice": "Accrue interest then return the up-to-date exchange rate"
      },
      "exchangeRateStored()": {
        "notice": "Calculates the exchange rate from the underlying to the CToken"
      },
      "getAccountSnapshot(address)": {
        "notice": "Get a snapshot of the account's balances, and the cached exchange rate"
      },
      "getCash()": {
        "notice": "Get cash balance of this cToken in the underlying asset"
      },
      "liquidateBorrow(address,uint256,address)": {
        "notice": "The sender liquidates the borrowers collateral. The collateral seized is transferred to the liquidator."
      },
      "mint(uint256)": {
        "notice": "Sender supplies assets into the market and receives cTokens in exchange"
      },
      "redeem(uint256)": {
        "notice": "Sender redeems cTokens in exchange for the underlying asset"
      },
      "redeemUnderlying(uint256)": {
        "notice": "Sender redeems cTokens in exchange for a specified amount of underlying asset"
      },
      "repayBorrow(uint256)": {
        "notice": "Sender repays their own borrow"
      },
      "repayBorrowBehalf(address,uint256)": {
        "notice": "Sender repays a borrow belonging to borrower"
      },
      "seize(address,address,uint256)": {
        "notice": "Transfers collateral tokens (this market) to the liquidator."
      },
      "supplyRatePerBlock()": {
        "notice": "Returns the current per-block supply interest rate for this cToken"
      },
      "sweepToken(address)": {
        "notice": "A public function to sweep accidental ERC-20 transfers to this contract. Tokens are sent to admin (timelock)"
      },
      "totalBorrowsCurrent()": {
        "notice": "Returns the current total borrows plus accrued interest"
      },
      "transfer(address,uint256)": {
        "notice": "Transfer `amount` tokens from `msg.sender` to `dst`"
      },
      "transferFrom(address,address,uint256)": {
        "notice": "Transfer `amount` tokens from `src` to `dst`"
      }
    },
    "notice": "CTokens which wrap an EIP-20 underlying and delegate to an implementation"
  }
}