{
  "contractName": "CompoundLens",
  "abi": [
    {
      "constant": false,
      "inputs": [
        {
          "internalType": "contract CToken",
          "name": "cToken",
          "type": "address"
        }
      ],
      "name": "cTokenMetadata",
      "outputs": [
        {
          "components": [
            {
              "internalType": "address",
              "name": "cToken",
              "type": "address"
            },
            {
              "internalType": "uint256",
              "name": "exchangeRateCurrent",
              "type": "uint256"
            },
            {
              "internalType": "uint256",
              "name": "supplyRatePerBlock",
              "type": "uint256"
            },
            {
              "internalType": "uint256",
              "name": "borrowRatePerBlock",
              "type": "uint256"
            },
            {
              "internalType": "uint256",
              "name": "reserveFactorMantissa",
              "type": "uint256"
            },
            {
              "internalType": "uint256",
              "name": "totalBorrows",
              "type": "uint256"
            },
            {
              "internalType": "uint256",
              "name": "totalReserves",
              "type": "uint256"
            },
            {
              "internalType": "uint256",
              "name": "totalSupply",
              "type": "uint256"
            },
            {
              "internalType": "uint256",
              "name": "totalCash",
              "type": "uint256"
            },
            {
              "internalType": "bool",
              "name": "isListed",
              "type": "bool"
            },
            {
              "internalType": "uint256",
              "name": "collateralFactorMantissa",
              "type": "uint256"
            },
            {
              "internalType": "address",
              "name": "underlyingAssetAddress",
              "type": "address"
            },
            {
              "internalType": "uint256",
              "name": "cTokenDecimals",
              "type": "uint256"
            },
            {
              "internalType": "uint256",
              "name": "underlyingDecimals",
              "type": "uint256"
            },
            {
              "internalType": "uint256",
              "name": "compSupplySpeed",
              "type": "uint256"
            },
            {
              "internalType": "uint256",
              "name": "compBorrowSpeed",
              "type": "uint256"
            },
            {
              "internalType": "uint256",
              "name": "borrowCap",
              "type": "uint256"
            }
          ],
          "internalType": "struct CompoundLens.CTokenMetadata",
          "name": "",
          "type": "tuple"
        }
      ],
      "payable": false,
      "stateMutability": "nonpayable",
      "type": "function"
    },
    {
      "constant": false,
      "inputs": [
        {
          "internalType": "contract CToken[]",
          "name": "cTokens",
          "type": "address[]"
        }
      ],
      "name": "cTokenMetadataAll",
      "outputs": [
        {
          "components": [
            {
              "internalType": "address",
              "name": "cToken",
              "type": "address"
            },
            {
              "internalType": "uint256",
              "name": "exchangeRateCurrent",
              "type": "uint256"
            },
            {
              "internalType": "uint256",
              "name": "supplyRatePerBlock",
              "type": "uint256"
            },
            {
              "internalType": "uint256",
              "name": "borrowRatePerBlock",
              "type": "uint256"
            },
            {
              "internalType": "uint256",
              "name": "reserveFactorMantissa",
              "type": "uint256"
            },
            {
              "internalType": "uint256",
              "name": "totalBorrows",
              "type": "uint256"
            },
            {
              "internalType": "uint256",
              "name": "totalReserves",
              "type": "uint256"
            },
            {
              "internalType": "uint256",
              "name": "totalSupply",
              "type": "uint256"
            },
            {
              "internalType": "uint256",
              "name": "totalCash",
              "type": "uint256"
            },
            {
              "internalType": "bool",
              "name": "isListed",
              "type": "bool"
            },
            {
              "internalType": "uint256",
              "name": "collateralFactorMantissa",
              "type": "uint256"
            },
            {
              "internalType": "address",
              "name": "underlyingAssetAddress",
              "type": "address"
            },
            {
              "internalType": "uint256",
              "name": "cTokenDecimals",
              "type": "uint256"
            },
            {
              "internalType": "uint256",
              "name": "underlyingDecimals",
              "type": "uint256"
            },
            {
              "internalType": "uint256",
              "name": "compSupplySpeed",
              "type": "uint256"
            },
            {
              "internalType": "uint256",
              "name": "compBorrowSpeed",
              "type": "uint256"
            },
            {
              "internalType": "uint256",
              "name": "borrowCap",
              "type": "uint256"
            }
          ],
          "internalType": "struct CompoundLens.CTokenMetadata[]",
          "name": "",
          "type": "tuple[]"
        }
      ],
      "payable": false,
      "stateMutability": "nonpayable",
      "type": "function"
    },
    {
      "constant": false,
      "inputs": [
        {
          "internalType": "contract CToken",
          "name": "cToken",
          "type": "address"
        },
        {
          "internalType": "address payable",
          "name": "account",
          "type": "address"
        }
      ],
      "name": "cTokenBalances",
      "outputs": [
        {
          "components": [
            {
              "internalType": "address",
              "name": "cToken",
              "type": "address"
            },
            {
              "internalType": "uint256",
              "name": "balanceOf",
              "type": "uint256"
            },
            {
              "internalType": "uint256",
              "name": "borrowBalanceCurrent",
              "type": "uint256"
            },
            {
              "internalType": "uint256",
              "name": "balanceOfUnderlying",
              "type": "uint256"
            },
            {
              "internalType": "uint256",
              "name": "tokenBalance",
              "type": "uint256"
            },
            {
              "internalType": "uint256",
              "name": "tokenAllowance",
              "type": "uint256"
            }
          ],
          "internalType": "struct CompoundLens.CTokenBalances",
          "name": "",
          "type": "tuple"
        }
      ],
      "payable": false,
      "stateMutability": "nonpayable",
      "type": "function"
    },
    {
      "constant": false,
      "inputs": [
        {
          "internalType": "contract CToken[]",
          "name": "cTokens",
          "type": "address[]"
        },
        {
          "internalType": "address payable",
          "name": "account",
          "type": "address"
        }
      ],
      "name": "cTokenBalancesAll",
      "outputs": [
        {
          "components": [
            {
              "internalType": "address",
              "name": "cToken",
              "type": "address"
            },
            {
              "internalType": "uint256",
              "name": "balanceOf",
              "type": "uint256"
            },
            {
              "internalType": "uint256",
              "name": "borrowBalanceCurrent",
              "type": "uint256"
            },
            {
              "internalType": "uint256",
              "name": "balanceOfUnderlying",
              "type": "uint256"
            },
            {
              "internalType": "uint256",
              "name": "tokenBalance",
              "type": "uint256"
            },
            {
              "internalType": "uint256",
              "name": "tokenAllowance",
              "type": "uint256"
            }
          ],
          "internalType": "struct CompoundLens.CTokenBalances[]",
          "name": "",
          "type": "tuple[]"
        }
      ],
      "payable": false,
      "stateMutability": "nonpayable",
      "type": "function"
    },
    {
      "constant": false,
      "inputs": [
        {
          "internalType": "contract CToken",
          "name": "cToken",
          "type": "address"
        }
      ],
      "name": "cTokenUnderlyingPrice",
      "outputs": [
        {
          "components": [
            {
              "internalType": "address",
              "name": "cToken",
              "type": "address"
            },
            {
              "internalType": "uint256",
              "name": "underlyingPrice",
              "type": "uint256"
            }
          ],
          "internalType": "struct CompoundLens.CTokenUnderlyingPrice",
          "name": "",
          "type": "tuple"
        }
      ],
      "payable": false,
      "stateMutability": "nonpayable",
      "type": "function"
    },
    {
      "constant": false,
      "inputs": [
        {
          "internalType": "contract CToken[]",
          "name": "cTokens",
          "type": "address[]"
        }
      ],
      "name": "cTokenUnderlyingPriceAll",
      "outputs": [
        {
          "components": [
            {
              "internalType": "address",
              "name": "cToken",
              "type": "address"
            },
            {
              "internalType": "uint256",
              "name": "underlyingPrice",
              "type": "uint256"
            }
          ],
          "internalType": "struct CompoundLens.CTokenUnderlyingPrice[]",
          "name": "",
          "type": "tuple[]"
        }
      ],
      "payable": false,
      "stateMutability": "nonpayable",
      "type": "function"
    },
    {
      "constant": false,
      "inputs": [
        {
          "internalType": "contract ComptrollerLensInterface",
          "name": "comptroller",
          "type": "address"
        },
        {
          "internalType": "address",
          "name": "account",
          "type": "address"
        }
      ],
      "name": "getAccountLimits",
      "outputs": [
        {
          "components": [
            {
              "internalType": "contract CToken[]",
              "name": "markets",
              "type": "address[]"
            },
            {
              "internalType": "uint256",
              "name": "liquidity",
              "type": "uint256"
            },
            {
              "internalType": "uint256",
              "name": "shortfall",
              "type": "uint256"
            }
          ],
          "internalType": "struct CompoundLens.AccountLimits",
          "name": "",
          "type": "tuple"
        }
      ],
      "payable": false,
      "stateMutability": "nonpayable",
      "type": "function"
    },
    {
      "constant": true,
      "inputs": [
        {
          "internalType": "contract GovernorAlpha",
          "name": "governor",
          "type": "address"
        },
        {
          "internalType": "address",
          "name": "voter",
          "type": "address"
        },
        {
          "internalType": "uint256[]",
          "name": "proposalIds",
          "type": "uint256[]"
        }
      ],
      "name": "getGovReceipts",
      "outputs": [
        {
          "components": [
            {
              "internalType": "uint256",
              "name": "proposalId",
              "type": "uint256"
            },
            {
              "internalType": "bool",
              "name": "hasVoted",
              "type": "bool"
            },
            {
              "internalType": "bool",
              "name": "support",
              "type": "bool"
            },
            {
              "internalType": "uint96",
              "name": "votes",
              "type": "uint96"
            }
          ],
          "internalType": "struct CompoundLens.GovReceipt[]",
          "name": "",
          "type": "tuple[]"
        }
      ],
      "payable": false,
      "stateMutability": "view",
      "type": "function"
    },
    {
      "constant": true,
      "inputs": [
        {
          "internalType": "contract GovernorBravoInterface",
          "name": "governor",
          "type": "address"
        },
        {
          "internalType": "address",
          "name": "voter",
          "type": "address"
        },
        {
          "internalType": "uint256[]",
          "name": "proposalIds",
          "type": "uint256[]"
        }
      ],
      "name": "getGovBravoReceipts",
      "outputs": [
        {
          "components": [
            {
              "internalType": "uint256",
              "name": "proposalId",
              "type": "uint256"
            },
            {
              "internalType": "bool",
              "name": "hasVoted",
              "type": "bool"
            },
            {
              "internalType": "uint8",
              "name": "support",
              "type": "uint8"
            },
            {
              "internalType": "uint96",
              "name": "votes",
              "type": "uint96"
            }
          ],
          "internalType": "struct CompoundLens.GovBravoReceipt[]",
          "name": "",
          "type": "tuple[]"
        }
      ],
      "payable": false,
      "stateMutability": "view",
      "type": "function"
    },
    {
      "constant": true,
      "inputs": [
        {
          "internalType": "contract GovernorAlpha",
          "name": "governor",
          "type": "address"
        },
        {
          "internalType": "uint256[]",
          "name": "proposalIds",
          "type": "uint256[]"
        }
      ],
      "name": "getGovProposals",
      "outputs": [
        {
          "components": [
            {
              "internalType": "uint256",
              "name": "proposalId",
              "type": "uint256"
            },
            {
              "internalType": "address",
              "name": "proposer",
              "type": "address"
            },
            {
              "internalType": "uint256",
              "name": "eta",
              "type": "uint256"
            },
            {
              "internalType": "address[]",
              "name": "targets",
              "type": "address[]"
            },
            {
              "internalType": "uint256[]",
              "name": "values",
              "type": "uint256[]"
            },
            {
              "internalType": "string[]",
              "name": "signatures",
              "type": "string[]"
            },
            {
              "internalType": "bytes[]",
              "name": "calldatas",
              "type": "bytes[]"
            },
            {
              "internalType": "uint256",
              "name": "startBlock",
              "type": "uint256"
            },
            {
              "internalType": "uint256",
              "name": "endBlock",
              "type": "uint256"
            },
            {
              "internalType": "uint256",
              "name": "forVotes",
              "type": "uint256"
            },
            {
              "internalType": "uint256",
              "name": "againstVotes",
              "type": "uint256"
            },
            {
              "internalType": "bool",
              "name": "canceled",
              "type": "bool"
            },
            {
              "internalType": "bool",
              "name": "executed",
              "type": "bool"
            }
          ],
          "internalType": "struct CompoundLens.GovProposal[]",
          "name": "",
          "type": "tuple[]"
        }
      ],
      "payable": false,
      "stateMutability": "view",
      "type": "function"
    },
    {
      "constant": true,
      "inputs": [
        {
          "internalType": "contract GovernorBravoInterface",
          "name": "governor",
          "type": "address"
        },
        {
          "internalType": "uint256[]",
          "name": "proposalIds",
          "type": "uint256[]"
        }
      ],
      "name": "getGovBravoProposals",
      "outputs": [
        {
          "components": [
            {
              "internalType": "uint256",
              "name": "proposalId",
              "type": "uint256"
            },
            {
              "internalType": "address",
              "name": "proposer",
              "type": "address"
            },
            {
              "internalType": "uint256",
              "name": "eta",
              "type": "uint256"
            },
            {
              "internalType": "address[]",
              "name": "targets",
              "type": "address[]"
            },
            {
              "internalType": "uint256[]",
              "name": "values",
              "type": "uint256[]"
            },
            {
              "internalType": "string[]",
              "name": "signatures",
              "type": "string[]"
            },
            {
              "internalType": "bytes[]",
              "name": "calldatas",
              "type": "bytes[]"
            },
            {
              "internalType": "uint256",
              "name": "startBlock",
              "type": "uint256"
            },
            {
              "internalType": "uint256",
              "name": "endBlock",
              "type": "uint256"
            },
            {
              "internalType": "uint256",
              "name": "forVotes",
              "type": "uint256"
            },
            {
              "internalType": "uint256",
              "name": "againstVotes",
              "type": "uint256"
            },
            {
              "internalType": "uint256",
              "name": "abstainVotes",
              "type": "uint256"
            },
            {
              "internalType": "bool",
              "name": "canceled",
              "type": "bool"
            },
            {
              "internalType": "bool",
              "name": "executed",
              "type": "bool"
            }
          ],
          "internalType": "struct CompoundLens.GovBravoProposal[]",
          "name": "",
          "type": "tuple[]"
        }
      ],
      "payable": false,
      "stateMutability": "view",
      "type": "function"
    },
    {
      "constant": true,
      "inputs": [
        {
          "internalType": "contract Comp",
          "name": "comp",
          "type": "address"
        },
        {
          "internalType": "address",
          "name": "account",
          "type": "address"
        }
      ],
      "name": "getCompBalanceMetadata",
      "outputs": [
        {
          "components": [
            {
              "internalType": "uint256",
              "name": "balance",
              "type": "uint256"
            },
            {
              "internalType": "uint256",
              "name": "votes",
              "type": "uint256"
            },
            {
              "internalType": "address",
              "name": "delegate",
              "type": "address"
            }
          ],
          "internalType": "struct CompoundLens.CompBalanceMetadata",
          "name": "",
          "type": "tuple"
        }
      ],
      "payable": false,
      "stateMutability": "view",
      "type": "function"
    },
    {
      "constant": false,
      "inputs": [
        {
          "internalType": "contract Comp",
          "name": "comp",
          "type": "address"
        },
        {
          "internalType": "contract ComptrollerLensInterface",
          "name": "comptroller",
          "type": "address"
        },
        {
          "internalType": "address",
          "name": "account",
          "type": "address"
        }
      ],
      "name": "getCompBalanceMetadataExt",
      "outputs": [
        {
          "components": [
            {
              "internalType": "uint256",
              "name": "balance",
              "type": "uint256"
            },
            {
              "internalType": "uint256",
              "name": "votes",
              "type": "uint256"
            },
            {
              "internalType": "address",
              "name": "delegate",
              "type": "address"
            },
            {
              "internalType": "uint256",
              "name": "allocated",
              "type": "uint256"
            }
          ],
          "internalType": "struct CompoundLens.CompBalanceMetadataExt",
          "name": "",
          "type": "tuple"
        }
      ],
      "payable": false,
      "stateMutability": "nonpayable",
      "type": "function"
    },
    {
      "constant": true,
      "inputs": [
        {
          "internalType": "contract Comp",
          "name": "comp",
          "type": "address"
        },
        {
          "internalType": "address",
          "name": "account",
          "type": "address"
        },
        {
          "internalType": "uint32[]",
          "name": "blockNumbers",
          "type": "uint32[]"
        }
      ],
      "name": "getCompVotes",
      "outputs": [
        {
          "components": [
            {
              "internalType": "uint256",
              "name": "blockNumber",
              "type": "uint256"
            },
            {
              "internalType": "uint256",
              "name": "votes",
              "type": "uint256"
            }
          ],
          "internalType": "struct CompoundLens.CompVotes[]",
          "name": "",
          "type": "tuple[]"
        }
      ],
      "payable": false,
      "stateMutability": "view",
      "type": "function"
    }
  ],
  "bytecode": "0x608060405234801561001057600080fd5b50614228806100206000396000f3fe608060405234801561001057600080fd5b50600436106100ea5760003560e01c8063595642191161008c57806396994869116100665780639699486914610238578063995ed99f14610258578063bdf950c914610278578063c5ae593414610298576100ea565b806359564219146101d857806375d80e90146101f85780637dd8f6d914610218576100ea565b80632b2d5ed6116100c85780632b2d5ed614610158578063416405d71461017857806343c811cc146101985780634b70d84b146101b8576100ea565b80630972bf8b146100ef578063158eca8b146101185780631ea6374114610138575b600080fd5b6101026100fd366004612ed6565b6102b8565b60405161010f9190613f5a565b60405180910390f35b61012b610126366004612f98565b61035b565b60405161010f9190614020565b61014b61014636600461304d565b610bdd565b60405161010f919061403d565b61016b610166366004612e95565b610f64565b60405161010f9190613f7c565b61018b610186366004612fb6565b611000565b60405161010f919061404b565b6101ab6101a63660046130ae565b6111a9565b60405161010f9190613faf565b6101cb6101c6366004612e95565b611304565b60405161010f9190613f6b565b6101eb6101e6366004612fe6565b611395565b60405161010f9190613f8d565b61020b610206366004613108565b6114ed565b60405161010f9190613f9e565b61022b610226366004612fb6565b6116b0565b60405161010f9190614001565b61024b610246366004613108565b6117ec565b60405161010f9190613fc0565b61026b6102663660046130ae565b61199f565b60405161010f9190613fd1565b61028b610286366004612fb6565b611af9565b60405161010f9190614012565b6102ab6102a6366004612f98565b611e99565b60405161010f919061402f565b604080518381526020808502820101909152606090839082908280156102f857816020015b6102e561258d565b8152602001906001900390816102dd5790505b50905060005b8281101561034f5761033087878381811061031557fe5b905060200201602061032a9190810190612f98565b86611af9565b82828151811061033c57fe5b60209081029190910101526001016102fe565b509150505b9392505050565b6103636125cc565b6000826001600160a01b031663bd6d894d6040518163ffffffff1660e01b8152600401602060405180830381600087803b1580156103a057600080fd5b505af11580156103b4573d6000803e3d6000fd5b505050506040513d601f19601f820116820180604052506103d891908101906131ec565b90506000836001600160a01b0316635fe3b5676040518163ffffffff1660e01b815260040160206040518083038186803b15801561041557600080fd5b505afa158015610429573d6000803e3d6000fd5b505050506040513d601f19601f8201168201806040525061044d9190810190613090565b9050600080826001600160a01b0316638e8f294b876040518263ffffffff1660e01b815260040161047e9190613f08565b604080518083038186803b15801561049557600080fd5b505afa1580156104a9573d6000803e3d6000fd5b505050506040513d601f19601f820116820180604052506104cd9190810190612f5e565b9150915060008061056e886001600160a01b03166395d89b416040518163ffffffff1660e01b815260040160006040518083038186803b15801561051057600080fd5b505afa158015610524573d6000803e3d6000fd5b505050506040513d6000823e601f3d908101601f1916820160405261054c919081019061315d565b604051806040016040528060048152602001630c68aa8960e31b81525061202b565b1561057f57506000905060126106df565b6000889050806001600160a01b0316636f307dc36040518163ffffffff1660e01b815260040160206040518083038186803b1580156105bd57600080fd5b505afa1580156105d1573d6000803e3d6000fd5b505050506040513d601f19601f820116820180604052506105f59190810190612db3565b9250806001600160a01b0316636f307dc36040518163ffffffff1660e01b815260040160206040518083038186803b15801561063057600080fd5b505afa158015610644573d6000803e3d6000fd5b505050506040513d601f19601f820116820180604052506106689190810190612db3565b6001600160a01b031663313ce5676040518163ffffffff1660e01b815260040160206040518083038186803b1580156106a057600080fd5b505afa1580156106b4573d6000803e3d6000fd5b505050506040513d601f19601f820116820180604052506106d8919081019061332f565b60ff169150505b6000806106ec878b612084565b91509150600080905060006060896001600160a01b03168a6001600160a01b0316634a584432905060e01b8e6040516020016107289190613f08565b60408051601f19818403018152908290526107469291602001613ee0565b60408051601f198184030181529082905261076091613efc565b6000604051808303816000865af19150503d806000811461079d576040519150601f19603f3d011682016040523d82523d6000602084013e6107a2565b606091505b509150915081156107c457808060200190516107c191908101906131ec565b92505b6040518061022001604052808e6001600160a01b031681526020018c81526020018e6001600160a01b031663ae9d70b06040518163ffffffff1660e01b815260040160206040518083038186803b15801561081e57600080fd5b505afa158015610832573d6000803e3d6000fd5b505050506040513d601f19601f8201168201806040525061085691908101906131ec565b81526020018e6001600160a01b031663f8f9da286040518163ffffffff1660e01b815260040160206040518083038186803b15801561089457600080fd5b505afa1580156108a8573d6000803e3d6000fd5b505050506040513d601f19601f820116820180604052506108cc91908101906131ec565b81526020018e6001600160a01b031663173b99046040518163ffffffff1660e01b815260040160206040518083038186803b15801561090a57600080fd5b505afa15801561091e573d6000803e3d6000fd5b505050506040513d601f19601f8201168201806040525061094291908101906131ec565b81526020018e6001600160a01b03166347bd37186040518163ffffffff1660e01b815260040160206040518083038186803b15801561098057600080fd5b505afa158015610994573d6000803e3d6000fd5b505050506040513d601f19601f820116820180604052506109b891908101906131ec565b81526020018e6001600160a01b0316638f840ddd6040518163ffffffff1660e01b815260040160206040518083038186803b1580156109f657600080fd5b505afa158015610a0a573d6000803e3d6000fd5b505050506040513d601f19601f82011682018060405250610a2e91908101906131ec565b81526020018e6001600160a01b03166318160ddd6040518163ffffffff1660e01b815260040160206040518083038186803b158015610a6c57600080fd5b505afa158015610a80573d6000803e3d6000fd5b505050506040513d601f19601f82011682018060405250610aa491908101906131ec565b81526020018e6001600160a01b0316633b1d21a26040518163ffffffff1660e01b815260040160206040518083038186803b158015610ae257600080fd5b505afa158015610af6573d6000803e3d6000fd5b505050506040513d601f19601f82011682018060405250610b1a91908101906131ec565b81526020018a15158152602001898152602001886001600160a01b031681526020018e6001600160a01b031663313ce5676040518163ffffffff1660e01b815260040160206040518083038186803b158015610b7557600080fd5b505afa158015610b89573d6000803e3d6000fd5b505050506040513d601f19601f82011682018060405250610bad919081019061332f565b60ff168152602001878152602001868152602001858152602001848152509b505050505050505050505050919050565b610be5612664565b6040516370a0823160e01b81526000906001600160a01b038616906370a0823190610c14908690600401613f08565b60206040518083038186803b158015610c2c57600080fd5b505afa158015610c40573d6000803e3d6000fd5b505050506040513d601f19601f82011682018060405250610c6491908101906131ec565b6040516374d7814960e11b81529091506001600160a01b0385169063e9af029290610c93908690600401613f08565b600060405180830381600087803b158015610cad57600080fd5b505af1158015610cc1573d6000803e3d6000fd5b50506040516370a0823160e01b8152600092506001600160a01b03881691506370a0823190610cf4908790600401613f08565b60206040518083038186803b158015610d0c57600080fd5b505afa158015610d20573d6000803e3d6000fd5b505050506040513d601f19601f82011682018060405250610d4491908101906131ec565b90506000856001600160a01b031663cc7ebdc4866040518263ffffffff1660e01b8152600401610d749190613f08565b60206040518083038186803b158015610d8c57600080fd5b505afa158015610da0573d6000803e3d6000fd5b505050506040513d601f19601f82011682018060405250610dc491908101906131ec565b90506000610df982846040518060400160405280600e81526020016d1cdd5b4818dbdb5c081d1bdd185b60921b815250612308565b90506000610e2d82866040518060400160405280600d81526020016c1cdd5888185b1b1bd8d85d1959609a1b815250612338565b905060405180608001604052808681526020018a6001600160a01b031663b4b5ea578a6040518263ffffffff1660e01b8152600401610e6c9190613f08565b60206040518083038186803b158015610e8457600080fd5b505afa158015610e98573d6000803e3d6000fd5b505050506040513d601f19601f82011682018060405250610ebc919081019061334d565b6001600160601b031681526020018a6001600160a01b031663587cde1e8a6040518263ffffffff1660e01b8152600401610ef69190613f08565b60206040518083038186803b158015610f0e57600080fd5b505afa158015610f22573d6000803e3d6000fd5b505050506040513d601f19601f82011682018060405250610f469190810190612db3565b6001600160a01b031681526020019190915298975050505050505050565b60408051828152602080840282010190915260609082908290828015610fa457816020015b610f91612695565b815260200190600190039081610f895790505b50905060005b82811015610ff557610fd6868683818110610fc157fe5b90506020020160206102a69190810190612f98565b828281518110610fe257fe5b6020908102919091010152600101610faa565b509150505b92915050565b6110086126ac565b6040805160608101918290526370a0823160e01b909152806001600160a01b0385166370a0823161103c8660648501613f08565b60206040518083038186803b15801561105457600080fd5b505afa158015611068573d6000803e3d6000fd5b505050506040513d601f19601f8201168201806040525061108c91908101906131ec565b8152602001846001600160a01b031663b4b5ea57856040518263ffffffff1660e01b81526004016110bd9190613f08565b60206040518083038186803b1580156110d557600080fd5b505afa1580156110e9573d6000803e3d6000fd5b505050506040513d601f19601f8201168201806040525061110d919081019061334d565b6001600160601b03168152602001846001600160a01b031663587cde1e856040518263ffffffff1660e01b81526004016111479190613f08565b60206040518083038186803b15801561115f57600080fd5b505afa158015611173573d6000803e3d6000fd5b505050506040513d601f19601f820116820180604052506111979190810190612db3565b6001600160a01b031690529392505050565b60606000825190506060816040519080825280602002602001820160405280156111ed57816020015b6111da6126d6565b8152602001906001900390816111d25790505b50905060005b8281101561034f576112036126fd565b876001600160a01b031663e23a9a5287848151811061121e57fe5b6020026020010151896040518363ffffffff1660e01b8152600401611244929190614067565b60606040518083038186803b15801561125c57600080fd5b505afa158015611270573d6000803e3d6000fd5b505050506040513d601f19601f8201168201806040525061129491908101906131ce565b905060405180608001604052808784815181106112ad57fe5b60200260200101518152602001826000015115158152602001826020015160ff16815260200182604001516001600160601b03168152508383815181106112f057fe5b6020908102919091010152506001016111f3565b6040805182815260208084028201019091526060908290829082801561134457816020015b6113316125cc565b8152602001906001900390816113295790505b50905060005b82811015610ff55761137686868381811061136157fe5b90506020020160206101269190810190612f98565b82828151811061138257fe5b602090810291909101015260010161134a565b606080838390506040519080825280602002602001820160405280156113d557816020015b6113c261271d565b8152602001906001900390816113ba5790505b50905060005b838110156114e35760405180604001604052808686848181106113fa57fe5b905060200201602061140f9190810190613311565b63ffffffff168152602001886001600160a01b031663782d6fe18989898781811061143657fe5b905060200201602061144b9190810190613311565b6040518363ffffffff1660e01b8152600401611468929190613f3f565b60206040518083038186803b15801561148057600080fd5b505afa158015611494573d6000803e3d6000fd5b505050506040513d601f19601f820116820180604052506114b8919081019061334d565b6001600160601b03168152508282815181106114d057fe5b60209081029190910101526001016113db565b5095945050505050565b6060808383905060405190808252806020026020018201604052801561152d57816020015b61151a612737565b8152602001906001900390816115125790505b50905060005b838110156116a757606080606080896001600160a01b031663328dd9828a8a8881811061155c57fe5b905060200201356040518263ffffffff1660e01b815260040161157f9190614059565b60006040518083038186803b15801561159757600080fd5b505afa1580156115ab573d6000803e3d6000fd5b505050506040513d6000823e601f3d908101601f191682016040526115d39190810190612dd9565b9350935093509350604051806101c001604052806000815260200160006001600160a01b031681526020016000815260200185815260200184815260200183815260200182815260200160008152602001600081526020016000815260200160008152602001600081526020016000151581526020016000151581525086868151811061165c57fe5b602002602001018190525061169786868151811061167657fe5b60200260200101518b8b8b8981811061168b57fe5b90506020020135612364565b5050600190920191506115339050565b50949350505050565b6116b86127b3565b6000806000856001600160a01b0316635ec88c79866040518263ffffffff1660e01b81526004016116e99190613f08565b60606040518083038186803b15801561170157600080fd5b505afa158015611715573d6000803e3d6000fd5b505050506040513d601f19601f8201168201806040525061173991908101906132ce565b9250925092508260001461174c57600080fd5b604080516060810191829052632aff3bff60e21b909152806001600160a01b03881663abfceffc6117808960648501613f08565b60006040518083038186803b15801561179857600080fd5b505afa1580156117ac573d6000803e3d6000fd5b505050506040513d6000823e601f3d908101601f191682016040526117d49190810190612f2a565b81526020810193909352604090920152949350505050565b6060808383905060405190808252806020026020018201604052801561182c57816020015b6118196127d4565b8152602001906001900390816118115790505b50905060005b838110156116a757606080606080896001600160a01b031663328dd9828a8a8881811061185b57fe5b905060200201356040518263ffffffff1660e01b815260040161187e9190614059565b60006040518083038186803b15801561189657600080fd5b505afa1580156118aa573d6000803e3d6000fd5b505050506040513d6000823e601f3d908101601f191682016040526118d29190810190612dd9565b9350935093509350604051806101a001604052806000815260200160006001600160a01b0316815260200160008152602001858152602001848152602001838152602001828152602001600081526020016000815260200160008152602001600081526020016000151581526020016000151581525086868151811061195457fe5b602002602001018190525061198f86868151811061196e57fe5b60200260200101518b8b8b8981811061198357fe5b90506020020135612467565b5050600190920191506118329050565b60606000825190506060816040519080825280602002602001820160405280156119e357816020015b6119d06126d6565b8152602001906001900390816119c85790505b50905060005b8281101561034f576119f96126fd565b876001600160a01b031663e23a9a52878481518110611a1457fe5b6020026020010151896040518363ffffffff1660e01b8152600401611a3a929190614067565b60606040518083038186803b158015611a5257600080fd5b505afa158015611a66573d6000803e3d6000fd5b505050506040513d601f19601f82011682018060405250611a8a91908101906131b0565b90506040518060800160405280878481518110611aa357fe5b6020026020010151815260200182600001511515815260200182602001511515815260200182604001516001600160601b0316815250838381518110611ae557fe5b6020908102919091010152506001016119e9565b611b0161258d565b6040516370a0823160e01b81526000906001600160a01b038516906370a0823190611b30908690600401613f16565b60206040518083038186803b158015611b4857600080fd5b505afa158015611b5c573d6000803e3d6000fd5b505050506040513d601f19601f82011682018060405250611b8091908101906131ec565b90506000846001600160a01b03166317bfdfbc856040518263ffffffff1660e01b8152600401611bb09190613f16565b602060405180830381600087803b158015611bca57600080fd5b505af1158015611bde573d6000803e3d6000fd5b505050506040513d601f19601f82011682018060405250611c0291908101906131ec565b90506000856001600160a01b0316633af9e669866040518263ffffffff1660e01b8152600401611c329190613f16565b602060405180830381600087803b158015611c4c57600080fd5b505af1158015611c60573d6000803e3d6000fd5b505050506040513d601f19601f82011682018060405250611c8491908101906131ec565b9050600080611cc5886001600160a01b03166395d89b416040518163ffffffff1660e01b815260040160006040518083038186803b15801561051057600080fd5b15611cdf5750506001600160a01b03851680319031611e5c565b60008890506000816001600160a01b0316636f307dc36040518163ffffffff1660e01b815260040160206040518083038186803b158015611d1f57600080fd5b505afa158015611d33573d6000803e3d6000fd5b505050506040513d601f19601f82011682018060405250611d579190810190612db3565b6040516370a0823160e01b81529091506001600160a01b038216906370a0823190611d86908c90600401613f16565b60206040518083038186803b158015611d9e57600080fd5b505afa158015611db2573d6000803e3d6000fd5b505050506040513d601f19601f82011682018060405250611dd691908101906131ec565b604051636eb1769f60e11b81529094506001600160a01b0382169063dd62ed3e90611e07908c908e90600401613f24565b60206040518083038186803b158015611e1f57600080fd5b505afa158015611e33573d6000803e3d6000fd5b505050506040513d601f19601f82011682018060405250611e5791908101906131ec565b925050505b6040805160c0810182526001600160a01b039990991689526020890195909552938701929092526060860152608085015260a08401525090919050565b611ea1612695565b6000826001600160a01b0316635fe3b5676040518163ffffffff1660e01b815260040160206040518083038186803b158015611edc57600080fd5b505afa158015611ef0573d6000803e3d6000fd5b505050506040513d601f19601f82011682018060405250611f149190810190613090565b90506000816001600160a01b0316637dc0d1d06040518163ffffffff1660e01b815260040160206040518083038186803b158015611f5157600080fd5b505afa158015611f65573d6000803e3d6000fd5b505050506040513d601f19601f82011682018060405250611f899190810190613090565b90506040518060400160405280856001600160a01b03168152602001826001600160a01b031663fc57d4df876040518263ffffffff1660e01b8152600401611fd19190613fe2565b60206040518083038186803b158015611fe957600080fd5b505afa158015611ffd573d6000803e3d6000fd5b505050506040513d601f19601f8201168201806040525061202191908101906131ec565b9052949350505050565b60008160405160200161203e9190613efc565b60405160208183030381529060405280519060200120836040516020016120659190613efc565b6040516020818303038152906040528051906020012014905092915050565b6040516000908190819081906060906001600160a01b03881690636aa875b560e01b906120b5908990602001613f08565b60408051601f19818403018152908290526120d39291602001613ee0565b60408051601f19818403018152908290526120ed91613efc565b6000604051808303816000865af19150503d806000811461212a576040519150601f19603f3d011682016040523d82523d6000602084013e61212f565b606091505b50915091508115612151578080602001905161214e91908101906131ec565b92505b60405160009081906060906001600160a01b038b16906303d290cf60e61b9061217e908c90602001613f08565b60408051601f198184030181529082905261219c9291602001613ee0565b60408051601f19818403018152908290526121b691613efc565b6000604051808303816000865af19150503d80600081146121f3576040519150601f19603f3d011682016040523d82523d6000602084013e6121f8565b606091505b5091509150811561221a578080602001905161221791908101906131ec565b92505b841580612225575081155b156122f7576040516000906060906001600160a01b038d1690631d7b33d760e01b90612255908e90602001613f08565b60408051601f19818403018152908290526122739291602001613ee0565b60408051601f198184030181529082905261228d91613efc565b6000604051808303816000865af19150503d80600081146122ca576040519150601f19603f3d011682016040523d82523d6000602084013e6122cf565b606091505b509150915081156122f457808060200190516122ee91908101906131ec565b94508497505b50505b5093955093505050505b9250929050565b600083830182858210156116a75760405162461bcd60e51b815260040161232f9190613ff0565b60405180910390fd5b6000818484111561235c5760405162461bcd60e51b815260040161232f9190613ff0565b505050900390565b61236c612849565b60405163013cf08b60e01b81526001600160a01b0384169063013cf08b90612398908590600401614059565b6101406040518083038186803b1580156123b157600080fd5b505afa1580156123c5573d6000803e3d6000fd5b505050506040513d601f19601f820116820180604052506123e99190810190613191565b918452506020808201516001600160a01b03169084015260408082015190840152606081015160e08085019190915260808201516101008086019190915260a08301516101208087019190915260c0840151610140870152918301516101608601528201511515610180850152015115156101a09092019190915250565b600080600080600080600080896001600160a01b031663013cf08b8a6040518263ffffffff1660e01b815260040161249f9190614059565b6101206040518083038186803b1580156124b857600080fd5b505afa1580156124cc573d6000803e3d6000fd5b505050506040513d601f19601f820116820180604052506124f0919081019061320a565b9850985098509850985098509850985050888b6000018181525050878b602001906001600160a01b031690816001600160a01b031681525050868b6040018181525050858b60e0018181525050848b610100018181525050838b610120018181525050828b610140018181525050818b610160019015159081151581525050808b6101800190151590811515815250505050505050505050505050565b6040518060c0016040528060006001600160a01b0316815260200160008152602001600081526020016000815260200160008152602001600081525090565b60405180610220016040528060006001600160a01b0316815260200160008152602001600081526020016000815260200160008152602001600081526020016000815260200160008152602001600081526020016000151581526020016000815260200160006001600160a01b0316815260200160008152602001600081526020016000815260200160008152602001600081525090565b6040518060800160405280600081526020016000815260200160006001600160a01b03168152602001600081525090565b604080518082019091526000808252602082015290565b6040518060600160405280600081526020016000815260200160006001600160a01b031681525090565b60408051608081018252600080825260208201819052918101829052606081019190915290565b604080516060810182526000808252602082018190529181019190915290565b604051806040016040528060008152602001600081525090565b604051806101c001604052806000815260200160006001600160a01b03168152602001600081526020016060815260200160608152602001606081526020016060815260200160008152602001600081526020016000815260200160008152602001600081526020016000151581526020016000151581525090565b60405180606001604052806060815260200160008152602001600081525090565b604051806101a001604052806000815260200160006001600160a01b031681526020016000815260200160608152602001606081526020016060815260200160608152602001600081526020016000815260200160008152602001600081526020016000151581526020016000151581525090565b6040518061014001604052806000815260200160006001600160a01b031681526020016000815260200160008152602001600081526020016000815260200160008152602001600081526020016000151581526020016000151581525090565b8035610ffa81614198565b8051610ffa81614198565b600082601f8301126128d057600080fd5b81516128e36128de8261409b565b614075565b9150818183526020840193506020810190508385602084028201111561290857600080fd5b60005b83811015612934578161291e88826128b4565b845250602092830192919091019060010161290b565b5050505092915050565b600082601f83011261294f57600080fd5b815161295d6128de8261409b565b81815260209384019390925082018360005b8381101561293457815186016129858882612b94565b845250602092830192919091019060010161296f565b60008083601f8401126129ad57600080fd5b5081356001600160401b038111156129c457600080fd5b60208301915083602082028301111561230157600080fd5b600082601f8301126129ed57600080fd5b81516129fb6128de8261409b565b91508181835260208401935060208101905083856020840282011115612a2057600080fd5b60005b838110156129345781612a368882612bee565b8452506020928301929190910190600101612a23565b600082601f830112612a5d57600080fd5b8151612a6b6128de8261409b565b81815260209384019390925082018360005b838110156129345781518601612a938882612b94565b8452506020928301929190910190600101612a7d565b600082601f830112612aba57600080fd5b8135612ac86128de8261409b565b91508181835260208401935060208101905083856020840282011115612aed57600080fd5b60005b838110156129345781612b038882612d7c565b8452506020928301929190910190600101612af0565b600082601f830112612b2a57600080fd5b8151612b386128de8261409b565b91508181835260208401935060208101905083856020840282011115612b5d57600080fd5b60005b838110156129345781612b738882612d87565b8452506020928301929190910190600101612b60565b8051610ffa816141af565b600082601f830112612ba557600080fd5b8151612bb36128de826140bb565b91508082526020830160208301858383011115612bcf57600080fd5b612bda838284614162565b50505092915050565b8035610ffa816141b8565b8051610ffa816141b8565b60006101408284031215612c0c57600080fd5b612c17610140614075565b90506000612c258484612d87565b8252506020612c36848483016128b4565b6020830152506040612c4a84828501612d87565b6040830152506060612c5e84828501612d87565b6060830152506080612c7284828501612d87565b60808301525060a0612c8684828501612d87565b60a08301525060c0612c9a84828501612d87565b60c08301525060e0612cae84828501612d87565b60e083015250610100612cc384828501612b89565b61010083015250610120612cd984828501612b89565b6101208301525092915050565b600060608284031215612cf857600080fd5b612d026060614075565b90506000612d108484612b89565b8252506020612d2184848301612b89565b6020830152506040612d3584828501612da8565b60408301525092915050565b600060608284031215612d5357600080fd5b612d5d6060614075565b90506000612d6b8484612b89565b8252506020612d2184848301612d9d565b8035610ffa816141c1565b8051610ffa816141c1565b8035610ffa816141ca565b8051610ffa816141d3565b8051610ffa816141dc565b600060208284031215612dc557600080fd5b6000612dd184846128b4565b949350505050565b60008060008060808587031215612def57600080fd5b84516001600160401b03811115612e0557600080fd5b612e11878288016128bf565b94505060208501516001600160401b03811115612e2d57600080fd5b612e3987828801612b19565b93505060408501516001600160401b03811115612e5557600080fd5b612e6187828801612a4c565b92505060608501516001600160401b03811115612e7d57600080fd5b612e898782880161293e565b91505092959194509250565b60008060208385031215612ea857600080fd5b82356001600160401b03811115612ebe57600080fd5b612eca8582860161299b565b92509250509250929050565b600080600060408486031215612eeb57600080fd5b83356001600160401b03811115612f0157600080fd5b612f0d8682870161299b565b93509350506020612f20868287016128a9565b9150509250925092565b600060208284031215612f3c57600080fd5b81516001600160401b03811115612f5257600080fd5b612dd1848285016129dc565b60008060408385031215612f7157600080fd5b6000612f7d8585612b89565b9250506020612f8e85828601612d87565b9150509250929050565b600060208284031215612faa57600080fd5b6000612dd18484612be3565b60008060408385031215612fc957600080fd5b6000612fd58585612be3565b9250506020612f8e858286016128a9565b60008060008060608587031215612ffc57600080fd5b60006130088787612be3565b9450506020613019878288016128a9565b93505060408501356001600160401b0381111561303557600080fd5b6130418782880161299b565b95989497509550505050565b60008060006060848603121561306257600080fd5b600061306e8686612be3565b935050602061307f86828701612be3565b9250506040612f20868287016128a9565b6000602082840312156130a257600080fd5b6000612dd18484612bee565b6000806000606084860312156130c357600080fd5b60006130cf8686612be3565b93505060206130e0868287016128a9565b92505060408401356001600160401b038111156130fc57600080fd5b612f2086828701612aa9565b60008060006040848603121561311d57600080fd5b60006131298686612be3565b93505060208401356001600160401b0381111561314557600080fd5b6131518682870161299b565b92509250509250925092565b60006020828403121561316f57600080fd5b81516001600160401b0381111561318557600080fd5b612dd184828501612b94565b600061014082840312156131a457600080fd5b6000612dd18484612bf9565b6000606082840312156131c257600080fd5b6000612dd18484612ce6565b6000606082840312156131e057600080fd5b6000612dd18484612d41565b6000602082840312156131fe57600080fd5b6000612dd18484612d87565b60008060008060008060008060006101208a8c03121561322957600080fd5b60006132358c8c612d87565b99505060206132468c828d016128b4565b98505060406132578c828d01612d87565b97505060606132688c828d01612d87565b96505060806132798c828d01612d87565b95505060a061328a8c828d01612d87565b94505060c061329b8c828d01612d87565b93505060e06132ac8c828d01612b89565b9250506101006132be8c828d01612b89565b9150509295985092959850929598565b6000806000606084860312156132e357600080fd5b60006132ef8686612d87565b935050602061330086828701612d87565b9250506040612f2086828701612d87565b60006020828403121561332357600080fd5b6000612dd18484612d92565b60006020828403121561334157600080fd5b6000612dd18484612d9d565b60006020828403121561335f57600080fd5b6000612dd18484612da8565b60006133778383613433565b505060200190565b600061035483836138df565b60006133778383613917565b60006133a38383613968565b505060c00190565b60006133b783836139de565b50506102200190565b60006133cc8383613b32565b505060400190565b60006133cc8383613bd7565b60006103548383613be8565b60006133f88383613d1c565b505060800190565b60006103548383613d66565b60006133f88383613e85565b60006133778383613ebc565b61342d8161414c565b82525050565b61342d816140fa565b6000613447826140e8565b61345181856140ec565b935061345c836140e2565b8060005b8381101561348a578151613474888261336b565b975061347f836140e2565b925050600101613460565b509495945050505050565b60006134a0826140e8565b6134aa81856140ec565b9350836020820285016134bc856140e2565b8060005b858110156134f657848403895281516134d9858261337f565b94506134e4836140e2565b60209a909a01999250506001016134c0565b5091979650505050505050565b600061350e826140e8565b61351881856140ec565b9350613523836140e2565b8060005b8381101561348a57815161353b888261338b565b9750613546836140e2565b925050600101613527565b600061355c826140e8565b61356681856140ec565b935083602082028501613578856140e2565b8060005b858110156134f65784840389528151613595858261337f565b94506135a0836140e2565b60209a909a019992505060010161357c565b60006135bd826140e8565b6135c781856140ec565b93506135d2836140e2565b8060005b8381101561348a5781516135ea8882613397565b97506135f5836140e2565b9250506001016135d6565b600061360b826140e8565b61361581856140ec565b9350613620836140e2565b8060005b8381101561348a57815161363888826133ab565b9750613643836140e2565b925050600101613624565b6000613659826140e8565b61366381856140ec565b935061366e836140e2565b8060005b8381101561348a57815161368688826133c0565b9750613691836140e2565b925050600101613672565b60006136a7826140e8565b6136b181856140ec565b93506136bc836140e2565b8060005b8381101561348a5781516136d488826133d4565b97506136df836140e2565b9250506001016136c0565b60006136f5826140e8565b6136ff81856140ec565b935083602082028501613711856140e2565b8060005b858110156134f6578484038952815161372e85826133e0565b9450613739836140e2565b60209a909a0199925050600101613715565b6000613756826140e8565b61376081856140ec565b935061376b836140e2565b8060005b8381101561348a57815161378388826133ec565b975061378e836140e2565b92505060010161376f565b60006137a4826140e8565b6137ae81856140ec565b9350836020820285016137c0856140e2565b8060005b858110156134f657848403895281516137dd8582613400565b94506137e8836140e2565b60209a909a01999250506001016137c4565b6000613805826140e8565b61380f81856140ec565b935061381a836140e2565b8060005b8381101561348a578151613832888261340c565b975061383d836140e2565b92505060010161381e565b6000613853826140e8565b61385d81856140ec565b9350613868836140e2565b8060005b8381101561348a5781516138808882613418565b975061388b836140e2565b92505060010161386c565b61342d81614105565b61342d6138ab8261410a565b61412e565b60006138bb826140e8565b6138c581856140f5565b93506138d5818560208601614162565b9290920192915050565b60006138ea826140e8565b6138f481856140ec565b9350613904818560208601614162565b61390d8161418e565b9093019392505050565b61342d81614117565b80516060808452600091908401906139388282613503565b915050602083015161394d6020860182613ebc565b5060408301516139606040860182613ebc565b509392505050565b805160c08301906139798482613433565b50602082015161398c6020850182613ebc565b50604082015161399f6040850182613ebc565b5060608201516139b26060850182613ebc565b5060808201516139c56080850182613ebc565b5060a08201516139d860a0850182613ebc565b50505050565b80516102208301906139f08482613433565b506020820151613a036020850182613ebc565b506040820151613a166040850182613ebc565b506060820151613a296060850182613ebc565b506080820151613a3c6080850182613ebc565b5060a0820151613a4f60a0850182613ebc565b5060c0820151613a6260c0850182613ebc565b5060e0820151613a7560e0850182613ebc565b50610100820151613a8a610100850182613ebc565b50610120820151613a9f610120850182613896565b50610140820151613ab4610140850182613ebc565b50610160820151613ac9610160850182613433565b50610180820151613ade610180850182613ebc565b506101a0820151613af36101a0850182613ebc565b506101c0820151613b086101c0850182613ebc565b506101e0820151613b1d6101e0850182613ebc565b506102008201516139d8610200850182613ebc565b80516040830190613b438482613433565b5060208201516139d86020850182613ebc565b80516080830190613b678482613ebc565b506020820151613b7a6020850182613ebc565b506040820151613b8d6040850182613433565b5060608201516139d86060850182613ebc565b80516060830190613bb18482613ebc565b506020820151613bc46020850182613ebc565b5060408201516139d86040850182613433565b80516040830190613b438482613ebc565b80516000906101c0840190613bfd8582613ebc565b506020830151613c106020860182613433565b506040830151613c236040860182613ebc565b5060608301518482036060860152613c3b828261343c565b91505060808301518482036080860152613c558282613848565b91505060a083015184820360a0860152613c6f8282613551565b91505060c083015184820360c0860152613c898282613495565b91505060e0830151613c9e60e0860182613ebc565b50610100830151613cb3610100860182613ebc565b50610120830151613cc8610120860182613ebc565b50610140830151613cdd610140860182613ebc565b50610160830151613cf2610160860182613ebc565b50610180830151613d07610180860182613896565b506101a08301516139606101a0860182613896565b80516080830190613d2d8482613ebc565b506020820151613d406020850182613896565b506040820151613d536040850182613ece565b5060608201516139d86060850182613ed7565b80516000906101a0840190613d7b8582613ebc565b506020830151613d8e6020860182613433565b506040830151613da16040860182613ebc565b5060608301518482036060860152613db9828261343c565b91505060808301518482036080860152613dd38282613848565b91505060a083015184820360a0860152613ded8282613551565b91505060c083015184820360c0860152613e078282613495565b91505060e0830151613e1c60e0860182613ebc565b50610100830151613e31610100860182613ebc565b50610120830151613e46610120860182613ebc565b50610140830151613e5b610140860182613ebc565b50610160830151613e70610160860182613896565b50610180830151613960610180860182613896565b80516080830190613e968482613ebc565b506020820151613ea96020850182613896565b506040820151613d536040850182613896565b61342d8161412e565b61342d81614157565b61342d8161413a565b61342d81614140565b6000613eec828561389f565b600482019150612dd182846138b0565b600061035482846138b0565b60208101610ffa8284613433565b60208101610ffa8284613424565b60408101613f328285613424565b6103546020830184613433565b60408101613f4d8285613433565b6103546020830184613ec5565b6020808252810161035481846135b2565b602080825281016103548184613600565b60208082528101610354818461364e565b60208082528101610354818461369c565b6020808252810161035481846136ea565b60208082528101610354818461374b565b602080825281016103548184613799565b6020808252810161035481846137fa565b60208101610ffa8284613917565b6020808252810161035481846138df565b602080825281016103548184613920565b60c08101610ffa8284613968565b6102208101610ffa82846139de565b60408101610ffa8284613b32565b60808101610ffa8284613b56565b60608101610ffa8284613ba0565b60208101610ffa8284613ebc565b60408101613f328285613ebc565b6040518181016001600160401b038111828210171561409357600080fd5b604052919050565b60006001600160401b038211156140b157600080fd5b5060209081020190565b60006001600160401b038211156140d157600080fd5b506020601f91909101601f19160190565b60200190565b5190565b90815260200190565b919050565b6000610ffa82614122565b151590565b6001600160e01b03191690565b6000610ffa826140fa565b6001600160a01b031690565b90565b63ffffffff1690565b60ff1690565b6001600160601b031690565b6000610ffa82614117565b6000610ffa82614131565b60005b8381101561417d578181015183820152602001614165565b838111156139d85750506000910152565b601f01601f191690565b6141a1816140fa565b81146141ac57600080fd5b50565b6141a181614105565b6141a181614117565b6141a18161412e565b6141a181614131565b6141a18161413a565b6141a18161414056fea365627a7a72315820114a00c775f76b5b8cd8ece0f806a47febc5d2202c9922ecba8116784b670c116c6578706572696d656e74616cf564736f6c63430005100040",
  "source": "pragma solidity ^0.5.16;\r\npragma experimental ABIEncoderV2;\r\n\r\nimport \"../CErc20.sol\";\r\nimport \"../CToken.sol\";\r\nimport \"../PriceOracle.sol\";\r\nimport \"../EIP20Interface.sol\";\r\nimport \"../Governance/GovernorAlpha.sol\";\r\nimport \"../Governance/Comp.sol\";\r\n\r\ninterface ComptrollerLensInterface {\r\n    function markets(address) external view returns (bool, uint);\r\n    function oracle() external view returns (PriceOracle);\r\n    function getAccountLiquidity(address) external view returns (uint, uint, uint);\r\n    function getAssetsIn(address) external view returns (CToken[] memory);\r\n    function claimComp(address) external;\r\n    function compAccrued(address) external view returns (uint);\r\n    function compSpeeds(address) external view returns (uint);\r\n    function compSupplySpeeds(address) external view returns (uint);\r\n    function compBorrowSpeeds(address) external view returns (uint);\r\n    function borrowCaps(address) external view returns (uint);\r\n}\r\n\r\ninterface GovernorBravoInterface {\r\n    struct Receipt {\r\n        bool hasVoted;\r\n        uint8 support;\r\n        uint96 votes;\r\n    }\r\n    struct Proposal {\r\n        uint id;\r\n        address proposer;\r\n        uint eta;\r\n        uint startBlock;\r\n        uint endBlock;\r\n        uint forVotes;\r\n        uint againstVotes;\r\n        uint abstainVotes;\r\n        bool canceled;\r\n        bool executed;\r\n    }\r\n    function getActions(uint proposalId) external view returns (address[] memory targets, uint[] memory values, string[] memory signatures, bytes[] memory calldatas);\r\n    function proposals(uint proposalId) external view returns (Proposal memory);\r\n    function getReceipt(uint proposalId, address voter) external view returns (Receipt memory);\r\n}\r\n\r\ncontract CompoundLens {\r\n    struct CTokenMetadata {\r\n        address cToken;\r\n        uint exchangeRateCurrent;\r\n        uint supplyRatePerBlock;\r\n        uint borrowRatePerBlock;\r\n        uint reserveFactorMantissa;\r\n        uint totalBorrows;\r\n        uint totalReserves;\r\n        uint totalSupply;\r\n        uint totalCash;\r\n        bool isListed;\r\n        uint collateralFactorMantissa;\r\n        address underlyingAssetAddress;\r\n        uint cTokenDecimals;\r\n        uint underlyingDecimals;\r\n        uint compSupplySpeed;\r\n        uint compBorrowSpeed;\r\n        uint borrowCap;\r\n    }\r\n\r\n    function getCompSpeeds(ComptrollerLensInterface comptroller, CToken cToken) internal returns (uint, uint) {\r\n        // Getting comp speeds is gnarly due to not every network having the\r\n        // split comp speeds from Proposal 62 and other networks don't even\r\n        // have comp speeds.\r\n        uint compSupplySpeed = 0;\r\n        (bool compSupplySpeedSuccess, bytes memory compSupplySpeedReturnData) =\r\n            address(comptroller).call(\r\n                abi.encodePacked(\r\n                    comptroller.compSupplySpeeds.selector,\r\n                    abi.encode(address(cToken))\r\n                )\r\n            );\r\n        if (compSupplySpeedSuccess) {\r\n            compSupplySpeed = abi.decode(compSupplySpeedReturnData, (uint));\r\n        }\r\n\r\n        uint compBorrowSpeed = 0;\r\n        (bool compBorrowSpeedSuccess, bytes memory compBorrowSpeedReturnData) =\r\n            address(comptroller).call(\r\n                abi.encodePacked(\r\n                    comptroller.compBorrowSpeeds.selector,\r\n                    abi.encode(address(cToken))\r\n                )\r\n            );\r\n        if (compBorrowSpeedSuccess) {\r\n            compBorrowSpeed = abi.decode(compBorrowSpeedReturnData, (uint));\r\n        }\r\n\r\n        // If the split comp speeds call doesn't work, try the  oldest non-spit version.\r\n        if (!compSupplySpeedSuccess || !compBorrowSpeedSuccess) {\r\n            (bool compSpeedSuccess, bytes memory compSpeedReturnData) =\r\n            address(comptroller).call(\r\n                abi.encodePacked(\r\n                    comptroller.compSpeeds.selector,\r\n                    abi.encode(address(cToken))\r\n                )\r\n            );\r\n            if (compSpeedSuccess) {\r\n                compSupplySpeed = compBorrowSpeed = abi.decode(compSpeedReturnData, (uint));\r\n            }\r\n        }\r\n        return (compSupplySpeed, compBorrowSpeed);\r\n    }\r\n\r\n    function cTokenMetadata(CToken cToken) public returns (CTokenMetadata memory) {\r\n        uint exchangeRateCurrent = cToken.exchangeRateCurrent();\r\n        ComptrollerLensInterface comptroller = ComptrollerLensInterface(address(cToken.comptroller()));\r\n        (bool isListed, uint collateralFactorMantissa) = comptroller.markets(address(cToken));\r\n        address underlyingAssetAddress;\r\n        uint underlyingDecimals;\r\n\r\n        if (compareStrings(cToken.symbol(), \"cETH\")) {\r\n            underlyingAssetAddress = address(0);\r\n            underlyingDecimals = 18;\r\n        } else {\r\n            CErc20 cErc20 = CErc20(address(cToken));\r\n            underlyingAssetAddress = cErc20.underlying();\r\n            underlyingDecimals = EIP20Interface(cErc20.underlying()).decimals();\r\n        }\r\n\r\n        (uint compSupplySpeed, uint compBorrowSpeed) = getCompSpeeds(comptroller, cToken);\r\n\r\n        uint borrowCap = 0;\r\n        (bool borrowCapSuccess, bytes memory borrowCapReturnData) =\r\n            address(comptroller).call(\r\n                abi.encodePacked(\r\n                    comptroller.borrowCaps.selector,\r\n                    abi.encode(address(cToken))\r\n                )\r\n            );\r\n        if (borrowCapSuccess) {\r\n            borrowCap = abi.decode(borrowCapReturnData, (uint));\r\n        }\r\n\r\n        return CTokenMetadata({\r\n            cToken: address(cToken),\r\n            exchangeRateCurrent: exchangeRateCurrent,\r\n            supplyRatePerBlock: cToken.supplyRatePerBlock(),\r\n            borrowRatePerBlock: cToken.borrowRatePerBlock(),\r\n            reserveFactorMantissa: cToken.reserveFactorMantissa(),\r\n            totalBorrows: cToken.totalBorrows(),\r\n            totalReserves: cToken.totalReserves(),\r\n            totalSupply: cToken.totalSupply(),\r\n            totalCash: cToken.getCash(),\r\n            isListed: isListed,\r\n            collateralFactorMantissa: collateralFactorMantissa,\r\n            underlyingAssetAddress: underlyingAssetAddress,\r\n            cTokenDecimals: cToken.decimals(),\r\n            underlyingDecimals: underlyingDecimals,\r\n            compSupplySpeed: compSupplySpeed,\r\n            compBorrowSpeed: compBorrowSpeed,\r\n            borrowCap: borrowCap\r\n        });\r\n    }\r\n\r\n    function cTokenMetadataAll(CToken[] calldata cTokens) external returns (CTokenMetadata[] memory) {\r\n        uint cTokenCount = cTokens.length;\r\n        CTokenMetadata[] memory res = new CTokenMetadata[](cTokenCount);\r\n        for (uint i = 0; i < cTokenCount; i++) {\r\n            res[i] = cTokenMetadata(cTokens[i]);\r\n        }\r\n        return res;\r\n    }\r\n\r\n    struct CTokenBalances {\r\n        address cToken;\r\n        uint balanceOf;\r\n        uint borrowBalanceCurrent;\r\n        uint balanceOfUnderlying;\r\n        uint tokenBalance;\r\n        uint tokenAllowance;\r\n    }\r\n\r\n    function cTokenBalances(CToken cToken, address payable account) public returns (CTokenBalances memory) {\r\n        uint balanceOf = cToken.balanceOf(account);\r\n        uint borrowBalanceCurrent = cToken.borrowBalanceCurrent(account);\r\n        uint balanceOfUnderlying = cToken.balanceOfUnderlying(account);\r\n        uint tokenBalance;\r\n        uint tokenAllowance;\r\n\r\n        if (compareStrings(cToken.symbol(), \"cETH\")) {\r\n            tokenBalance = account.balance;\r\n            tokenAllowance = account.balance;\r\n        } else {\r\n            CErc20 cErc20 = CErc20(address(cToken));\r\n            EIP20Interface underlying = EIP20Interface(cErc20.underlying());\r\n            tokenBalance = underlying.balanceOf(account);\r\n            tokenAllowance = underlying.allowance(account, address(cToken));\r\n        }\r\n\r\n        return CTokenBalances({\r\n            cToken: address(cToken),\r\n            balanceOf: balanceOf,\r\n            borrowBalanceCurrent: borrowBalanceCurrent,\r\n            balanceOfUnderlying: balanceOfUnderlying,\r\n            tokenBalance: tokenBalance,\r\n            tokenAllowance: tokenAllowance\r\n        });\r\n    }\r\n\r\n    function cTokenBalancesAll(CToken[] calldata cTokens, address payable account) external returns (CTokenBalances[] memory) {\r\n        uint cTokenCount = cTokens.length;\r\n        CTokenBalances[] memory res = new CTokenBalances[](cTokenCount);\r\n        for (uint i = 0; i < cTokenCount; i++) {\r\n            res[i] = cTokenBalances(cTokens[i], account);\r\n        }\r\n        return res;\r\n    }\r\n\r\n    struct CTokenUnderlyingPrice {\r\n        address cToken;\r\n        uint underlyingPrice;\r\n    }\r\n\r\n    function cTokenUnderlyingPrice(CToken cToken) public returns (CTokenUnderlyingPrice memory) {\r\n        ComptrollerLensInterface comptroller = ComptrollerLensInterface(address(cToken.comptroller()));\r\n        PriceOracle priceOracle = comptroller.oracle();\r\n\r\n        return CTokenUnderlyingPrice({\r\n            cToken: address(cToken),\r\n            underlyingPrice: priceOracle.getUnderlyingPrice(cToken)\r\n        });\r\n    }\r\n\r\n    function cTokenUnderlyingPriceAll(CToken[] calldata cTokens) external returns (CTokenUnderlyingPrice[] memory) {\r\n        uint cTokenCount = cTokens.length;\r\n        CTokenUnderlyingPrice[] memory res = new CTokenUnderlyingPrice[](cTokenCount);\r\n        for (uint i = 0; i < cTokenCount; i++) {\r\n            res[i] = cTokenUnderlyingPrice(cTokens[i]);\r\n        }\r\n        return res;\r\n    }\r\n\r\n    struct AccountLimits {\r\n        CToken[] markets;\r\n        uint liquidity;\r\n        uint shortfall;\r\n    }\r\n\r\n    function getAccountLimits(ComptrollerLensInterface comptroller, address account) public returns (AccountLimits memory) {\r\n        (uint errorCode, uint liquidity, uint shortfall) = comptroller.getAccountLiquidity(account);\r\n        require(errorCode == 0);\r\n\r\n        return AccountLimits({\r\n            markets: comptroller.getAssetsIn(account),\r\n            liquidity: liquidity,\r\n            shortfall: shortfall\r\n        });\r\n    }\r\n\r\n    struct GovReceipt {\r\n        uint proposalId;\r\n        bool hasVoted;\r\n        bool support;\r\n        uint96 votes;\r\n    }\r\n\r\n    function getGovReceipts(GovernorAlpha governor, address voter, uint[] memory proposalIds) public view returns (GovReceipt[] memory) {\r\n        uint proposalCount = proposalIds.length;\r\n        GovReceipt[] memory res = new GovReceipt[](proposalCount);\r\n        for (uint i = 0; i < proposalCount; i++) {\r\n            GovernorAlpha.Receipt memory receipt = governor.getReceipt(proposalIds[i], voter);\r\n            res[i] = GovReceipt({\r\n                proposalId: proposalIds[i],\r\n                hasVoted: receipt.hasVoted,\r\n                support: receipt.support,\r\n                votes: receipt.votes\r\n            });\r\n        }\r\n        return res;\r\n    }\r\n\r\n    struct GovBravoReceipt {\r\n        uint proposalId;\r\n        bool hasVoted;\r\n        uint8 support;\r\n        uint96 votes;\r\n    }\r\n\r\n    function getGovBravoReceipts(GovernorBravoInterface governor, address voter, uint[] memory proposalIds) public view returns (GovBravoReceipt[] memory) {\r\n        uint proposalCount = proposalIds.length;\r\n        GovBravoReceipt[] memory res = new GovBravoReceipt[](proposalCount);\r\n        for (uint i = 0; i < proposalCount; i++) {\r\n            GovernorBravoInterface.Receipt memory receipt = governor.getReceipt(proposalIds[i], voter);\r\n            res[i] = GovBravoReceipt({\r\n                proposalId: proposalIds[i],\r\n                hasVoted: receipt.hasVoted,\r\n                support: receipt.support,\r\n                votes: receipt.votes\r\n            });\r\n        }\r\n        return res;\r\n    }\r\n\r\n    struct GovProposal {\r\n        uint proposalId;\r\n        address proposer;\r\n        uint eta;\r\n        address[] targets;\r\n        uint[] values;\r\n        string[] signatures;\r\n        bytes[] calldatas;\r\n        uint startBlock;\r\n        uint endBlock;\r\n        uint forVotes;\r\n        uint againstVotes;\r\n        bool canceled;\r\n        bool executed;\r\n    }\r\n\r\n    function setProposal(GovProposal memory res, GovernorAlpha governor, uint proposalId) internal view {\r\n        (\r\n            ,\r\n            address proposer,\r\n            uint eta,\r\n            uint startBlock,\r\n            uint endBlock,\r\n            uint forVotes,\r\n            uint againstVotes,\r\n            bool canceled,\r\n            bool executed\r\n        ) = governor.proposals(proposalId);\r\n        res.proposalId = proposalId;\r\n        res.proposer = proposer;\r\n        res.eta = eta;\r\n        res.startBlock = startBlock;\r\n        res.endBlock = endBlock;\r\n        res.forVotes = forVotes;\r\n        res.againstVotes = againstVotes;\r\n        res.canceled = canceled;\r\n        res.executed = executed;\r\n    }\r\n\r\n    function getGovProposals(GovernorAlpha governor, uint[] calldata proposalIds) external view returns (GovProposal[] memory) {\r\n        GovProposal[] memory res = new GovProposal[](proposalIds.length);\r\n        for (uint i = 0; i < proposalIds.length; i++) {\r\n            (\r\n                address[] memory targets,\r\n                uint[] memory values,\r\n                string[] memory signatures,\r\n                bytes[] memory calldatas\r\n            ) = governor.getActions(proposalIds[i]);\r\n            res[i] = GovProposal({\r\n                proposalId: 0,\r\n                proposer: address(0),\r\n                eta: 0,\r\n                targets: targets,\r\n                values: values,\r\n                signatures: signatures,\r\n                calldatas: calldatas,\r\n                startBlock: 0,\r\n                endBlock: 0,\r\n                forVotes: 0,\r\n                againstVotes: 0,\r\n                canceled: false,\r\n                executed: false\r\n            });\r\n            setProposal(res[i], governor, proposalIds[i]);\r\n        }\r\n        return res;\r\n    }\r\n\r\n    struct GovBravoProposal {\r\n        uint proposalId;\r\n        address proposer;\r\n        uint eta;\r\n        address[] targets;\r\n        uint[] values;\r\n        string[] signatures;\r\n        bytes[] calldatas;\r\n        uint startBlock;\r\n        uint endBlock;\r\n        uint forVotes;\r\n        uint againstVotes;\r\n        uint abstainVotes;\r\n        bool canceled;\r\n        bool executed;\r\n    }\r\n\r\n    function setBravoProposal(GovBravoProposal memory res, GovernorBravoInterface governor, uint proposalId) internal view {\r\n        GovernorBravoInterface.Proposal memory p = governor.proposals(proposalId);\r\n\r\n        res.proposalId = proposalId;\r\n        res.proposer = p.proposer;\r\n        res.eta = p.eta;\r\n        res.startBlock = p.startBlock;\r\n        res.endBlock = p.endBlock;\r\n        res.forVotes = p.forVotes;\r\n        res.againstVotes = p.againstVotes;\r\n        res.abstainVotes = p.abstainVotes;\r\n        res.canceled = p.canceled;\r\n        res.executed = p.executed;\r\n    }\r\n\r\n    function getGovBravoProposals(GovernorBravoInterface governor, uint[] calldata proposalIds) external view returns (GovBravoProposal[] memory) {\r\n        GovBravoProposal[] memory res = new GovBravoProposal[](proposalIds.length);\r\n        for (uint i = 0; i < proposalIds.length; i++) {\r\n            (\r\n                address[] memory targets,\r\n                uint[] memory values,\r\n                string[] memory signatures,\r\n                bytes[] memory calldatas\r\n            ) = governor.getActions(proposalIds[i]);\r\n            res[i] = GovBravoProposal({\r\n                proposalId: 0,\r\n                proposer: address(0),\r\n                eta: 0,\r\n                targets: targets,\r\n                values: values,\r\n                signatures: signatures,\r\n                calldatas: calldatas,\r\n                startBlock: 0,\r\n                endBlock: 0,\r\n                forVotes: 0,\r\n                againstVotes: 0,\r\n                abstainVotes: 0,\r\n                canceled: false,\r\n                executed: false\r\n            });\r\n            setBravoProposal(res[i], governor, proposalIds[i]);\r\n        }\r\n        return res;\r\n    }\r\n\r\n    struct CompBalanceMetadata {\r\n        uint balance;\r\n        uint votes;\r\n        address delegate;\r\n    }\r\n\r\n    function getCompBalanceMetadata(Comp comp, address account) external view returns (CompBalanceMetadata memory) {\r\n        return CompBalanceMetadata({\r\n            balance: comp.balanceOf(account),\r\n            votes: uint256(comp.getCurrentVotes(account)),\r\n            delegate: comp.delegates(account)\r\n        });\r\n    }\r\n\r\n    struct CompBalanceMetadataExt {\r\n        uint balance;\r\n        uint votes;\r\n        address delegate;\r\n        uint allocated;\r\n    }\r\n\r\n    function getCompBalanceMetadataExt(Comp comp, ComptrollerLensInterface comptroller, address account) external returns (CompBalanceMetadataExt memory) {\r\n        uint balance = comp.balanceOf(account);\r\n        comptroller.claimComp(account);\r\n        uint newBalance = comp.balanceOf(account);\r\n        uint accrued = comptroller.compAccrued(account);\r\n        uint total = add(accrued, newBalance, \"sum comp total\");\r\n        uint allocated = sub(total, balance, \"sub allocated\");\r\n\r\n        return CompBalanceMetadataExt({\r\n            balance: balance,\r\n            votes: uint256(comp.getCurrentVotes(account)),\r\n            delegate: comp.delegates(account),\r\n            allocated: allocated\r\n        });\r\n    }\r\n\r\n    struct CompVotes {\r\n        uint blockNumber;\r\n        uint votes;\r\n    }\r\n\r\n    function getCompVotes(Comp comp, address account, uint32[] calldata blockNumbers) external view returns (CompVotes[] memory) {\r\n        CompVotes[] memory res = new CompVotes[](blockNumbers.length);\r\n        for (uint i = 0; i < blockNumbers.length; i++) {\r\n            res[i] = CompVotes({\r\n                blockNumber: uint256(blockNumbers[i]),\r\n                votes: uint256(comp.getPriorVotes(account, blockNumbers[i]))\r\n            });\r\n        }\r\n        return res;\r\n    }\r\n\r\n    function compareStrings(string memory a, string memory b) internal pure returns (bool) {\r\n        return (keccak256(abi.encodePacked((a))) == keccak256(abi.encodePacked((b))));\r\n    }\r\n\r\n    function add(uint a, uint b, string memory errorMessage) internal pure returns (uint) {\r\n        uint c = a + b;\r\n        require(c >= a, errorMessage);\r\n        return c;\r\n    }\r\n\r\n    function sub(uint a, uint b, string memory errorMessage) internal pure returns (uint) {\r\n        require(b <= a, errorMessage);\r\n        uint c = a - b;\r\n        return c;\r\n    }\r\n}\r\n",
  "sourcePath": "F:\\7-hlf-github\\compound-play\\compound\\contracts\\Lens\\CompoundLens.sol",
  "compiler": {
    "name": "solc",
    "version": "0.5.16+commit.9c3226ce.Emscripten.clang"
  },
  "schemaVersion": "3.4.3",
  "updatedAt": "2022-01-24T11:39:41.525Z",
  "devdoc": {
    "methods": {}
  },
  "userdoc": {
    "methods": {}
  }
}