{
  "contractName": "ComptrollerG2",
  "abi": [
    {
      "inputs": [],
      "payable": false,
      "stateMutability": "nonpayable",
      "type": "constructor"
    },
    {
      "anonymous": false,
      "inputs": [
        {
          "indexed": false,
          "internalType": "string",
          "name": "action",
          "type": "string"
        },
        {
          "indexed": false,
          "internalType": "bool",
          "name": "pauseState",
          "type": "bool"
        }
      ],
      "name": "ActionPaused",
      "type": "event"
    },
    {
      "anonymous": false,
      "inputs": [
        {
          "indexed": false,
          "internalType": "contract CToken",
          "name": "cToken",
          "type": "address"
        },
        {
          "indexed": false,
          "internalType": "string",
          "name": "action",
          "type": "string"
        },
        {
          "indexed": false,
          "internalType": "bool",
          "name": "pauseState",
          "type": "bool"
        }
      ],
      "name": "ActionPaused",
      "type": "event"
    },
    {
      "anonymous": false,
      "inputs": [
        {
          "indexed": false,
          "internalType": "uint256",
          "name": "error",
          "type": "uint256"
        },
        {
          "indexed": false,
          "internalType": "uint256",
          "name": "info",
          "type": "uint256"
        },
        {
          "indexed": false,
          "internalType": "uint256",
          "name": "detail",
          "type": "uint256"
        }
      ],
      "name": "Failure",
      "type": "event"
    },
    {
      "anonymous": false,
      "inputs": [
        {
          "indexed": false,
          "internalType": "contract CToken",
          "name": "cToken",
          "type": "address"
        },
        {
          "indexed": false,
          "internalType": "address",
          "name": "account",
          "type": "address"
        }
      ],
      "name": "MarketEntered",
      "type": "event"
    },
    {
      "anonymous": false,
      "inputs": [
        {
          "indexed": false,
          "internalType": "contract CToken",
          "name": "cToken",
          "type": "address"
        },
        {
          "indexed": false,
          "internalType": "address",
          "name": "account",
          "type": "address"
        }
      ],
      "name": "MarketExited",
      "type": "event"
    },
    {
      "anonymous": false,
      "inputs": [
        {
          "indexed": false,
          "internalType": "contract CToken",
          "name": "cToken",
          "type": "address"
        }
      ],
      "name": "MarketListed",
      "type": "event"
    },
    {
      "anonymous": false,
      "inputs": [
        {
          "indexed": false,
          "internalType": "uint256",
          "name": "oldCloseFactorMantissa",
          "type": "uint256"
        },
        {
          "indexed": false,
          "internalType": "uint256",
          "name": "newCloseFactorMantissa",
          "type": "uint256"
        }
      ],
      "name": "NewCloseFactor",
      "type": "event"
    },
    {
      "anonymous": false,
      "inputs": [
        {
          "indexed": false,
          "internalType": "contract CToken",
          "name": "cToken",
          "type": "address"
        },
        {
          "indexed": false,
          "internalType": "uint256",
          "name": "oldCollateralFactorMantissa",
          "type": "uint256"
        },
        {
          "indexed": false,
          "internalType": "uint256",
          "name": "newCollateralFactorMantissa",
          "type": "uint256"
        }
      ],
      "name": "NewCollateralFactor",
      "type": "event"
    },
    {
      "anonymous": false,
      "inputs": [
        {
          "indexed": false,
          "internalType": "uint256",
          "name": "oldLiquidationIncentiveMantissa",
          "type": "uint256"
        },
        {
          "indexed": false,
          "internalType": "uint256",
          "name": "newLiquidationIncentiveMantissa",
          "type": "uint256"
        }
      ],
      "name": "NewLiquidationIncentive",
      "type": "event"
    },
    {
      "anonymous": false,
      "inputs": [
        {
          "indexed": false,
          "internalType": "uint256",
          "name": "oldMaxAssets",
          "type": "uint256"
        },
        {
          "indexed": false,
          "internalType": "uint256",
          "name": "newMaxAssets",
          "type": "uint256"
        }
      ],
      "name": "NewMaxAssets",
      "type": "event"
    },
    {
      "anonymous": false,
      "inputs": [
        {
          "indexed": false,
          "internalType": "address",
          "name": "oldPauseGuardian",
          "type": "address"
        },
        {
          "indexed": false,
          "internalType": "address",
          "name": "newPauseGuardian",
          "type": "address"
        }
      ],
      "name": "NewPauseGuardian",
      "type": "event"
    },
    {
      "anonymous": false,
      "inputs": [
        {
          "indexed": false,
          "internalType": "contract PriceOracle",
          "name": "oldPriceOracle",
          "type": "address"
        },
        {
          "indexed": false,
          "internalType": "contract PriceOracle",
          "name": "newPriceOracle",
          "type": "address"
        }
      ],
      "name": "NewPriceOracle",
      "type": "event"
    },
    {
      "constant": true,
      "inputs": [],
      "name": "_borrowGuardianPaused",
      "outputs": [
        {
          "internalType": "bool",
          "name": "",
          "type": "bool"
        }
      ],
      "payable": false,
      "stateMutability": "view",
      "type": "function"
    },
    {
      "constant": true,
      "inputs": [],
      "name": "_mintGuardianPaused",
      "outputs": [
        {
          "internalType": "bool",
          "name": "",
          "type": "bool"
        }
      ],
      "payable": false,
      "stateMutability": "view",
      "type": "function"
    },
    {
      "constant": true,
      "inputs": [
        {
          "internalType": "address",
          "name": "",
          "type": "address"
        },
        {
          "internalType": "uint256",
          "name": "",
          "type": "uint256"
        }
      ],
      "name": "accountAssets",
      "outputs": [
        {
          "internalType": "contract CToken",
          "name": "",
          "type": "address"
        }
      ],
      "payable": false,
      "stateMutability": "view",
      "type": "function"
    },
    {
      "constant": true,
      "inputs": [],
      "name": "admin",
      "outputs": [
        {
          "internalType": "address",
          "name": "",
          "type": "address"
        }
      ],
      "payable": false,
      "stateMutability": "view",
      "type": "function"
    },
    {
      "constant": true,
      "inputs": [
        {
          "internalType": "address",
          "name": "",
          "type": "address"
        }
      ],
      "name": "borrowGuardianPaused",
      "outputs": [
        {
          "internalType": "bool",
          "name": "",
          "type": "bool"
        }
      ],
      "payable": false,
      "stateMutability": "view",
      "type": "function"
    },
    {
      "constant": true,
      "inputs": [],
      "name": "closeFactorMantissa",
      "outputs": [
        {
          "internalType": "uint256",
          "name": "",
          "type": "uint256"
        }
      ],
      "payable": false,
      "stateMutability": "view",
      "type": "function"
    },
    {
      "constant": true,
      "inputs": [],
      "name": "comptrollerImplementation",
      "outputs": [
        {
          "internalType": "address",
          "name": "",
          "type": "address"
        }
      ],
      "payable": false,
      "stateMutability": "view",
      "type": "function"
    },
    {
      "constant": true,
      "inputs": [],
      "name": "isComptroller",
      "outputs": [
        {
          "internalType": "bool",
          "name": "",
          "type": "bool"
        }
      ],
      "payable": false,
      "stateMutability": "view",
      "type": "function"
    },
    {
      "constant": true,
      "inputs": [],
      "name": "liquidationIncentiveMantissa",
      "outputs": [
        {
          "internalType": "uint256",
          "name": "",
          "type": "uint256"
        }
      ],
      "payable": false,
      "stateMutability": "view",
      "type": "function"
    },
    {
      "constant": true,
      "inputs": [
        {
          "internalType": "address",
          "name": "",
          "type": "address"
        }
      ],
      "name": "markets",
      "outputs": [
        {
          "internalType": "bool",
          "name": "isListed",
          "type": "bool"
        },
        {
          "internalType": "uint256",
          "name": "collateralFactorMantissa",
          "type": "uint256"
        },
        {
          "internalType": "bool",
          "name": "isComped",
          "type": "bool"
        }
      ],
      "payable": false,
      "stateMutability": "view",
      "type": "function"
    },
    {
      "constant": true,
      "inputs": [],
      "name": "maxAssets",
      "outputs": [
        {
          "internalType": "uint256",
          "name": "",
          "type": "uint256"
        }
      ],
      "payable": false,
      "stateMutability": "view",
      "type": "function"
    },
    {
      "constant": true,
      "inputs": [
        {
          "internalType": "address",
          "name": "",
          "type": "address"
        }
      ],
      "name": "mintGuardianPaused",
      "outputs": [
        {
          "internalType": "bool",
          "name": "",
          "type": "bool"
        }
      ],
      "payable": false,
      "stateMutability": "view",
      "type": "function"
    },
    {
      "constant": true,
      "inputs": [],
      "name": "oracle",
      "outputs": [
        {
          "internalType": "contract PriceOracle",
          "name": "",
          "type": "address"
        }
      ],
      "payable": false,
      "stateMutability": "view",
      "type": "function"
    },
    {
      "constant": true,
      "inputs": [],
      "name": "pauseGuardian",
      "outputs": [
        {
          "internalType": "address",
          "name": "",
          "type": "address"
        }
      ],
      "payable": false,
      "stateMutability": "view",
      "type": "function"
    },
    {
      "constant": true,
      "inputs": [],
      "name": "pendingAdmin",
      "outputs": [
        {
          "internalType": "address",
          "name": "",
          "type": "address"
        }
      ],
      "payable": false,
      "stateMutability": "view",
      "type": "function"
    },
    {
      "constant": true,
      "inputs": [],
      "name": "pendingComptrollerImplementation",
      "outputs": [
        {
          "internalType": "address",
          "name": "",
          "type": "address"
        }
      ],
      "payable": false,
      "stateMutability": "view",
      "type": "function"
    },
    {
      "constant": true,
      "inputs": [],
      "name": "seizeGuardianPaused",
      "outputs": [
        {
          "internalType": "bool",
          "name": "",
          "type": "bool"
        }
      ],
      "payable": false,
      "stateMutability": "view",
      "type": "function"
    },
    {
      "constant": true,
      "inputs": [],
      "name": "transferGuardianPaused",
      "outputs": [
        {
          "internalType": "bool",
          "name": "",
          "type": "bool"
        }
      ],
      "payable": false,
      "stateMutability": "view",
      "type": "function"
    },
    {
      "constant": true,
      "inputs": [
        {
          "internalType": "address",
          "name": "account",
          "type": "address"
        }
      ],
      "name": "getAssetsIn",
      "outputs": [
        {
          "internalType": "contract CToken[]",
          "name": "",
          "type": "address[]"
        }
      ],
      "payable": false,
      "stateMutability": "view",
      "type": "function"
    },
    {
      "constant": true,
      "inputs": [
        {
          "internalType": "address",
          "name": "account",
          "type": "address"
        },
        {
          "internalType": "contract CToken",
          "name": "cToken",
          "type": "address"
        }
      ],
      "name": "checkMembership",
      "outputs": [
        {
          "internalType": "bool",
          "name": "",
          "type": "bool"
        }
      ],
      "payable": false,
      "stateMutability": "view",
      "type": "function"
    },
    {
      "constant": false,
      "inputs": [
        {
          "internalType": "address[]",
          "name": "cTokens",
          "type": "address[]"
        }
      ],
      "name": "enterMarkets",
      "outputs": [
        {
          "internalType": "uint256[]",
          "name": "",
          "type": "uint256[]"
        }
      ],
      "payable": false,
      "stateMutability": "nonpayable",
      "type": "function"
    },
    {
      "constant": false,
      "inputs": [
        {
          "internalType": "address",
          "name": "cTokenAddress",
          "type": "address"
        }
      ],
      "name": "exitMarket",
      "outputs": [
        {
          "internalType": "uint256",
          "name": "",
          "type": "uint256"
        }
      ],
      "payable": false,
      "stateMutability": "nonpayable",
      "type": "function"
    },
    {
      "constant": false,
      "inputs": [
        {
          "internalType": "address",
          "name": "cToken",
          "type": "address"
        },
        {
          "internalType": "address",
          "name": "minter",
          "type": "address"
        },
        {
          "internalType": "uint256",
          "name": "mintAmount",
          "type": "uint256"
        }
      ],
      "name": "mintAllowed",
      "outputs": [
        {
          "internalType": "uint256",
          "name": "",
          "type": "uint256"
        }
      ],
      "payable": false,
      "stateMutability": "nonpayable",
      "type": "function"
    },
    {
      "constant": false,
      "inputs": [
        {
          "internalType": "address",
          "name": "cToken",
          "type": "address"
        },
        {
          "internalType": "address",
          "name": "minter",
          "type": "address"
        },
        {
          "internalType": "uint256",
          "name": "actualMintAmount",
          "type": "uint256"
        },
        {
          "internalType": "uint256",
          "name": "mintTokens",
          "type": "uint256"
        }
      ],
      "name": "mintVerify",
      "outputs": [],
      "payable": false,
      "stateMutability": "nonpayable",
      "type": "function"
    },
    {
      "constant": false,
      "inputs": [
        {
          "internalType": "address",
          "name": "cToken",
          "type": "address"
        },
        {
          "internalType": "address",
          "name": "redeemer",
          "type": "address"
        },
        {
          "internalType": "uint256",
          "name": "redeemTokens",
          "type": "uint256"
        }
      ],
      "name": "redeemAllowed",
      "outputs": [
        {
          "internalType": "uint256",
          "name": "",
          "type": "uint256"
        }
      ],
      "payable": false,
      "stateMutability": "nonpayable",
      "type": "function"
    },
    {
      "constant": false,
      "inputs": [
        {
          "internalType": "address",
          "name": "cToken",
          "type": "address"
        },
        {
          "internalType": "address",
          "name": "redeemer",
          "type": "address"
        },
        {
          "internalType": "uint256",
          "name": "redeemAmount",
          "type": "uint256"
        },
        {
          "internalType": "uint256",
          "name": "redeemTokens",
          "type": "uint256"
        }
      ],
      "name": "redeemVerify",
      "outputs": [],
      "payable": false,
      "stateMutability": "nonpayable",
      "type": "function"
    },
    {
      "constant": false,
      "inputs": [
        {
          "internalType": "address",
          "name": "cToken",
          "type": "address"
        },
        {
          "internalType": "address",
          "name": "borrower",
          "type": "address"
        },
        {
          "internalType": "uint256",
          "name": "borrowAmount",
          "type": "uint256"
        }
      ],
      "name": "borrowAllowed",
      "outputs": [
        {
          "internalType": "uint256",
          "name": "",
          "type": "uint256"
        }
      ],
      "payable": false,
      "stateMutability": "nonpayable",
      "type": "function"
    },
    {
      "constant": false,
      "inputs": [
        {
          "internalType": "address",
          "name": "cToken",
          "type": "address"
        },
        {
          "internalType": "address",
          "name": "borrower",
          "type": "address"
        },
        {
          "internalType": "uint256",
          "name": "borrowAmount",
          "type": "uint256"
        }
      ],
      "name": "borrowVerify",
      "outputs": [],
      "payable": false,
      "stateMutability": "nonpayable",
      "type": "function"
    },
    {
      "constant": false,
      "inputs": [
        {
          "internalType": "address",
          "name": "cToken",
          "type": "address"
        },
        {
          "internalType": "address",
          "name": "payer",
          "type": "address"
        },
        {
          "internalType": "address",
          "name": "borrower",
          "type": "address"
        },
        {
          "internalType": "uint256",
          "name": "repayAmount",
          "type": "uint256"
        }
      ],
      "name": "repayBorrowAllowed",
      "outputs": [
        {
          "internalType": "uint256",
          "name": "",
          "type": "uint256"
        }
      ],
      "payable": false,
      "stateMutability": "nonpayable",
      "type": "function"
    },
    {
      "constant": false,
      "inputs": [
        {
          "internalType": "address",
          "name": "cToken",
          "type": "address"
        },
        {
          "internalType": "address",
          "name": "payer",
          "type": "address"
        },
        {
          "internalType": "address",
          "name": "borrower",
          "type": "address"
        },
        {
          "internalType": "uint256",
          "name": "actualRepayAmount",
          "type": "uint256"
        },
        {
          "internalType": "uint256",
          "name": "borrowerIndex",
          "type": "uint256"
        }
      ],
      "name": "repayBorrowVerify",
      "outputs": [],
      "payable": false,
      "stateMutability": "nonpayable",
      "type": "function"
    },
    {
      "constant": false,
      "inputs": [
        {
          "internalType": "address",
          "name": "cTokenBorrowed",
          "type": "address"
        },
        {
          "internalType": "address",
          "name": "cTokenCollateral",
          "type": "address"
        },
        {
          "internalType": "address",
          "name": "liquidator",
          "type": "address"
        },
        {
          "internalType": "address",
          "name": "borrower",
          "type": "address"
        },
        {
          "internalType": "uint256",
          "name": "repayAmount",
          "type": "uint256"
        }
      ],
      "name": "liquidateBorrowAllowed",
      "outputs": [
        {
          "internalType": "uint256",
          "name": "",
          "type": "uint256"
        }
      ],
      "payable": false,
      "stateMutability": "nonpayable",
      "type": "function"
    },
    {
      "constant": false,
      "inputs": [
        {
          "internalType": "address",
          "name": "cTokenBorrowed",
          "type": "address"
        },
        {
          "internalType": "address",
          "name": "cTokenCollateral",
          "type": "address"
        },
        {
          "internalType": "address",
          "name": "liquidator",
          "type": "address"
        },
        {
          "internalType": "address",
          "name": "borrower",
          "type": "address"
        },
        {
          "internalType": "uint256",
          "name": "actualRepayAmount",
          "type": "uint256"
        },
        {
          "internalType": "uint256",
          "name": "seizeTokens",
          "type": "uint256"
        }
      ],
      "name": "liquidateBorrowVerify",
      "outputs": [],
      "payable": false,
      "stateMutability": "nonpayable",
      "type": "function"
    },
    {
      "constant": false,
      "inputs": [
        {
          "internalType": "address",
          "name": "cTokenCollateral",
          "type": "address"
        },
        {
          "internalType": "address",
          "name": "cTokenBorrowed",
          "type": "address"
        },
        {
          "internalType": "address",
          "name": "liquidator",
          "type": "address"
        },
        {
          "internalType": "address",
          "name": "borrower",
          "type": "address"
        },
        {
          "internalType": "uint256",
          "name": "seizeTokens",
          "type": "uint256"
        }
      ],
      "name": "seizeAllowed",
      "outputs": [
        {
          "internalType": "uint256",
          "name": "",
          "type": "uint256"
        }
      ],
      "payable": false,
      "stateMutability": "nonpayable",
      "type": "function"
    },
    {
      "constant": false,
      "inputs": [
        {
          "internalType": "address",
          "name": "cTokenCollateral",
          "type": "address"
        },
        {
          "internalType": "address",
          "name": "cTokenBorrowed",
          "type": "address"
        },
        {
          "internalType": "address",
          "name": "liquidator",
          "type": "address"
        },
        {
          "internalType": "address",
          "name": "borrower",
          "type": "address"
        },
        {
          "internalType": "uint256",
          "name": "seizeTokens",
          "type": "uint256"
        }
      ],
      "name": "seizeVerify",
      "outputs": [],
      "payable": false,
      "stateMutability": "nonpayable",
      "type": "function"
    },
    {
      "constant": false,
      "inputs": [
        {
          "internalType": "address",
          "name": "cToken",
          "type": "address"
        },
        {
          "internalType": "address",
          "name": "src",
          "type": "address"
        },
        {
          "internalType": "address",
          "name": "dst",
          "type": "address"
        },
        {
          "internalType": "uint256",
          "name": "transferTokens",
          "type": "uint256"
        }
      ],
      "name": "transferAllowed",
      "outputs": [
        {
          "internalType": "uint256",
          "name": "",
          "type": "uint256"
        }
      ],
      "payable": false,
      "stateMutability": "nonpayable",
      "type": "function"
    },
    {
      "constant": false,
      "inputs": [
        {
          "internalType": "address",
          "name": "cToken",
          "type": "address"
        },
        {
          "internalType": "address",
          "name": "src",
          "type": "address"
        },
        {
          "internalType": "address",
          "name": "dst",
          "type": "address"
        },
        {
          "internalType": "uint256",
          "name": "transferTokens",
          "type": "uint256"
        }
      ],
      "name": "transferVerify",
      "outputs": [],
      "payable": false,
      "stateMutability": "nonpayable",
      "type": "function"
    },
    {
      "constant": true,
      "inputs": [
        {
          "internalType": "address",
          "name": "account",
          "type": "address"
        }
      ],
      "name": "getAccountLiquidity",
      "outputs": [
        {
          "internalType": "uint256",
          "name": "",
          "type": "uint256"
        },
        {
          "internalType": "uint256",
          "name": "",
          "type": "uint256"
        },
        {
          "internalType": "uint256",
          "name": "",
          "type": "uint256"
        }
      ],
      "payable": false,
      "stateMutability": "view",
      "type": "function"
    },
    {
      "constant": true,
      "inputs": [
        {
          "internalType": "address",
          "name": "account",
          "type": "address"
        },
        {
          "internalType": "address",
          "name": "cTokenModify",
          "type": "address"
        },
        {
          "internalType": "uint256",
          "name": "redeemTokens",
          "type": "uint256"
        },
        {
          "internalType": "uint256",
          "name": "borrowAmount",
          "type": "uint256"
        }
      ],
      "name": "getHypotheticalAccountLiquidity",
      "outputs": [
        {
          "internalType": "uint256",
          "name": "",
          "type": "uint256"
        },
        {
          "internalType": "uint256",
          "name": "",
          "type": "uint256"
        },
        {
          "internalType": "uint256",
          "name": "",
          "type": "uint256"
        }
      ],
      "payable": false,
      "stateMutability": "view",
      "type": "function"
    },
    {
      "constant": true,
      "inputs": [
        {
          "internalType": "address",
          "name": "cTokenBorrowed",
          "type": "address"
        },
        {
          "internalType": "address",
          "name": "cTokenCollateral",
          "type": "address"
        },
        {
          "internalType": "uint256",
          "name": "actualRepayAmount",
          "type": "uint256"
        }
      ],
      "name": "liquidateCalculateSeizeTokens",
      "outputs": [
        {
          "internalType": "uint256",
          "name": "",
          "type": "uint256"
        },
        {
          "internalType": "uint256",
          "name": "",
          "type": "uint256"
        }
      ],
      "payable": false,
      "stateMutability": "view",
      "type": "function"
    },
    {
      "constant": false,
      "inputs": [
        {
          "internalType": "contract PriceOracle",
          "name": "newOracle",
          "type": "address"
        }
      ],
      "name": "_setPriceOracle",
      "outputs": [
        {
          "internalType": "uint256",
          "name": "",
          "type": "uint256"
        }
      ],
      "payable": false,
      "stateMutability": "nonpayable",
      "type": "function"
    },
    {
      "constant": false,
      "inputs": [
        {
          "internalType": "uint256",
          "name": "newCloseFactorMantissa",
          "type": "uint256"
        }
      ],
      "name": "_setCloseFactor",
      "outputs": [
        {
          "internalType": "uint256",
          "name": "",
          "type": "uint256"
        }
      ],
      "payable": false,
      "stateMutability": "nonpayable",
      "type": "function"
    },
    {
      "constant": false,
      "inputs": [
        {
          "internalType": "contract CToken",
          "name": "cToken",
          "type": "address"
        },
        {
          "internalType": "uint256",
          "name": "newCollateralFactorMantissa",
          "type": "uint256"
        }
      ],
      "name": "_setCollateralFactor",
      "outputs": [
        {
          "internalType": "uint256",
          "name": "",
          "type": "uint256"
        }
      ],
      "payable": false,
      "stateMutability": "nonpayable",
      "type": "function"
    },
    {
      "constant": false,
      "inputs": [
        {
          "internalType": "uint256",
          "name": "newMaxAssets",
          "type": "uint256"
        }
      ],
      "name": "_setMaxAssets",
      "outputs": [
        {
          "internalType": "uint256",
          "name": "",
          "type": "uint256"
        }
      ],
      "payable": false,
      "stateMutability": "nonpayable",
      "type": "function"
    },
    {
      "constant": false,
      "inputs": [
        {
          "internalType": "uint256",
          "name": "newLiquidationIncentiveMantissa",
          "type": "uint256"
        }
      ],
      "name": "_setLiquidationIncentive",
      "outputs": [
        {
          "internalType": "uint256",
          "name": "",
          "type": "uint256"
        }
      ],
      "payable": false,
      "stateMutability": "nonpayable",
      "type": "function"
    },
    {
      "constant": false,
      "inputs": [
        {
          "internalType": "contract CToken",
          "name": "cToken",
          "type": "address"
        }
      ],
      "name": "_supportMarket",
      "outputs": [
        {
          "internalType": "uint256",
          "name": "",
          "type": "uint256"
        }
      ],
      "payable": false,
      "stateMutability": "nonpayable",
      "type": "function"
    },
    {
      "constant": false,
      "inputs": [
        {
          "internalType": "address",
          "name": "newPauseGuardian",
          "type": "address"
        }
      ],
      "name": "_setPauseGuardian",
      "outputs": [
        {
          "internalType": "uint256",
          "name": "",
          "type": "uint256"
        }
      ],
      "payable": false,
      "stateMutability": "nonpayable",
      "type": "function"
    },
    {
      "constant": false,
      "inputs": [
        {
          "internalType": "contract CToken",
          "name": "cToken",
          "type": "address"
        },
        {
          "internalType": "bool",
          "name": "state",
          "type": "bool"
        }
      ],
      "name": "_setMintPaused",
      "outputs": [
        {
          "internalType": "bool",
          "name": "",
          "type": "bool"
        }
      ],
      "payable": false,
      "stateMutability": "nonpayable",
      "type": "function"
    },
    {
      "constant": false,
      "inputs": [
        {
          "internalType": "contract CToken",
          "name": "cToken",
          "type": "address"
        },
        {
          "internalType": "bool",
          "name": "state",
          "type": "bool"
        }
      ],
      "name": "_setBorrowPaused",
      "outputs": [
        {
          "internalType": "bool",
          "name": "",
          "type": "bool"
        }
      ],
      "payable": false,
      "stateMutability": "nonpayable",
      "type": "function"
    },
    {
      "constant": false,
      "inputs": [
        {
          "internalType": "bool",
          "name": "state",
          "type": "bool"
        }
      ],
      "name": "_setTransferPaused",
      "outputs": [
        {
          "internalType": "bool",
          "name": "",
          "type": "bool"
        }
      ],
      "payable": false,
      "stateMutability": "nonpayable",
      "type": "function"
    },
    {
      "constant": false,
      "inputs": [
        {
          "internalType": "bool",
          "name": "state",
          "type": "bool"
        }
      ],
      "name": "_setSeizePaused",
      "outputs": [
        {
          "internalType": "bool",
          "name": "",
          "type": "bool"
        }
      ],
      "payable": false,
      "stateMutability": "nonpayable",
      "type": "function"
    },
    {
      "constant": false,
      "inputs": [
        {
          "internalType": "contract Unitroller",
          "name": "unitroller",
          "type": "address"
        }
      ],
      "name": "_become",
      "outputs": [],
      "payable": false,
      "stateMutability": "nonpayable",
      "type": "function"
    }
  ],
  "bytecode": "0x608060405234801561001057600080fd5b50600080546001600160a01b03191633179055613500806100326000396000f3fe608060405234801561001057600080fd5b50600436106102f05760003560e01c80636d35bf911161019d578063c2998238116100e9578063dcfbc0c7116100a2578063e87554461161007c578063e875544614610b52578063eabe7d9114610b5a578063ede4edd014610b90578063f851a44014610bb6576102f0565b8063dcfbc0c714610b16578063e4028eee14610b1e578063e6653f3d14610b4a576102f0565b8063c29982381461095f578063c488847b14610a02578063d02f735114610a51578063d9226ced14610a97578063da3d454c14610ab4578063dce1544914610aea576102f0565b8063929fe9a111610156578063abfceffc11610130578063abfceffc1461089d578063ac0b0bb714610913578063bb82aa5e1461091b578063bdcdc25814610923576102f0565b8063929fe9a11461084157806394b2294b1461086f578063a76b3fda14610877576102f0565b80636d35bf911461075e578063731f0c2b146107a45780637dc0d1d0146107ca57806387f76303146107d25780638e8f294b146107da5780638ebf636414610822576102f0565b806347ef3b3b1161025c57806355ee1fe1116102155780635f5af1aa116101ef5780635f5af1aa146106905780635fc7e71e146106b65780636a56947e146106fc5780636d154ea514610738576102f0565b806355ee1fe11461060e5780635c778605146106345780635ec88c791461066a576102f0565b806347ef3b3b146104d15780634ada90af1461051d5780634e79238f146105255780634ef4c3e11461057f5780634fd42e17146105b557806351dff989146105d2576102f0565b806326782247116102ae578063267822471461041b5780632d70db7814610423578063317b0b77146104425780633bcf7ec11461045f5780633c94786f1461048d57806341c728b914610495576102f0565b80627e3dd2146102f557806318c882a5146103115780631d504dc61461033f5780631ededc911461036757806324008a62146103a957806324a3d622146103f7575b600080fd5b6102fd610bbe565b604080519115158252519081900360200190f35b6102fd6004803603604081101561032757600080fd5b506001600160a01b0381351690602001351515610bc3565b6103656004803603602081101561035557600080fd5b50356001600160a01b0316610d63565b005b610365600480360360a081101561037d57600080fd5b506001600160a01b03813581169160208101358216916040820135169060608101359060800135610ec8565b6103e5600480360360808110156103bf57600080fd5b506001600160a01b03813581169160208101358216916040820135169060600135610ecf565b60408051918252519081900360200190f35b6103ff610f05565b604080516001600160a01b039092168252519081900360200190f35b6103ff610f14565b6102fd6004803603602081101561043957600080fd5b50351515610f23565b6103e56004803603602081101561045857600080fd5b503561105d565b6102fd6004803603604081101561047557600080fd5b506001600160a01b038135169060200135151561116e565b6102fd611309565b610365600480360360808110156104ab57600080fd5b506001600160a01b03813581169160208101359091169060408101359060600135611319565b610365600480360360c08110156104e757600080fd5b506001600160a01b0381358116916020810135821691604082013581169160608101359091169060808101359060a0013561131f565b6103e5611327565b6105616004803603608081101561053b57600080fd5b506001600160a01b0381358116916020810135909116906040810135906060013561132d565b60408051938452602084019290925282820152519081900360600190f35b6103e56004803603606081101561059557600080fd5b506001600160a01b03813581169160208101359091169060400135611367565b6103e5600480360360208110156105cb57600080fd5b50356113fd565b610365600480360360808110156105e857600080fd5b506001600160a01b038135811691602081013590911690604081013590606001356114f1565b6103e56004803603602081101561062457600080fd5b50356001600160a01b0316611545565b6103656004803603606081101561064a57600080fd5b506001600160a01b038135811691602081013590911690604001356115cc565b6105616004803603602081101561068057600080fd5b50356001600160a01b03166115d1565b6103e5600480360360208110156106a657600080fd5b50356001600160a01b0316611606565b6103e5600480360360a08110156106cc57600080fd5b506001600160a01b038135811691602081013582169160408201358116916060810135909116906080013561168a565b6103656004803603608081101561071257600080fd5b506001600160a01b03813581169160208101358216916040820135169060600135611319565b6102fd6004803603602081101561074e57600080fd5b50356001600160a01b0316611811565b610365600480360360a081101561077457600080fd5b506001600160a01b0381358116916020810135821691604082013581169160608101359091169060800135610ec8565b6102fd600480360360208110156107ba57600080fd5b50356001600160a01b0316611826565b6103ff61183b565b6102fd61184a565b610800600480360360208110156107f057600080fd5b50356001600160a01b031661185a565b6040805193151584526020840192909252151582820152519081900360600190f35b6102fd6004803603602081101561083857600080fd5b50351515611880565b6102fd6004803603604081101561085757600080fd5b506001600160a01b03813581169160200135166119b9565b6103e56119ec565b6103e56004803603602081101561088d57600080fd5b50356001600160a01b03166119f2565b6108c3600480360360208110156108b357600080fd5b50356001600160a01b0316611b40565b60408051602080825283518183015283519192839290830191858101910280838360005b838110156108ff5781810151838201526020016108e7565b505050509050019250505060405180910390f35b6102fd611bc9565b6103ff611bd9565b6103e56004803603608081101561093957600080fd5b506001600160a01b03813581169160208101358216916040820135169060600135611be8565b6108c36004803603602081101561097557600080fd5b81019060208101813564010000000081111561099057600080fd5b8201836020820111156109a257600080fd5b803590602001918460208302840111640100000000831117156109c457600080fd5b919080806020026020016040519081016040528093929190818152602001838360200280828437600092019190915250929550611c4a945050505050565b610a3860048036036060811015610a1857600080fd5b506001600160a01b03813581169160208101359091169060400135611ce1565b6040805192835260208301919091528051918290030190f35b6103e5600480360360a0811015610a6757600080fd5b506001600160a01b0381358116916020810135821691604082013581169160608101359091169060800135611f56565b6103e560048036036020811015610aad57600080fd5b50356120ed565b6103e560048036036060811015610aca57600080fd5b506001600160a01b03813581169160208101359091169060400135612156565b6103ff60048036036040811015610b0057600080fd5b506001600160a01b0381351690602001356123a3565b6103ff6123d8565b6103e560048036036040811015610b3457600080fd5b506001600160a01b0381351690602001356123e7565b6102fd612597565b6103e56125a7565b6103e560048036036060811015610b7057600080fd5b506001600160a01b038135811691602081013590911690604001356125ad565b6103e560048036036020811015610ba657600080fd5b50356001600160a01b03166125ba565b6103ff6128cd565b600181565b6001600160a01b03821660009081526009602052604081205460ff16610c1a5760405162461bcd60e51b81526004018080602001828103825260288152602001806134316028913960400191505060405180910390fd5b600a546001600160a01b0316331480610c3d57506000546001600160a01b031633145b610c785760405162461bcd60e51b81526004018080602001828103825260278152602001806134596027913960400191505060405180910390fd5b6000546001600160a01b0316331480610c9357506001821515145b610cdd576040805162461bcd60e51b81526020600482015260166024820152756f6e6c792061646d696e2063616e20756e706175736560501b604482015290519081900360640190fd5b6001600160a01b0383166000818152600c6020908152604091829020805486151560ff199091168117909155825193845283830152606090830181905260069083015265426f72726f7760d01b6080830152517f71aec636243f9709bb0007ae15e9afb8150ab01716d75fd7573be5cc096e03b09181900360a00190a150805b92915050565b806001600160a01b031663f851a4406040518163ffffffff1660e01b815260040160206040518083038186803b158015610d9c57600080fd5b505afa158015610db0573d6000803e3d6000fd5b505050506040513d6020811015610dc657600080fd5b50516001600160a01b03163314610e0e5760405162461bcd60e51b81526004018080602001828103825260278152602001806134a56027913960400191505060405180910390fd5b6000816001600160a01b031663c1e803346040518163ffffffff1660e01b8152600401602060405180830381600087803b158015610e4b57600080fd5b505af1158015610e5f573d6000803e3d6000fd5b505050506040513d6020811015610e7557600080fd5b505190508015610ec4576040805162461bcd60e51b815260206004820152601560248201527418da185b99d9481b9bdd08185d5d1a1bdc9a5e9959605a1b604482015290519081900360640190fd5b5050565b5050505050565b6001600160a01b03841660009081526009602052604081205460ff16610ef757506009610efd565b60005b90505b949350505050565b600a546001600160a01b031681565b6001546001600160a01b031681565b600a546000906001600160a01b0316331480610f4957506000546001600160a01b031633145b610f845760405162461bcd60e51b81526004018080602001828103825260278152602001806134596027913960400191505060405180910390fd5b6000546001600160a01b0316331480610f9f57506001821515145b610fe9576040805162461bcd60e51b81526020600482015260166024820152756f6e6c792061646d696e2063616e20756e706175736560501b604482015290519081900360640190fd5b600a8054831515600160b81b810260ff60b81b1990921691909117909155604080516020810192909252808252600582820152645365697a6560d81b6060830152517fef159d9a32b2472e32b098f954f3ce62d232939f1c207070b584df1814de2de09181900360800190a150805b919050565b600080546001600160a01b031633146110835761107c600160046128dc565b9050611058565b61108b61336e565b5060408051602081019091528281526110a261336e565b50604080516020810190915266b1a2bc2ec5000081526110c28282612942565b156110db576110d26005806128dc565b92505050611058565b6110e361336e565b506040805160208101909152670c7d713b49da00008152611104818461294a565b1561111e576111146005806128dc565b9350505050611058565b6005805490869055604080518281526020810188905281517f3b9670cf975d26958e754b57098eaa2ac914d8d2a31b83257997b9f346110fd9929181900390910190a160005b9695505050505050565b6001600160a01b03821660009081526009602052604081205460ff166111c55760405162461bcd60e51b81526004018080602001828103825260288152602001806134316028913960400191505060405180910390fd5b600a546001600160a01b03163314806111e857506000546001600160a01b031633145b6112235760405162461bcd60e51b81526004018080602001828103825260278152602001806134596027913960400191505060405180910390fd5b6000546001600160a01b031633148061123e57506001821515145b611288576040805162461bcd60e51b81526020600482015260166024820152756f6e6c792061646d696e2063616e20756e706175736560501b604482015290519081900360640190fd5b6001600160a01b0383166000818152600b6020908152604091829020805486151560ff199091168117909155825193845283830152606090830181905260049083015263135a5b9d60e21b6080830152517f71aec636243f9709bb0007ae15e9afb8150ab01716d75fd7573be5cc096e03b09181900360a00190a150919050565b600a54600160a01b900460ff1681565b50505050565b505050505050565b60065481565b6000806000806000806113428a8a8a8a612951565b92509250925082601181111561135457fe5b95509093509150505b9450945094915050565b6001600160a01b0383166000908152600b602052604081205460ff16156113c6576040805162461bcd60e51b815260206004820152600e60248201526d1b5a5b9d081a5cc81c185d5cd95960921b604482015290519081900360640190fd5b6001600160a01b03841660009081526009602052604090205460ff166113f05760095b90506113f6565b60005b90505b9392505050565b600080546001600160a01b0316331461141c5761107c6001600b6128dc565b61142461336e565b50604080516020810190915282815261143b61336e565b506040805160208101909152670de0b6b3a7640000815261145c828261294a565b1561146d576110d26007600c6128dc565b61147561336e565b5060408051602081019091526714d1120d7b1600008152611496818461294a565b156114a7576111146007600c6128dc565b6006805490869055604080518281526020810188905281517faeba5a6c40a8ac138134bff1aaa65debf25971188a58804bad717f82f0ec1316929181900390910190a16000611164565b801580156114ff5750600082115b15611319576040805162461bcd60e51b815260206004820152601160248201527072656465656d546f6b656e73207a65726f60781b604482015290519081900360640190fd5b600080546001600160a01b031633146115645761107c600160106128dc565b600480546001600160a01b038481166001600160a01b0319831681179093556040805191909216808252602082019390935281517fd52b2b9b7e9ee655fcb95d2e5b9e0c9f69e7ef2b8e9d2d0ea78402d576d22e22929181900390910190a160009392505050565b505050565b6000806000806000806115e8876000806000612951565b9250925092508260118111156115fa57fe5b97919650945092505050565b600080546001600160a01b031633146116255761107c600160136128dc565b600a80546001600160a01b038481166001600160a01b0319831617928390556040805192821680845293909116602083015280517f0613b6ee6a04f0d09f390e4d9318894b9f6ac7fd83897cd8d18896ba579c401e9281900390910190a160006113f6565b6001600160a01b03851660009081526009602052604081205460ff1615806116cb57506001600160a01b03851660009081526009602052604090205460ff16155b156116da5760095b9050611808565b6000806116e685612d6c565b919350909150600090508260118111156116fc57fe5b146117165781601181111561170d57fe5b92505050611808565b8061172257600361170d565b6000886001600160a01b03166395dd9193876040518263ffffffff1660e01b815260040180826001600160a01b03166001600160a01b0316815260200191505060206040518083038186803b15801561177a57600080fd5b505afa15801561178e573d6000803e3d6000fd5b505050506040513d60208110156117a457600080fd5b50516040805160208101909152600554815290915060009081906117c89084612d8c565b909250905060008260038111156117db57fe5b146117ef57600b5b95505050505050611808565b808711156117fe5760116117e3565b6000955050505050505b95945050505050565b600c6020526000908152604090205460ff1681565b600b6020526000908152604090205460ff1681565b6004546001600160a01b031681565b600a54600160b01b900460ff1681565b60096020526000908152604090208054600182015460039092015460ff91821692911683565b600a546000906001600160a01b03163314806118a657506000546001600160a01b031633145b6118e15760405162461bcd60e51b81526004018080602001828103825260278152602001806134596027913960400191505060405180910390fd5b6000546001600160a01b03163314806118fc57506001821515145b611946576040805162461bcd60e51b81526020600482015260166024820152756f6e6c792061646d696e2063616e20756e706175736560501b604482015290519081900360640190fd5b600a8054831515600160b01b810260ff60b01b1990921691909117909155604080516020810192909252808252600882820152672a3930b739b332b960c11b6060830152517fef159d9a32b2472e32b098f954f3ce62d232939f1c207070b584df1814de2de09181900360800190a15090565b6001600160a01b038082166000908152600960209081526040808320938616835260029093019052205460ff1692915050565b60075481565b600080546001600160a01b03163314611a115761107c600160126128dc565b6001600160a01b03821660009081526009602052604090205460ff1615611a3e5761107c600a60116128dc565b816001600160a01b031663fe9c44ae6040518163ffffffff1660e01b815260040160206040518083038186803b158015611a7757600080fd5b505afa158015611a8b573d6000803e3d6000fd5b505050506040513d6020811015611aa157600080fd5b5050604080516060810182526001808252600060208381018281528486018381526001600160a01b03891680855260098452938790209551865490151560ff199182161787559151948601949094559251600390940180549415159490931693909317909155825190815291517fcf583bb0c569eb967f806b11601c4cb93c10310485c67add5f8362c2f212321f9281900390910190a1600092915050565b60608060086000846001600160a01b03166001600160a01b03168152602001908152602001600020805480602002602001604051908101604052809291908181526020018280548015611bbc57602002820191906000526020600020905b81546001600160a01b03168152600190910190602001808311611b9e575b5093979650505050505050565b600a54600160b81b900460ff1681565b6002546001600160a01b031681565b600a54600090600160b01b900460ff1615611c3f576040805162461bcd60e51b81526020600482015260126024820152711d1c985b9cd9995c881a5cc81c185d5cd95960721b604482015290519081900360640190fd5b610efa858584612de0565b6060600082519050606081604051908082528060200260200182016040528015611c7e578160200160208202803883390190505b50905060005b82811015611cd9576000858281518110611c9a57fe5b60200260200101519050611cae8133612e4f565b6011811115611cb957fe5b838381518110611cc557fe5b602090810291909101015250600101611c84565b509392505050565b600480546040805163fc57d4df60e01b81526001600160a01b038781169482019490945290516000938493849391169163fc57d4df91602480820192602092909190829003018186803b158015611d3757600080fd5b505afa158015611d4b573d6000803e3d6000fd5b505050506040513d6020811015611d6157600080fd5b5051600480546040805163fc57d4df60e01b81526001600160a01b038a8116948201949094529051939450600093929091169163fc57d4df91602480820192602092909190829003018186803b158015611dba57600080fd5b505afa158015611dce573d6000803e3d6000fd5b505050506040513d6020811015611de457600080fd5b50519050811580611df3575080155b15611e0857600d935060009250611f4e915050565b6000866001600160a01b031663182df0f56040518163ffffffff1660e01b815260040160206040518083038186803b158015611e4357600080fd5b505afa158015611e57573d6000803e3d6000fd5b505050506040513d6020811015611e6d57600080fd5b505190506000611e7b61336e565b611e8361336e565b611e8b61336e565b6000611e9960065489612f70565b945090506000816003811115611eab57fe5b14611ec757600b5b995060009850611f4e975050505050505050565b611ed18787612f70565b935090506000816003811115611ee357fe5b14611eef57600b611eb3565b611ef98484612fab565b925090506000816003811115611f0b57fe5b14611f1757600b611eb3565b611f21828c612d8c565b955090506000816003811115611f3357fe5b14611f3f57600b611eb3565b60009950939750505050505050505b935093915050565b600a54600090600160b81b900460ff1615611faa576040805162461bcd60e51b815260206004820152600f60248201526e1cd95a5e99481a5cc81c185d5cd959608a1b604482015290519081900360640190fd5b6001600160a01b03861660009081526009602052604090205460ff161580611feb57506001600160a01b03851660009081526009602052604090205460ff16155b15611ff75760096116d3565b846001600160a01b0316635fe3b5676040518163ffffffff1660e01b815260040160206040518083038186803b15801561203057600080fd5b505afa158015612044573d6000803e3d6000fd5b505050506040513d602081101561205a57600080fd5b505160408051635fe3b56760e01b815290516001600160a01b0392831692891691635fe3b567916004808301926020929190829003018186803b1580156120a057600080fd5b505afa1580156120b4573d6000803e3d6000fd5b505050506040513d60208110156120ca57600080fd5b50516001600160a01b0316146120e15760026116d3565b60009695505050505050565b600080546001600160a01b0316331461210c5761107c6001600d6128dc565b6007805490839055604080518281526020810185905281517f7093cf1eb653f749c3ff531d6df7f92764536a7fa0d13530cd26e070780c32ea929181900390910190a160006113f6565b6001600160a01b0383166000908152600c602052604081205460ff16156121b7576040805162461bcd60e51b815260206004820152601060248201526f189bdc9c9bddc81a5cc81c185d5cd95960821b604482015290519081900360640190fd5b6001600160a01b03841660009081526009602052604090205460ff166121de5760096113e9565b6001600160a01b038085166000908152600960209081526040808320938716835260029093019052205460ff166122ce57336001600160a01b03851614612264576040805162461bcd60e51b815260206004820152601560248201527439b2b73232b91036bab9ba1031329031aa37b5b2b760591b604482015290519081900360640190fd5b60006122703385612e4f565b9050600081601181111561228057fe5b146122995780601181111561229157fe5b9150506113f6565b6001600160a01b038086166000908152600960209081526040808320938816835260029093019052205460ff166122cc57fe5b505b600480546040805163fc57d4df60e01b81526001600160a01b03888116948201949094529051929091169163fc57d4df91602480820192602092909190829003018186803b15801561231f57600080fd5b505afa158015612333573d6000803e3d6000fd5b505050506040513d602081101561234957600080fd5b505161235657600d6113e9565b6000806123668587600087612951565b9193509091506000905082601181111561237c57fe5b146123965781601181111561238d57fe5b925050506113f6565b80156120e157600461238d565b600860205281600052604060002081815481106123bc57fe5b6000918252602090912001546001600160a01b03169150829050565b6003546001600160a01b031681565b600080546001600160a01b0316331461240d57612406600160066128dc565b9050610d5d565b6001600160a01b0383166000908152600960205260409020805460ff166124425761243a600960076128dc565b915050610d5d565b61244a61336e565b50604080516020810190915283815261246161336e565b506040805160208101909152670c7d713b49da00008152612482818361294a565b1561249d57612493600660086128dc565b9350505050610d5d565b84158015906125265750600480546040805163fc57d4df60e01b81526001600160a01b038a8116948201949094529051929091169163fc57d4df91602480820192602092909190829003018186803b1580156124f857600080fd5b505afa15801561250c573d6000803e3d6000fd5b505050506040513d602081101561252257600080fd5b5051155b1561253757612493600d60096128dc565b60018301805490869055604080516001600160a01b03891681526020810183905280820188905290517f70483e6592cd5182d45ac970e05bc62cdcc90e9d8ef2c2dbe686cf383bcd7fc59181900360600190a16000979650505050505050565b600a54600160a81b900460ff1681565b60055481565b60006113f3848484612de0565b6000808290506000806000836001600160a01b031663c37f68e2336040518263ffffffff1660e01b815260040180826001600160a01b03166001600160a01b0316815260200191505060806040518083038186803b15801561261b57600080fd5b505afa15801561262f573d6000803e3d6000fd5b505050506040513d608081101561264557600080fd5b5080516020820151604090920151909450909250905082156126985760405162461bcd60e51b81526004018080602001828103825260258152602001806134806025913960400191505060405180910390fd5b80156126b5576126aa600c60026128dc565b945050505050611058565b60006126c2873385612de0565b905080156126e3576126d7600e600383612fc3565b95505050505050611058565b6001600160a01b0385166000908152600960209081526040808320338452600281019092529091205460ff166127225760009650505050505050611058565b3360009081526002820160209081526040808320805460ff19169055600882529182902080548351818402810184019094528084526060939283018282801561279457602002820191906000526020600020905b81546001600160a01b03168152600190910190602001808311612776575b5050835193945083925060009150505b828110156127e957896001600160a01b03168482815181106127c257fe5b60200260200101516001600160a01b031614156127e1578091506127e9565b6001016127a4565b508181106127f357fe5b33600090815260086020526040902080548190600019810190811061281457fe5b9060005260206000200160009054906101000a90046001600160a01b031681838154811061283e57fe5b600091825260209091200180546001600160a01b0319166001600160a01b03929092169190911790558054612877826000198301613381565b50604080516001600160a01b038c16815233602082015281517fe699a64c18b07ac5b7301aa273f36a2287239eb9501d81950672794afba29a0d929181900390910190a160009c9b505050505050505050505050565b6000546001600160a01b031681565b60007f45b96fe442630264581b197e84bbada861235052c5a1aadfff9ea4e40a969aa083601181111561290b57fe5b83601381111561291757fe5b604080519283526020830191909152600082820152519081900360600190a18260118111156113f657fe5b519051111590565b5190511090565b600080600061295e6133a5565b6001600160a01b0388166000908152600860209081526040808320805482518185028101850190935280835284936060939291908301828280156129cb57602002820191906000526020600020905b81546001600160a01b031681526001909101906020018083116129ad575b50939450600093505050505b8151811015612d275760008282815181106129ee57fe5b60200260200101519050806001600160a01b031663c37f68e28e6040518263ffffffff1660e01b815260040180826001600160a01b03166001600160a01b0316815260200191505060806040518083038186803b158015612a4e57600080fd5b505afa158015612a62573d6000803e3d6000fd5b505050506040513d6080811015612a7857600080fd5b508051602082015160408084015160609485015160808c0152938a01939093529188019190915294508415612abe5750600f97506000965086955061135d945050505050565b60408051602080820183526001600160a01b0380851660008181526009845285902060010154845260c08b01939093528351808301855260808b0151815260e08b015260048054855163fc57d4df60e01b815291820194909452935192169263fc57d4df9260248083019392829003018186803b158015612b3e57600080fd5b505afa158015612b52573d6000803e3d6000fd5b505050506040513d6020811015612b6857600080fd5b505160a08701819052612b8c5750600d97506000965086955061135d945050505050565b604080516020810190915260a08701518152610100870181905260c087015160e0880151612bb992613029565b61012088015293506000846003811115612bcf57fe5b14612beb5750600b97506000965086955061135d945050505050565b612c0386610120015187604001518860000151613081565b875293506000846003811115612c1557fe5b14612c315750600b97506000965086955061135d945050505050565b612c4986610100015187606001518860200151613081565b602088015293506000846003811115612c5e57fe5b14612c7a5750600b97506000965086955061135d945050505050565b8b6001600160a01b0316816001600160a01b03161415612d1e57612ca88661012001518c8860200151613081565b602088015293506000846003811115612cbd57fe5b14612cd95750600b97506000965086955061135d945050505050565b612ced8661010001518b8860200151613081565b602088015293506000846003811115612d0257fe5b14612d1e5750600b97506000965086955061135d945050505050565b506001016129d7565b50602084015184511115612d4e57505050602081015190516000945003915082905061135d565b505081516020909201516000955085945091909103915061135d9050565b6000806000612d7f846000806000612951565b9250925092509193909250565b6000806000612d9961336e565b612da386866130ce565b90925090506000826003811115612db657fe5b14612dc75750915060009050612dd9565b6000612dd282613136565b9350935050505b9250929050565b6001600160a01b03831660009081526009602052604081205460ff16612e075760096113e9565b6001600160a01b038085166000908152600960209081526040808320938716835260029093019052205460ff16612e3f5760006113e9565b6000806123668587866000612951565b6001600160a01b0382166000908152600960205260408120805460ff16612e7a576009915050610d5d565b6001600160a01b038316600090815260028201602052604090205460ff16151560011415612eac576000915050610d5d565b6007546001600160a01b03841660009081526008602052604090205410612ed7576010915050610d5d565b6001600160a01b0380841660008181526002840160209081526040808320805460ff19166001908117909155600883528184208054918201815584529282902090920180549489166001600160a01b031990951685179055815193845283019190915280517f3ab23ab0d51cccc0c3085aec51f99228625aa1a922b3a8ca89a26b0f2027a1a59281900390910190a15060009392505050565b6000612f7a61336e565b612fa0604051806020016040528086815250604051806020016040528086815250613145565b915091509250929050565b6000612fb561336e565b83518351612fa0919061322e565b60007f45b96fe442630264581b197e84bbada861235052c5a1aadfff9ea4e40a969aa0846011811115612ff257fe5b846013811115612ffe57fe5b604080519283526020830191909152818101859052519081900360600190a18360118111156113f357fe5b600061303361336e565b600061303d61336e565b6130478787613145565b9092509050600082600381111561305a57fe5b14613069579092509050611f4e565b6130738186613145565b935093505050935093915050565b600080600061308e61336e565b61309887876130ce565b909250905060008260038111156130ab57fe5b146130bc5750915060009050611f4e565b6130736130c882613136565b866132de565b60006130d861336e565b6000806130e9866000015186613304565b909250905060008260038111156130fc57fe5b1461311b57506040805160208101909152600081529092509050612dd9565b60408051602081019091529081526000969095509350505050565b51670de0b6b3a7640000900490565b600061314f61336e565b60008061316486600001518660000151613304565b9092509050600082600381111561317757fe5b1461319657506040805160208101909152600081529092509050612dd9565b6000806131ab6706f05b59d3b20000846132de565b909250905060008260038111156131be57fe5b146131e057506040805160208101909152600081529094509250612dd9915050565b6000806131f583670de0b6b3a7640000613343565b9092509050600082600381111561320857fe5b1461320f57fe5b604080516020810190915290815260009a909950975050505050505050565b600061323861336e565b60008061324d86670de0b6b3a7640000613304565b9092509050600082600381111561326057fe5b1461327f57506040805160208101909152600081529092509050612dd9565b60008061328c8388613343565b9092509050600082600381111561329f57fe5b146132c157506040805160208101909152600081529094509250612dd9915050565b604080516020810190915290815260009890975095505050505050565b6000808383018481106132f657600092509050612dd9565b506002915060009050612dd9565b6000808361331757506000905080612dd9565b8383028385828161332457fe5b041461333857506002915060009050612dd9565b600092509050612dd9565b600080826133575750600190506000612dd9565b600083858161336257fe5b04915091509250929050565b6040518060200160405280600081525090565b8154818355818111156115cc576000838152602090206115cc91810190830161340f565b6040518061014001604052806000815260200160008152602001600081526020016000815260200160008152602001600081526020016133e361336e565b81526020016133f061336e565b81526020016133fd61336e565b815260200161340a61336e565b905290565b61342d91905b808211156134295760008155600101613415565b5090565b9056fe63616e6e6f742070617573652061206d61726b65742074686174206973206e6f74206c69737465646f6e6c7920706175736520677561726469616e20616e642061646d696e2063616e207061757365657869744d61726b65743a206765744163636f756e74536e617073686f74206661696c65646f6e6c7920756e6974726f6c6c65722061646d696e2063616e206368616e676520627261696e73a265627a7a72315820e26be0024e2c8cc0405e94662cfb3ee0271464e25b9252d3e6fc4f952b4e4b8f64736f6c63430005100032",
  "source": "pragma solidity ^0.5.16;\r\n\r\nimport \"./CToken.sol\";\r\nimport \"./ErrorReporter.sol\";\r\nimport \"./Exponential.sol\";\r\nimport \"./PriceOracle.sol\";\r\nimport \"./ComptrollerInterface.sol\";\r\nimport \"./ComptrollerStorage.sol\";\r\nimport \"./Unitroller.sol\";\r\n\r\n/**\r\n * @title Compound's Comptroller Contract\r\n * @author Compound\r\n */\r\ncontract ComptrollerG2 is ComptrollerV2Storage, ComptrollerInterface, ComptrollerErrorReporter, Exponential {\r\n    /**\r\n     * @notice Emitted when an admin supports a market\r\n     */\r\n    event MarketListed(CToken cToken);\r\n\r\n    /**\r\n     * @notice Emitted when an account enters a market\r\n     */\r\n    event MarketEntered(CToken cToken, address account);\r\n\r\n    /**\r\n     * @notice Emitted when an account exits a market\r\n     */\r\n    event MarketExited(CToken cToken, address account);\r\n\r\n    /**\r\n     * @notice Emitted when close factor is changed by admin\r\n     */\r\n    event NewCloseFactor(uint oldCloseFactorMantissa, uint newCloseFactorMantissa);\r\n\r\n    /**\r\n     * @notice Emitted when a collateral factor is changed by admin\r\n     */\r\n    event NewCollateralFactor(CToken cToken, uint oldCollateralFactorMantissa, uint newCollateralFactorMantissa);\r\n\r\n    /**\r\n     * @notice Emitted when liquidation incentive is changed by admin\r\n     */\r\n    event NewLiquidationIncentive(uint oldLiquidationIncentiveMantissa, uint newLiquidationIncentiveMantissa);\r\n\r\n    /**\r\n     * @notice Emitted when maxAssets is changed by admin\r\n     */\r\n    event NewMaxAssets(uint oldMaxAssets, uint newMaxAssets);\r\n\r\n    /**\r\n     * @notice Emitted when price oracle is changed\r\n     */\r\n    event NewPriceOracle(PriceOracle oldPriceOracle, PriceOracle newPriceOracle);\r\n\r\n    /**\r\n     * @notice Emitted when pause guardian is changed\r\n     */\r\n    event NewPauseGuardian(address oldPauseGuardian, address newPauseGuardian);\r\n\r\n    /**\r\n     * @notice Emitted when an action is paused globally\r\n     */\r\n    event ActionPaused(string action, bool pauseState);\r\n\r\n    /**\r\n     * @notice Emitted when an action is paused on a market\r\n     */\r\n    event ActionPaused(CToken cToken, string action, bool pauseState);\r\n\r\n    // closeFactorMantissa must be strictly greater than this value\r\n    uint internal constant closeFactorMinMantissa = 0.05e18; // 0.05\r\n\r\n    // closeFactorMantissa must not exceed this value\r\n    uint internal constant closeFactorMaxMantissa = 0.9e18; // 0.9\r\n\r\n    // No collateralFactorMantissa may exceed this value\r\n    uint internal constant collateralFactorMaxMantissa = 0.9e18; // 0.9\r\n\r\n    // liquidationIncentiveMantissa must be no less than this value\r\n    uint internal constant liquidationIncentiveMinMantissa = 1.0e18; // 1.0\r\n\r\n    // liquidationIncentiveMantissa must be no greater than this value\r\n    uint internal constant liquidationIncentiveMaxMantissa = 1.5e18; // 1.5\r\n\r\n    constructor() public {\r\n        admin = msg.sender;\r\n    }\r\n\r\n    /*** Assets You Are In ***/\r\n\r\n    /**\r\n     * @notice Returns the assets an account has entered\r\n     * @param account The address of the account to pull assets for\r\n     * @return A dynamic list with the assets the account has entered\r\n     */\r\n    function getAssetsIn(address account) external view returns (CToken[] memory) {\r\n        CToken[] memory assetsIn = accountAssets[account];\r\n\r\n        return assetsIn;\r\n    }\r\n\r\n    /**\r\n     * @notice Returns whether the given account is entered in the given asset\r\n     * @param account The address of the account to check\r\n     * @param cToken The cToken to check\r\n     * @return True if the account is in the asset, otherwise false.\r\n     */\r\n    function checkMembership(address account, CToken cToken) external view returns (bool) {\r\n        return markets[address(cToken)].accountMembership[account];\r\n    }\r\n\r\n    /**\r\n     * @notice Add assets to be included in account liquidity calculation\r\n     * @param cTokens The list of addresses of the cToken markets to be enabled\r\n     * @return Success indicator for whether each corresponding market was entered\r\n     */\r\n    function enterMarkets(address[] memory cTokens) public returns (uint[] memory) {\r\n        uint len = cTokens.length;\r\n\r\n        uint[] memory results = new uint[](len);\r\n        for (uint i = 0; i < len; i++) {\r\n            CToken cToken = CToken(cTokens[i]);\r\n\r\n            results[i] = uint(addToMarketInternal(cToken, msg.sender));\r\n        }\r\n\r\n        return results;\r\n    }\r\n\r\n    /**\r\n     * @notice Add the market to the borrower's \"assets in\" for liquidity calculations\r\n     * @param cToken The market to enter\r\n     * @param borrower The address of the account to modify\r\n     * @return Success indicator for whether the market was entered\r\n     */\r\n    function addToMarketInternal(CToken cToken, address borrower) internal returns (Error) {\r\n        Market storage marketToJoin = markets[address(cToken)];\r\n\r\n        if (!marketToJoin.isListed) {\r\n            // market is not listed, cannot join\r\n            return Error.MARKET_NOT_LISTED;\r\n        }\r\n\r\n        if (marketToJoin.accountMembership[borrower] == true) {\r\n            // already joined\r\n            return Error.NO_ERROR;\r\n        }\r\n\r\n        if (accountAssets[borrower].length >= maxAssets)  {\r\n            // no space, cannot join\r\n            return Error.TOO_MANY_ASSETS;\r\n        }\r\n\r\n        // survived the gauntlet, add to list\r\n        // NOTE: we store these somewhat redundantly as a significant optimization\r\n        //  this avoids having to iterate through the list for the most common use cases\r\n        //  that is, only when we need to perform liquidity checks\r\n        //  and not whenever we want to check if an account is in a particular market\r\n        marketToJoin.accountMembership[borrower] = true;\r\n        accountAssets[borrower].push(cToken);\r\n\r\n        emit MarketEntered(cToken, borrower);\r\n\r\n        return Error.NO_ERROR;\r\n    }\r\n\r\n    /**\r\n     * @notice Removes asset from sender's account liquidity calculation\r\n     * @dev Sender must not have an outstanding borrow balance in the asset,\r\n     *  or be providing neccessary collateral for an outstanding borrow.\r\n     * @param cTokenAddress The address of the asset to be removed\r\n     * @return Whether or not the account successfully exited the market\r\n     */\r\n    function exitMarket(address cTokenAddress) external returns (uint) {\r\n        CToken cToken = CToken(cTokenAddress);\r\n        /* Get sender tokensHeld and amountOwed underlying from the cToken */\r\n        (uint oErr, uint tokensHeld, uint amountOwed, ) = cToken.getAccountSnapshot(msg.sender);\r\n        require(oErr == 0, \"exitMarket: getAccountSnapshot failed\"); // semi-opaque error code\r\n\r\n        /* Fail if the sender has a borrow balance */\r\n        if (amountOwed != 0) {\r\n            return fail(Error.NONZERO_BORROW_BALANCE, FailureInfo.EXIT_MARKET_BALANCE_OWED);\r\n        }\r\n\r\n        /* Fail if the sender is not permitted to redeem all of their tokens */\r\n        uint allowed = redeemAllowedInternal(cTokenAddress, msg.sender, tokensHeld);\r\n        if (allowed != 0) {\r\n            return failOpaque(Error.REJECTION, FailureInfo.EXIT_MARKET_REJECTION, allowed);\r\n        }\r\n\r\n        Market storage marketToExit = markets[address(cToken)];\r\n\r\n        /* Return true if the sender is not already in the market */\r\n        if (!marketToExit.accountMembership[msg.sender]) {\r\n            return uint(Error.NO_ERROR);\r\n        }\r\n\r\n        /* Set cToken account membership to false */\r\n        delete marketToExit.accountMembership[msg.sender];\r\n\r\n        /* Delete cToken from the accounts list of assets */\r\n        // load into memory for faster iteration\r\n        CToken[] memory userAssetList = accountAssets[msg.sender];\r\n        uint len = userAssetList.length;\r\n        uint assetIndex = len;\r\n        for (uint i = 0; i < len; i++) {\r\n            if (userAssetList[i] == cToken) {\r\n                assetIndex = i;\r\n                break;\r\n            }\r\n        }\r\n\r\n        // We *must* have found the asset in the list or our redundant data structure is broken\r\n        assert(assetIndex < len);\r\n\r\n        // copy last item in list to location of item to be removed, reduce length by 1\r\n        CToken[] storage storedList = accountAssets[msg.sender];\r\n        storedList[assetIndex] = storedList[storedList.length - 1];\r\n        storedList.length--;\r\n\r\n        emit MarketExited(cToken, msg.sender);\r\n\r\n        return uint(Error.NO_ERROR);\r\n    }\r\n\r\n    /*** Policy Hooks ***/\r\n\r\n    /**\r\n     * @notice Checks if the account should be allowed to mint tokens in the given market\r\n     * @param cToken The market to verify the mint against\r\n     * @param minter The account which would get the minted tokens\r\n     * @param mintAmount The amount of underlying being supplied to the market in exchange for tokens\r\n     * @return 0 if the mint is allowed, otherwise a semi-opaque error code (See ErrorReporter.sol)\r\n     */\r\n    function mintAllowed(address cToken, address minter, uint mintAmount) external returns (uint) {\r\n        // Pausing is a very serious situation - we revert to sound the alarms\r\n        require(!mintGuardianPaused[cToken], \"mint is paused\");\r\n\r\n        // Shh - currently unused\r\n        minter;\r\n        mintAmount;\r\n\r\n        if (!markets[cToken].isListed) {\r\n            return uint(Error.MARKET_NOT_LISTED);\r\n        }\r\n\r\n        // *may include Policy Hook-type checks\r\n\r\n        return uint(Error.NO_ERROR);\r\n    }\r\n\r\n    /**\r\n     * @notice Validates mint and reverts on rejection. May emit logs.\r\n     * @param cToken Asset being minted\r\n     * @param minter The address minting the tokens\r\n     * @param actualMintAmount The amount of the underlying asset being minted\r\n     * @param mintTokens The number of tokens being minted\r\n     */\r\n    function mintVerify(address cToken, address minter, uint actualMintAmount, uint mintTokens) external {\r\n        // Shh - currently unused\r\n        cToken;\r\n        minter;\r\n        actualMintAmount;\r\n        mintTokens;\r\n\r\n        // Shh - we don't ever want this hook to be marked pure\r\n        if (false) {\r\n            maxAssets = maxAssets;\r\n        }\r\n    }\r\n\r\n    /**\r\n     * @notice Checks if the account should be allowed to redeem tokens in the given market\r\n     * @param cToken The market to verify the redeem against\r\n     * @param redeemer The account which would redeem the tokens\r\n     * @param redeemTokens The number of cTokens to exchange for the underlying asset in the market\r\n     * @return 0 if the redeem is allowed, otherwise a semi-opaque error code (See ErrorReporter.sol)\r\n     */\r\n    function redeemAllowed(address cToken, address redeemer, uint redeemTokens) external returns (uint) {\r\n        return redeemAllowedInternal(cToken, redeemer, redeemTokens);\r\n    }\r\n\r\n    function redeemAllowedInternal(address cToken, address redeemer, uint redeemTokens) internal view returns (uint) {\r\n        if (!markets[cToken].isListed) {\r\n            return uint(Error.MARKET_NOT_LISTED);\r\n        }\r\n\r\n        // *may include Policy Hook-type checks\r\n\r\n        /* If the redeemer is not 'in' the market, then we can bypass the liquidity check */\r\n        if (!markets[cToken].accountMembership[redeemer]) {\r\n            return uint(Error.NO_ERROR);\r\n        }\r\n\r\n        /* Otherwise, perform a hypothetical liquidity check to guard against shortfall */\r\n        (Error err, , uint shortfall) = getHypotheticalAccountLiquidityInternal(redeemer, CToken(cToken), redeemTokens, 0);\r\n        if (err != Error.NO_ERROR) {\r\n            return uint(err);\r\n        }\r\n        if (shortfall > 0) {\r\n            return uint(Error.INSUFFICIENT_LIQUIDITY);\r\n        }\r\n\r\n        return uint(Error.NO_ERROR);\r\n    }\r\n\r\n    /**\r\n     * @notice Validates redeem and reverts on rejection. May emit logs.\r\n     * @param cToken Asset being redeemed\r\n     * @param redeemer The address redeeming the tokens\r\n     * @param redeemAmount The amount of the underlying asset being redeemed\r\n     * @param redeemTokens The number of tokens being redeemed\r\n     */\r\n    function redeemVerify(address cToken, address redeemer, uint redeemAmount, uint redeemTokens) external {\r\n        // Shh - currently unused\r\n        cToken;\r\n        redeemer;\r\n\r\n        // Require tokens is zero or amount is also zero\r\n        if (redeemTokens == 0 && redeemAmount > 0) {\r\n            revert(\"redeemTokens zero\");\r\n        }\r\n    }\r\n\r\n    /**\r\n     * @notice Checks if the account should be allowed to borrow the underlying asset of the given market\r\n     * @param cToken The market to verify the borrow against\r\n     * @param borrower The account which would borrow the asset\r\n     * @param borrowAmount The amount of underlying the account would borrow\r\n     * @return 0 if the borrow is allowed, otherwise a semi-opaque error code (See ErrorReporter.sol)\r\n     */\r\n    function borrowAllowed(address cToken, address borrower, uint borrowAmount) external returns (uint) {\r\n        // Pausing is a very serious situation - we revert to sound the alarms\r\n        require(!borrowGuardianPaused[cToken], \"borrow is paused\");\r\n\r\n        if (!markets[cToken].isListed) {\r\n            return uint(Error.MARKET_NOT_LISTED);\r\n        }\r\n\r\n        // *may include Policy Hook-type checks\r\n\r\n        if (!markets[cToken].accountMembership[borrower]) {\r\n            // only cTokens may call borrowAllowed if borrower not in market\r\n            require(msg.sender == cToken, \"sender must be cToken\");\r\n\r\n            // attempt to add borrower to the market\r\n            Error err = addToMarketInternal(CToken(msg.sender), borrower);\r\n            if (err != Error.NO_ERROR) {\r\n                return uint(err);\r\n            }\r\n\r\n            // it should be impossible to break the important invariant\r\n            assert(markets[cToken].accountMembership[borrower]);\r\n        }\r\n\r\n        if (oracle.getUnderlyingPrice(CToken(cToken)) == 0) {\r\n            return uint(Error.PRICE_ERROR);\r\n        }\r\n\r\n        (Error err, , uint shortfall) = getHypotheticalAccountLiquidityInternal(borrower, CToken(cToken), 0, borrowAmount);\r\n        if (err != Error.NO_ERROR) {\r\n            return uint(err);\r\n        }\r\n        if (shortfall > 0) {\r\n            return uint(Error.INSUFFICIENT_LIQUIDITY);\r\n        }\r\n\r\n        return uint(Error.NO_ERROR);\r\n    }\r\n\r\n    /**\r\n     * @notice Validates borrow and reverts on rejection. May emit logs.\r\n     * @param cToken Asset whose underlying is being borrowed\r\n     * @param borrower The address borrowing the underlying\r\n     * @param borrowAmount The amount of the underlying asset requested to borrow\r\n     */\r\n    function borrowVerify(address cToken, address borrower, uint borrowAmount) external {\r\n        // Shh - currently unused\r\n        cToken;\r\n        borrower;\r\n        borrowAmount;\r\n\r\n        // Shh - we don't ever want this hook to be marked pure\r\n        if (false) {\r\n            maxAssets = maxAssets;\r\n        }\r\n    }\r\n\r\n    /**\r\n     * @notice Checks if the account should be allowed to repay a borrow in the given market\r\n     * @param cToken The market to verify the repay against\r\n     * @param payer The account which would repay the asset\r\n     * @param borrower The account which would borrowed the asset\r\n     * @param repayAmount The amount of the underlying asset the account would repay\r\n     * @return 0 if the repay is allowed, otherwise a semi-opaque error code (See ErrorReporter.sol)\r\n     */\r\n    function repayBorrowAllowed(\r\n        address cToken,\r\n        address payer,\r\n        address borrower,\r\n        uint repayAmount) external returns (uint) {\r\n        // Shh - currently unused\r\n        payer;\r\n        borrower;\r\n        repayAmount;\r\n\r\n        if (!markets[cToken].isListed) {\r\n            return uint(Error.MARKET_NOT_LISTED);\r\n        }\r\n\r\n        // *may include Policy Hook-type checks\r\n\r\n        return uint(Error.NO_ERROR);\r\n    }\r\n\r\n    /**\r\n     * @notice Validates repayBorrow and reverts on rejection. May emit logs.\r\n     * @param cToken Asset being repaid\r\n     * @param payer The address repaying the borrow\r\n     * @param borrower The address of the borrower\r\n     * @param actualRepayAmount The amount of underlying being repaid\r\n     */\r\n    function repayBorrowVerify(\r\n        address cToken,\r\n        address payer,\r\n        address borrower,\r\n        uint actualRepayAmount,\r\n        uint borrowerIndex) external {\r\n        // Shh - currently unused\r\n        cToken;\r\n        payer;\r\n        borrower;\r\n        actualRepayAmount;\r\n        borrowerIndex;\r\n\r\n        // Shh - we don't ever want this hook to be marked pure\r\n        if (false) {\r\n            maxAssets = maxAssets;\r\n        }\r\n    }\r\n\r\n    /**\r\n     * @notice Checks if the liquidation should be allowed to occur\r\n     * @param cTokenBorrowed Asset which was borrowed by the borrower\r\n     * @param cTokenCollateral Asset which was used as collateral and will be seized\r\n     * @param liquidator The address repaying the borrow and seizing the collateral\r\n     * @param borrower The address of the borrower\r\n     * @param repayAmount The amount of underlying being repaid\r\n     */\r\n    function liquidateBorrowAllowed(\r\n        address cTokenBorrowed,\r\n        address cTokenCollateral,\r\n        address liquidator,\r\n        address borrower,\r\n        uint repayAmount) external returns (uint) {\r\n        // Shh - currently unused\r\n        liquidator;\r\n\r\n        if (!markets[cTokenBorrowed].isListed || !markets[cTokenCollateral].isListed) {\r\n            return uint(Error.MARKET_NOT_LISTED);\r\n        }\r\n\r\n        // *may include Policy Hook-type checks\r\n\r\n        /* The borrower must have shortfall in order to be liquidatable */\r\n        (Error err, , uint shortfall) = getAccountLiquidityInternal(borrower);\r\n        if (err != Error.NO_ERROR) {\r\n            return uint(err);\r\n        }\r\n        if (shortfall == 0) {\r\n            return uint(Error.INSUFFICIENT_SHORTFALL);\r\n        }\r\n\r\n        /* The liquidator may not repay more than what is allowed by the closeFactor */\r\n        uint borrowBalance = CToken(cTokenBorrowed).borrowBalanceStored(borrower);\r\n        (MathError mathErr, uint maxClose) = mulScalarTruncate(Exp({mantissa: closeFactorMantissa}), borrowBalance);\r\n        if (mathErr != MathError.NO_ERROR) {\r\n            return uint(Error.MATH_ERROR);\r\n        }\r\n        if (repayAmount > maxClose) {\r\n            return uint(Error.TOO_MUCH_REPAY);\r\n        }\r\n\r\n        return uint(Error.NO_ERROR);\r\n    }\r\n\r\n    /**\r\n     * @notice Validates liquidateBorrow and reverts on rejection. May emit logs.\r\n     * @param cTokenBorrowed Asset which was borrowed by the borrower\r\n     * @param cTokenCollateral Asset which was used as collateral and will be seized\r\n     * @param liquidator The address repaying the borrow and seizing the collateral\r\n     * @param borrower The address of the borrower\r\n     * @param actualRepayAmount The amount of underlying being repaid\r\n     */\r\n    function liquidateBorrowVerify(\r\n        address cTokenBorrowed,\r\n        address cTokenCollateral,\r\n        address liquidator,\r\n        address borrower,\r\n        uint actualRepayAmount,\r\n        uint seizeTokens) external {\r\n        // Shh - currently unused\r\n        cTokenBorrowed;\r\n        cTokenCollateral;\r\n        liquidator;\r\n        borrower;\r\n        actualRepayAmount;\r\n        seizeTokens;\r\n\r\n        // Shh - we don't ever want this hook to be marked pure\r\n        if (false) {\r\n            maxAssets = maxAssets;\r\n        }\r\n    }\r\n\r\n    /**\r\n     * @notice Checks if the seizing of assets should be allowed to occur\r\n     * @param cTokenCollateral Asset which was used as collateral and will be seized\r\n     * @param cTokenBorrowed Asset which was borrowed by the borrower\r\n     * @param liquidator The address repaying the borrow and seizing the collateral\r\n     * @param borrower The address of the borrower\r\n     * @param seizeTokens The number of collateral tokens to seize\r\n     */\r\n    function seizeAllowed(\r\n        address cTokenCollateral,\r\n        address cTokenBorrowed,\r\n        address liquidator,\r\n        address borrower,\r\n        uint seizeTokens) external returns (uint) {\r\n        // Pausing is a very serious situation - we revert to sound the alarms\r\n        require(!seizeGuardianPaused, \"seize is paused\");\r\n\r\n        // Shh - currently unused\r\n        liquidator;\r\n        borrower;\r\n        seizeTokens;\r\n\r\n        if (!markets[cTokenCollateral].isListed || !markets[cTokenBorrowed].isListed) {\r\n            return uint(Error.MARKET_NOT_LISTED);\r\n        }\r\n\r\n        if (CToken(cTokenCollateral).comptroller() != CToken(cTokenBorrowed).comptroller()) {\r\n            return uint(Error.COMPTROLLER_MISMATCH);\r\n        }\r\n\r\n        // *may include Policy Hook-type checks\r\n\r\n        return uint(Error.NO_ERROR);\r\n    }\r\n\r\n    /**\r\n     * @notice Validates seize and reverts on rejection. May emit logs.\r\n     * @param cTokenCollateral Asset which was used as collateral and will be seized\r\n     * @param cTokenBorrowed Asset which was borrowed by the borrower\r\n     * @param liquidator The address repaying the borrow and seizing the collateral\r\n     * @param borrower The address of the borrower\r\n     * @param seizeTokens The number of collateral tokens to seize\r\n     */\r\n    function seizeVerify(\r\n        address cTokenCollateral,\r\n        address cTokenBorrowed,\r\n        address liquidator,\r\n        address borrower,\r\n        uint seizeTokens) external {\r\n        // Shh - currently unused\r\n        cTokenCollateral;\r\n        cTokenBorrowed;\r\n        liquidator;\r\n        borrower;\r\n        seizeTokens;\r\n\r\n        // Shh - we don't ever want this hook to be marked pure\r\n        if (false) {\r\n            maxAssets = maxAssets;\r\n        }\r\n    }\r\n\r\n    /**\r\n     * @notice Checks if the account should be allowed to transfer tokens in the given market\r\n     * @param cToken The market to verify the transfer against\r\n     * @param src The account which sources the tokens\r\n     * @param dst The account which receives the tokens\r\n     * @param transferTokens The number of cTokens to transfer\r\n     * @return 0 if the transfer is allowed, otherwise a semi-opaque error code (See ErrorReporter.sol)\r\n     */\r\n    function transferAllowed(address cToken, address src, address dst, uint transferTokens) external returns (uint) {\r\n        // Pausing is a very serious situation - we revert to sound the alarms\r\n        require(!transferGuardianPaused, \"transfer is paused\");\r\n\r\n        // Shh - currently unused\r\n        dst;\r\n\r\n        // *may include Policy Hook-type checks\r\n\r\n        // Currently the only consideration is whether or not\r\n        //  the src is allowed to redeem this many tokens\r\n        return redeemAllowedInternal(cToken, src, transferTokens);\r\n    }\r\n\r\n    /**\r\n     * @notice Validates transfer and reverts on rejection. May emit logs.\r\n     * @param cToken Asset being transferred\r\n     * @param src The account which sources the tokens\r\n     * @param dst The account which receives the tokens\r\n     * @param transferTokens The number of cTokens to transfer\r\n     */\r\n    function transferVerify(address cToken, address src, address dst, uint transferTokens) external {\r\n        // Shh - currently unused\r\n        cToken;\r\n        src;\r\n        dst;\r\n        transferTokens;\r\n\r\n        // Shh - we don't ever want this hook to be marked pure\r\n        if (false) {\r\n            maxAssets = maxAssets;\r\n        }\r\n    }\r\n\r\n    /*** Liquidity/Liquidation Calculations ***/\r\n\r\n    /**\r\n     * @dev Local vars for avoiding stack-depth limits in calculating account liquidity.\r\n     *  Note that `cTokenBalance` is the number of cTokens the account owns in the market,\r\n     *  whereas `borrowBalance` is the amount of underlying that the account has borrowed.\r\n     */\r\n    struct AccountLiquidityLocalVars {\r\n        uint sumCollateral;\r\n        uint sumBorrowPlusEffects;\r\n        uint cTokenBalance;\r\n        uint borrowBalance;\r\n        uint exchangeRateMantissa;\r\n        uint oraclePriceMantissa;\r\n        Exp collateralFactor;\r\n        Exp exchangeRate;\r\n        Exp oraclePrice;\r\n        Exp tokensToEther;\r\n    }\r\n\r\n    /**\r\n     * @notice Determine the current account liquidity wrt collateral requirements\r\n     * @return (possible error code (semi-opaque),\r\n                account liquidity in excess of collateral requirements,\r\n     *          account shortfall below collateral requirements)\r\n     */\r\n    function getAccountLiquidity(address account) public view returns (uint, uint, uint) {\r\n        (Error err, uint liquidity, uint shortfall) = getHypotheticalAccountLiquidityInternal(account, CToken(0), 0, 0);\r\n\r\n        return (uint(err), liquidity, shortfall);\r\n    }\r\n\r\n    /**\r\n     * @notice Determine the current account liquidity wrt collateral requirements\r\n     * @return (possible error code,\r\n                account liquidity in excess of collateral requirements,\r\n     *          account shortfall below collateral requirements)\r\n     */\r\n    function getAccountLiquidityInternal(address account) internal view returns (Error, uint, uint) {\r\n        return getHypotheticalAccountLiquidityInternal(account, CToken(0), 0, 0);\r\n    }\r\n\r\n    /**\r\n     * @notice Determine what the account liquidity would be if the given amounts were redeemed/borrowed\r\n     * @param cTokenModify The market to hypothetically redeem/borrow in\r\n     * @param account The account to determine liquidity for\r\n     * @param redeemTokens The number of tokens to hypothetically redeem\r\n     * @param borrowAmount The amount of underlying to hypothetically borrow\r\n     * @return (possible error code (semi-opaque),\r\n                hypothetical account liquidity in excess of collateral requirements,\r\n     *          hypothetical account shortfall below collateral requirements)\r\n     */\r\n    function getHypotheticalAccountLiquidity(\r\n        address account,\r\n        address cTokenModify,\r\n        uint redeemTokens,\r\n        uint borrowAmount) public view returns (uint, uint, uint) {\r\n        (Error err, uint liquidity, uint shortfall) = getHypotheticalAccountLiquidityInternal(account, CToken(cTokenModify), redeemTokens, borrowAmount);\r\n        return (uint(err), liquidity, shortfall);\r\n    }\r\n\r\n    /**\r\n     * @notice Determine what the account liquidity would be if the given amounts were redeemed/borrowed\r\n     * @param cTokenModify The market to hypothetically redeem/borrow in\r\n     * @param account The account to determine liquidity for\r\n     * @param redeemTokens The number of tokens to hypothetically redeem\r\n     * @param borrowAmount The amount of underlying to hypothetically borrow\r\n     * @dev Note that we calculate the exchangeRateStored for each collateral cToken using stored data,\r\n     *  without calculating accumulated interest.\r\n     * @return (possible error code,\r\n                hypothetical account liquidity in excess of collateral requirements,\r\n     *          hypothetical account shortfall below collateral requirements)\r\n     */\r\n    function getHypotheticalAccountLiquidityInternal(\r\n        address account,\r\n        CToken cTokenModify,\r\n        uint redeemTokens,\r\n        uint borrowAmount) internal view returns (Error, uint, uint) {\r\n\r\n        AccountLiquidityLocalVars memory vars; // Holds all our calculation results\r\n        uint oErr;\r\n        MathError mErr;\r\n\r\n        // For each asset the account is in\r\n        CToken[] memory assets = accountAssets[account];\r\n        for (uint i = 0; i < assets.length; i++) {\r\n            CToken asset = assets[i];\r\n\r\n            // Read the balances and exchange rate from the cToken\r\n            (oErr, vars.cTokenBalance, vars.borrowBalance, vars.exchangeRateMantissa) = asset.getAccountSnapshot(account);\r\n            if (oErr != 0) { // semi-opaque error code, we assume NO_ERROR == 0 is invariant between upgrades\r\n                return (Error.SNAPSHOT_ERROR, 0, 0);\r\n            }\r\n            vars.collateralFactor = Exp({mantissa: markets[address(asset)].collateralFactorMantissa});\r\n            vars.exchangeRate = Exp({mantissa: vars.exchangeRateMantissa});\r\n\r\n            // Get the normalized price of the asset\r\n            vars.oraclePriceMantissa = oracle.getUnderlyingPrice(asset);\r\n            if (vars.oraclePriceMantissa == 0) {\r\n                return (Error.PRICE_ERROR, 0, 0);\r\n            }\r\n            vars.oraclePrice = Exp({mantissa: vars.oraclePriceMantissa});\r\n\r\n            // Pre-compute a conversion factor from tokens -> ether (normalized price value)\r\n            (mErr, vars.tokensToEther) = mulExp3(vars.collateralFactor, vars.exchangeRate, vars.oraclePrice);\r\n            if (mErr != MathError.NO_ERROR) {\r\n                return (Error.MATH_ERROR, 0, 0);\r\n            }\r\n\r\n            // sumCollateral += tokensToEther * cTokenBalance\r\n            (mErr, vars.sumCollateral) = mulScalarTruncateAddUInt(vars.tokensToEther, vars.cTokenBalance, vars.sumCollateral);\r\n            if (mErr != MathError.NO_ERROR) {\r\n                return (Error.MATH_ERROR, 0, 0);\r\n            }\r\n\r\n            // sumBorrowPlusEffects += oraclePrice * borrowBalance\r\n            (mErr, vars.sumBorrowPlusEffects) = mulScalarTruncateAddUInt(vars.oraclePrice, vars.borrowBalance, vars.sumBorrowPlusEffects);\r\n            if (mErr != MathError.NO_ERROR) {\r\n                return (Error.MATH_ERROR, 0, 0);\r\n            }\r\n\r\n            // Calculate effects of interacting with cTokenModify\r\n            if (asset == cTokenModify) {\r\n                // redeem effect\r\n                // sumBorrowPlusEffects += tokensToEther * redeemTokens\r\n                (mErr, vars.sumBorrowPlusEffects) = mulScalarTruncateAddUInt(vars.tokensToEther, redeemTokens, vars.sumBorrowPlusEffects);\r\n                if (mErr != MathError.NO_ERROR) {\r\n                    return (Error.MATH_ERROR, 0, 0);\r\n                }\r\n\r\n                // borrow effect\r\n                // sumBorrowPlusEffects += oraclePrice * borrowAmount\r\n                (mErr, vars.sumBorrowPlusEffects) = mulScalarTruncateAddUInt(vars.oraclePrice, borrowAmount, vars.sumBorrowPlusEffects);\r\n                if (mErr != MathError.NO_ERROR) {\r\n                    return (Error.MATH_ERROR, 0, 0);\r\n                }\r\n            }\r\n        }\r\n\r\n        // These are safe, as the underflow condition is checked first\r\n        if (vars.sumCollateral > vars.sumBorrowPlusEffects) {\r\n            return (Error.NO_ERROR, vars.sumCollateral - vars.sumBorrowPlusEffects, 0);\r\n        } else {\r\n            return (Error.NO_ERROR, 0, vars.sumBorrowPlusEffects - vars.sumCollateral);\r\n        }\r\n    }\r\n\r\n    /**\r\n     * @notice Calculate number of tokens of collateral asset to seize given an underlying amount\r\n     * @dev Used in liquidation (called in cToken.liquidateBorrowFresh)\r\n     * @param cTokenBorrowed The address of the borrowed cToken\r\n     * @param cTokenCollateral The address of the collateral cToken\r\n     * @param actualRepayAmount The amount of cTokenBorrowed underlying to convert into cTokenCollateral tokens\r\n     * @return (errorCode, number of cTokenCollateral tokens to be seized in a liquidation)\r\n     */\r\n    function liquidateCalculateSeizeTokens(address cTokenBorrowed, address cTokenCollateral, uint actualRepayAmount) external view returns (uint, uint) {\r\n        /* Read oracle prices for borrowed and collateral markets */\r\n        uint priceBorrowedMantissa = oracle.getUnderlyingPrice(CToken(cTokenBorrowed));\r\n        uint priceCollateralMantissa = oracle.getUnderlyingPrice(CToken(cTokenCollateral));\r\n        if (priceBorrowedMantissa == 0 || priceCollateralMantissa == 0) {\r\n            return (uint(Error.PRICE_ERROR), 0);\r\n        }\r\n\r\n        /*\r\n         * Get the exchange rate and calculate the number of collateral tokens to seize:\r\n         *  seizeAmount = actualRepayAmount * liquidationIncentive * priceBorrowed / priceCollateral\r\n         *  seizeTokens = seizeAmount / exchangeRate\r\n         *   = actualRepayAmount * (liquidationIncentive * priceBorrowed) / (priceCollateral * exchangeRate)\r\n         */\r\n        uint exchangeRateMantissa = CToken(cTokenCollateral).exchangeRateStored(); // Note: reverts on error\r\n        uint seizeTokens;\r\n        Exp memory numerator;\r\n        Exp memory denominator;\r\n        Exp memory ratio;\r\n        MathError mathErr;\r\n\r\n        (mathErr, numerator) = mulExp(liquidationIncentiveMantissa, priceBorrowedMantissa);\r\n        if (mathErr != MathError.NO_ERROR) {\r\n            return (uint(Error.MATH_ERROR), 0);\r\n        }\r\n\r\n        (mathErr, denominator) = mulExp(priceCollateralMantissa, exchangeRateMantissa);\r\n        if (mathErr != MathError.NO_ERROR) {\r\n            return (uint(Error.MATH_ERROR), 0);\r\n        }\r\n\r\n        (mathErr, ratio) = divExp(numerator, denominator);\r\n        if (mathErr != MathError.NO_ERROR) {\r\n            return (uint(Error.MATH_ERROR), 0);\r\n        }\r\n\r\n        (mathErr, seizeTokens) = mulScalarTruncate(ratio, actualRepayAmount);\r\n        if (mathErr != MathError.NO_ERROR) {\r\n            return (uint(Error.MATH_ERROR), 0);\r\n        }\r\n\r\n        return (uint(Error.NO_ERROR), seizeTokens);\r\n    }\r\n\r\n    /*** Admin Functions ***/\r\n\r\n    /**\r\n      * @notice Sets a new price oracle for the comptroller\r\n      * @dev Admin function to set a new price oracle\r\n      * @return uint 0=success, otherwise a failure (see ErrorReporter.sol for details)\r\n      */\r\n    function _setPriceOracle(PriceOracle newOracle) public returns (uint) {\r\n        // Check caller is admin\r\n        if (msg.sender != admin) {\r\n            return fail(Error.UNAUTHORIZED, FailureInfo.SET_PRICE_ORACLE_OWNER_CHECK);\r\n        }\r\n\r\n        // Track the old oracle for the comptroller\r\n        PriceOracle oldOracle = oracle;\r\n\r\n        // Set comptroller's oracle to newOracle\r\n        oracle = newOracle;\r\n\r\n        // Emit NewPriceOracle(oldOracle, newOracle)\r\n        emit NewPriceOracle(oldOracle, newOracle);\r\n\r\n        return uint(Error.NO_ERROR);\r\n    }\r\n\r\n    /**\r\n      * @notice Sets the closeFactor used when liquidating borrows\r\n      * @dev Admin function to set closeFactor\r\n      * @param newCloseFactorMantissa New close factor, scaled by 1e18\r\n      * @return uint 0=success, otherwise a failure. (See ErrorReporter for details)\r\n      */\r\n    function _setCloseFactor(uint newCloseFactorMantissa) external returns (uint256) {\r\n        // Check caller is admin\r\n        if (msg.sender != admin) {\r\n            return fail(Error.UNAUTHORIZED, FailureInfo.SET_CLOSE_FACTOR_OWNER_CHECK);\r\n        }\r\n\r\n        Exp memory newCloseFactorExp = Exp({mantissa: newCloseFactorMantissa});\r\n        Exp memory lowLimit = Exp({mantissa: closeFactorMinMantissa});\r\n        if (lessThanOrEqualExp(newCloseFactorExp, lowLimit)) {\r\n            return fail(Error.INVALID_CLOSE_FACTOR, FailureInfo.SET_CLOSE_FACTOR_VALIDATION);\r\n        }\r\n\r\n        Exp memory highLimit = Exp({mantissa: closeFactorMaxMantissa});\r\n        if (lessThanExp(highLimit, newCloseFactorExp)) {\r\n            return fail(Error.INVALID_CLOSE_FACTOR, FailureInfo.SET_CLOSE_FACTOR_VALIDATION);\r\n        }\r\n\r\n        uint oldCloseFactorMantissa = closeFactorMantissa;\r\n        closeFactorMantissa = newCloseFactorMantissa;\r\n        emit NewCloseFactor(oldCloseFactorMantissa, closeFactorMantissa);\r\n\r\n        return uint(Error.NO_ERROR);\r\n    }\r\n\r\n    /**\r\n      * @notice Sets the collateralFactor for a market\r\n      * @dev Admin function to set per-market collateralFactor\r\n      * @param cToken The market to set the factor on\r\n      * @param newCollateralFactorMantissa The new collateral factor, scaled by 1e18\r\n      * @return uint 0=success, otherwise a failure. (See ErrorReporter for details)\r\n      */\r\n    function _setCollateralFactor(CToken cToken, uint newCollateralFactorMantissa) external returns (uint256) {\r\n        // Check caller is admin\r\n        if (msg.sender != admin) {\r\n            return fail(Error.UNAUTHORIZED, FailureInfo.SET_COLLATERAL_FACTOR_OWNER_CHECK);\r\n        }\r\n\r\n        // Verify market is listed\r\n        Market storage market = markets[address(cToken)];\r\n        if (!market.isListed) {\r\n            return fail(Error.MARKET_NOT_LISTED, FailureInfo.SET_COLLATERAL_FACTOR_NO_EXISTS);\r\n        }\r\n\r\n        Exp memory newCollateralFactorExp = Exp({mantissa: newCollateralFactorMantissa});\r\n\r\n        // Check collateral factor <= 0.9\r\n        Exp memory highLimit = Exp({mantissa: collateralFactorMaxMantissa});\r\n        if (lessThanExp(highLimit, newCollateralFactorExp)) {\r\n            return fail(Error.INVALID_COLLATERAL_FACTOR, FailureInfo.SET_COLLATERAL_FACTOR_VALIDATION);\r\n        }\r\n\r\n        // If collateral factor != 0, fail if price == 0\r\n        if (newCollateralFactorMantissa != 0 && oracle.getUnderlyingPrice(cToken) == 0) {\r\n            return fail(Error.PRICE_ERROR, FailureInfo.SET_COLLATERAL_FACTOR_WITHOUT_PRICE);\r\n        }\r\n\r\n        // Set market's collateral factor to new collateral factor, remember old value\r\n        uint oldCollateralFactorMantissa = market.collateralFactorMantissa;\r\n        market.collateralFactorMantissa = newCollateralFactorMantissa;\r\n\r\n        // Emit event with asset, old collateral factor, and new collateral factor\r\n        emit NewCollateralFactor(cToken, oldCollateralFactorMantissa, newCollateralFactorMantissa);\r\n\r\n        return uint(Error.NO_ERROR);\r\n    }\r\n\r\n    /**\r\n      * @notice Sets maxAssets which controls how many markets can be entered\r\n      * @dev Admin function to set maxAssets\r\n      * @param newMaxAssets New max assets\r\n      * @return uint 0=success, otherwise a failure. (See ErrorReporter for details)\r\n      */\r\n    function _setMaxAssets(uint newMaxAssets) external returns (uint) {\r\n        // Check caller is admin\r\n        if (msg.sender != admin) {\r\n            return fail(Error.UNAUTHORIZED, FailureInfo.SET_MAX_ASSETS_OWNER_CHECK);\r\n        }\r\n\r\n        uint oldMaxAssets = maxAssets;\r\n        maxAssets = newMaxAssets;\r\n        emit NewMaxAssets(oldMaxAssets, newMaxAssets);\r\n\r\n        return uint(Error.NO_ERROR);\r\n    }\r\n\r\n    /**\r\n      * @notice Sets liquidationIncentive\r\n      * @dev Admin function to set liquidationIncentive\r\n      * @param newLiquidationIncentiveMantissa New liquidationIncentive scaled by 1e18\r\n      * @return uint 0=success, otherwise a failure. (See ErrorReporter for details)\r\n      */\r\n    function _setLiquidationIncentive(uint newLiquidationIncentiveMantissa) external returns (uint) {\r\n        // Check caller is admin\r\n        if (msg.sender != admin) {\r\n            return fail(Error.UNAUTHORIZED, FailureInfo.SET_LIQUIDATION_INCENTIVE_OWNER_CHECK);\r\n        }\r\n\r\n        // Check de-scaled min <= newLiquidationIncentive <= max\r\n        Exp memory newLiquidationIncentive = Exp({mantissa: newLiquidationIncentiveMantissa});\r\n        Exp memory minLiquidationIncentive = Exp({mantissa: liquidationIncentiveMinMantissa});\r\n        if (lessThanExp(newLiquidationIncentive, minLiquidationIncentive)) {\r\n            return fail(Error.INVALID_LIQUIDATION_INCENTIVE, FailureInfo.SET_LIQUIDATION_INCENTIVE_VALIDATION);\r\n        }\r\n\r\n        Exp memory maxLiquidationIncentive = Exp({mantissa: liquidationIncentiveMaxMantissa});\r\n        if (lessThanExp(maxLiquidationIncentive, newLiquidationIncentive)) {\r\n            return fail(Error.INVALID_LIQUIDATION_INCENTIVE, FailureInfo.SET_LIQUIDATION_INCENTIVE_VALIDATION);\r\n        }\r\n\r\n        // Save current value for use in log\r\n        uint oldLiquidationIncentiveMantissa = liquidationIncentiveMantissa;\r\n\r\n        // Set liquidation incentive to new incentive\r\n        liquidationIncentiveMantissa = newLiquidationIncentiveMantissa;\r\n\r\n        // Emit event with old incentive, new incentive\r\n        emit NewLiquidationIncentive(oldLiquidationIncentiveMantissa, newLiquidationIncentiveMantissa);\r\n\r\n        return uint(Error.NO_ERROR);\r\n    }\r\n\r\n    /**\r\n      * @notice Add the market to the markets mapping and set it as listed\r\n      * @dev Admin function to set isListed and add support for the market\r\n      * @param cToken The address of the market (token) to list\r\n      * @return uint 0=success, otherwise a failure. (See enum Error for details)\r\n      */\r\n    function _supportMarket(CToken cToken) external returns (uint) {\r\n        if (msg.sender != admin) {\r\n            return fail(Error.UNAUTHORIZED, FailureInfo.SUPPORT_MARKET_OWNER_CHECK);\r\n        }\r\n\r\n        if (markets[address(cToken)].isListed) {\r\n            return fail(Error.MARKET_ALREADY_LISTED, FailureInfo.SUPPORT_MARKET_EXISTS);\r\n        }\r\n\r\n        cToken.isCToken(); // Sanity check to make sure its really a CToken\r\n\r\n        markets[address(cToken)] = Market({isListed: true, isComped: false, collateralFactorMantissa: 0});\r\n        emit MarketListed(cToken);\r\n\r\n        return uint(Error.NO_ERROR);\r\n    }\r\n\r\n    /**\r\n     * @notice Admin function to change the Pause Guardian\r\n     * @param newPauseGuardian The address of the new Pause Guardian\r\n     * @return uint 0=success, otherwise a failure. (See enum Error for details)\r\n     */\r\n    function _setPauseGuardian(address newPauseGuardian) public returns (uint) {\r\n        if (msg.sender != admin) {\r\n            return fail(Error.UNAUTHORIZED, FailureInfo.SET_PAUSE_GUARDIAN_OWNER_CHECK);\r\n        }\r\n\r\n        // Save current value for inclusion in log\r\n        address oldPauseGuardian = pauseGuardian;\r\n\r\n        // Store pauseGuardian with value newPauseGuardian\r\n        pauseGuardian = newPauseGuardian;\r\n\r\n        // Emit NewPauseGuardian(OldPauseGuardian, NewPauseGuardian)\r\n        emit NewPauseGuardian(oldPauseGuardian, pauseGuardian);\r\n\r\n        return uint(Error.NO_ERROR);\r\n    }\r\n\r\n    function _setMintPaused(CToken cToken, bool state) public returns (bool) {\r\n        require(markets[address(cToken)].isListed, \"cannot pause a market that is not listed\");\r\n        require(msg.sender == pauseGuardian || msg.sender == admin, \"only pause guardian and admin can pause\");\r\n        require(msg.sender == admin || state == true, \"only admin can unpause\");\r\n\r\n        mintGuardianPaused[address(cToken)] = state;\r\n        emit ActionPaused(cToken, \"Mint\", state);\r\n        return state;\r\n    }\r\n\r\n    function _setBorrowPaused(CToken cToken, bool state) public returns (bool) {\r\n        require(markets[address(cToken)].isListed, \"cannot pause a market that is not listed\");\r\n        require(msg.sender == pauseGuardian || msg.sender == admin, \"only pause guardian and admin can pause\");\r\n        require(msg.sender == admin || state == true, \"only admin can unpause\");\r\n\r\n        borrowGuardianPaused[address(cToken)] = state;\r\n        emit ActionPaused(cToken, \"Borrow\", state);\r\n        return state;\r\n    }\r\n\r\n    function _setTransferPaused(bool state) public returns (bool) {\r\n        require(msg.sender == pauseGuardian || msg.sender == admin, \"only pause guardian and admin can pause\");\r\n        require(msg.sender == admin || state == true, \"only admin can unpause\");\r\n\r\n        transferGuardianPaused = state;\r\n        emit ActionPaused(\"Transfer\", state);\r\n        return state;\r\n    }\r\n\r\n    function _setSeizePaused(bool state) public returns (bool) {\r\n        require(msg.sender == pauseGuardian || msg.sender == admin, \"only pause guardian and admin can pause\");\r\n        require(msg.sender == admin || state == true, \"only admin can unpause\");\r\n\r\n        seizeGuardianPaused = state;\r\n        emit ActionPaused(\"Seize\", state);\r\n        return state;\r\n    }\r\n\r\n    function _become(Unitroller unitroller) public {\r\n        require(msg.sender == unitroller.admin(), \"only unitroller admin can change brains\");\r\n\r\n        uint changeStatus = unitroller._acceptImplementation();\r\n        require(changeStatus == 0, \"change not authorized\");\r\n    }\r\n}\r\n",
  "sourcePath": "F:\\7-hlf-github\\compound-play\\compound\\contracts\\ComptrollerG2.sol",
  "compiler": {
    "name": "solc",
    "version": "0.5.16+commit.9c3226ce.Emscripten.clang"
  },
  "schemaVersion": "3.4.3",
  "updatedAt": "2022-01-24T11:39:40.829Z",
  "devdoc": {
    "author": "Compound",
    "methods": {
      "_setCloseFactor(uint256)": {
        "details": "Admin function to set closeFactor",
        "params": {
          "newCloseFactorMantissa": "New close factor, scaled by 1e18"
        },
        "return": "uint 0=success, otherwise a failure. (See ErrorReporter for details)"
      },
      "_setCollateralFactor(address,uint256)": {
        "details": "Admin function to set per-market collateralFactor",
        "params": {
          "cToken": "The market to set the factor on",
          "newCollateralFactorMantissa": "The new collateral factor, scaled by 1e18"
        },
        "return": "uint 0=success, otherwise a failure. (See ErrorReporter for details)"
      },
      "_setLiquidationIncentive(uint256)": {
        "details": "Admin function to set liquidationIncentive",
        "params": {
          "newLiquidationIncentiveMantissa": "New liquidationIncentive scaled by 1e18"
        },
        "return": "uint 0=success, otherwise a failure. (See ErrorReporter for details)"
      },
      "_setMaxAssets(uint256)": {
        "details": "Admin function to set maxAssets",
        "params": {
          "newMaxAssets": "New max assets"
        },
        "return": "uint 0=success, otherwise a failure. (See ErrorReporter for details)"
      },
      "_setPauseGuardian(address)": {
        "params": {
          "newPauseGuardian": "The address of the new Pause Guardian"
        },
        "return": "uint 0=success, otherwise a failure. (See enum Error for details)"
      },
      "_setPriceOracle(address)": {
        "details": "Admin function to set a new price oracle",
        "return": "uint 0=success, otherwise a failure (see ErrorReporter.sol for details)"
      },
      "_supportMarket(address)": {
        "details": "Admin function to set isListed and add support for the market",
        "params": {
          "cToken": "The address of the market (token) to list"
        },
        "return": "uint 0=success, otherwise a failure. (See enum Error for details)"
      },
      "borrowAllowed(address,address,uint256)": {
        "params": {
          "borrowAmount": "The amount of underlying the account would borrow",
          "borrower": "The account which would borrow the asset",
          "cToken": "The market to verify the borrow against"
        },
        "return": "0 if the borrow is allowed, otherwise a semi-opaque error code (See ErrorReporter.sol)"
      },
      "borrowVerify(address,address,uint256)": {
        "params": {
          "borrowAmount": "The amount of the underlying asset requested to borrow",
          "borrower": "The address borrowing the underlying",
          "cToken": "Asset whose underlying is being borrowed"
        }
      },
      "checkMembership(address,address)": {
        "params": {
          "account": "The address of the account to check",
          "cToken": "The cToken to check"
        },
        "return": "True if the account is in the asset, otherwise false."
      },
      "enterMarkets(address[])": {
        "params": {
          "cTokens": "The list of addresses of the cToken markets to be enabled"
        },
        "return": "Success indicator for whether each corresponding market was entered"
      },
      "exitMarket(address)": {
        "details": "Sender must not have an outstanding borrow balance in the asset, or be providing neccessary collateral for an outstanding borrow.",
        "params": {
          "cTokenAddress": "The address of the asset to be removed"
        },
        "return": "Whether or not the account successfully exited the market"
      },
      "getAccountLiquidity(address)": {
        "return": "(possible error code (semi-opaque), account liquidity in excess of collateral requirements,         account shortfall below collateral requirements)"
      },
      "getAssetsIn(address)": {
        "params": {
          "account": "The address of the account to pull assets for"
        },
        "return": "A dynamic list with the assets the account has entered"
      },
      "getHypotheticalAccountLiquidity(address,address,uint256,uint256)": {
        "params": {
          "account": "The account to determine liquidity for",
          "borrowAmount": "The amount of underlying to hypothetically borrow",
          "cTokenModify": "The market to hypothetically redeem/borrow in",
          "redeemTokens": "The number of tokens to hypothetically redeem"
        },
        "return": "(possible error code (semi-opaque), hypothetical account liquidity in excess of collateral requirements,         hypothetical account shortfall below collateral requirements)"
      },
      "liquidateBorrowAllowed(address,address,address,address,uint256)": {
        "params": {
          "borrower": "The address of the borrower",
          "cTokenBorrowed": "Asset which was borrowed by the borrower",
          "cTokenCollateral": "Asset which was used as collateral and will be seized",
          "liquidator": "The address repaying the borrow and seizing the collateral",
          "repayAmount": "The amount of underlying being repaid"
        }
      },
      "liquidateBorrowVerify(address,address,address,address,uint256,uint256)": {
        "params": {
          "actualRepayAmount": "The amount of underlying being repaid",
          "borrower": "The address of the borrower",
          "cTokenBorrowed": "Asset which was borrowed by the borrower",
          "cTokenCollateral": "Asset which was used as collateral and will be seized",
          "liquidator": "The address repaying the borrow and seizing the collateral"
        }
      },
      "liquidateCalculateSeizeTokens(address,address,uint256)": {
        "details": "Used in liquidation (called in cToken.liquidateBorrowFresh)",
        "params": {
          "actualRepayAmount": "The amount of cTokenBorrowed underlying to convert into cTokenCollateral tokens",
          "cTokenBorrowed": "The address of the borrowed cToken",
          "cTokenCollateral": "The address of the collateral cToken"
        },
        "return": "(errorCode, number of cTokenCollateral tokens to be seized in a liquidation)"
      },
      "mintAllowed(address,address,uint256)": {
        "params": {
          "cToken": "The market to verify the mint against",
          "mintAmount": "The amount of underlying being supplied to the market in exchange for tokens",
          "minter": "The account which would get the minted tokens"
        },
        "return": "0 if the mint is allowed, otherwise a semi-opaque error code (See ErrorReporter.sol)"
      },
      "mintVerify(address,address,uint256,uint256)": {
        "params": {
          "actualMintAmount": "The amount of the underlying asset being minted",
          "cToken": "Asset being minted",
          "mintTokens": "The number of tokens being minted",
          "minter": "The address minting the tokens"
        }
      },
      "redeemAllowed(address,address,uint256)": {
        "params": {
          "cToken": "The market to verify the redeem against",
          "redeemTokens": "The number of cTokens to exchange for the underlying asset in the market",
          "redeemer": "The account which would redeem the tokens"
        },
        "return": "0 if the redeem is allowed, otherwise a semi-opaque error code (See ErrorReporter.sol)"
      },
      "redeemVerify(address,address,uint256,uint256)": {
        "params": {
          "cToken": "Asset being redeemed",
          "redeemAmount": "The amount of the underlying asset being redeemed",
          "redeemTokens": "The number of tokens being redeemed",
          "redeemer": "The address redeeming the tokens"
        }
      },
      "repayBorrowAllowed(address,address,address,uint256)": {
        "params": {
          "borrower": "The account which would borrowed the asset",
          "cToken": "The market to verify the repay against",
          "payer": "The account which would repay the asset",
          "repayAmount": "The amount of the underlying asset the account would repay"
        },
        "return": "0 if the repay is allowed, otherwise a semi-opaque error code (See ErrorReporter.sol)"
      },
      "repayBorrowVerify(address,address,address,uint256,uint256)": {
        "params": {
          "actualRepayAmount": "The amount of underlying being repaid",
          "borrower": "The address of the borrower",
          "cToken": "Asset being repaid",
          "payer": "The address repaying the borrow"
        }
      },
      "seizeAllowed(address,address,address,address,uint256)": {
        "params": {
          "borrower": "The address of the borrower",
          "cTokenBorrowed": "Asset which was borrowed by the borrower",
          "cTokenCollateral": "Asset which was used as collateral and will be seized",
          "liquidator": "The address repaying the borrow and seizing the collateral",
          "seizeTokens": "The number of collateral tokens to seize"
        }
      },
      "seizeVerify(address,address,address,address,uint256)": {
        "params": {
          "borrower": "The address of the borrower",
          "cTokenBorrowed": "Asset which was borrowed by the borrower",
          "cTokenCollateral": "Asset which was used as collateral and will be seized",
          "liquidator": "The address repaying the borrow and seizing the collateral",
          "seizeTokens": "The number of collateral tokens to seize"
        }
      },
      "transferAllowed(address,address,address,uint256)": {
        "params": {
          "cToken": "The market to verify the transfer against",
          "dst": "The account which receives the tokens",
          "src": "The account which sources the tokens",
          "transferTokens": "The number of cTokens to transfer"
        },
        "return": "0 if the transfer is allowed, otherwise a semi-opaque error code (See ErrorReporter.sol)"
      },
      "transferVerify(address,address,address,uint256)": {
        "params": {
          "cToken": "Asset being transferred",
          "dst": "The account which receives the tokens",
          "src": "The account which sources the tokens",
          "transferTokens": "The number of cTokens to transfer"
        }
      }
    },
    "title": "Compound's Comptroller Contract"
  },
  "userdoc": {
    "methods": {
      "_setCloseFactor(uint256)": {
        "notice": "Sets the closeFactor used when liquidating borrows"
      },
      "_setCollateralFactor(address,uint256)": {
        "notice": "Sets the collateralFactor for a market"
      },
      "_setLiquidationIncentive(uint256)": {
        "notice": "Sets liquidationIncentive"
      },
      "_setMaxAssets(uint256)": {
        "notice": "Sets maxAssets which controls how many markets can be entered"
      },
      "_setPauseGuardian(address)": {
        "notice": "Admin function to change the Pause Guardian"
      },
      "_setPriceOracle(address)": {
        "notice": "Sets a new price oracle for the comptroller"
      },
      "_supportMarket(address)": {
        "notice": "Add the market to the markets mapping and set it as listed"
      },
      "borrowAllowed(address,address,uint256)": {
        "notice": "Checks if the account should be allowed to borrow the underlying asset of the given market"
      },
      "borrowVerify(address,address,uint256)": {
        "notice": "Validates borrow and reverts on rejection. May emit logs."
      },
      "checkMembership(address,address)": {
        "notice": "Returns whether the given account is entered in the given asset"
      },
      "enterMarkets(address[])": {
        "notice": "Add assets to be included in account liquidity calculation"
      },
      "exitMarket(address)": {
        "notice": "Removes asset from sender's account liquidity calculation"
      },
      "getAccountLiquidity(address)": {
        "notice": "Determine the current account liquidity wrt collateral requirements"
      },
      "getAssetsIn(address)": {
        "notice": "Returns the assets an account has entered"
      },
      "getHypotheticalAccountLiquidity(address,address,uint256,uint256)": {
        "notice": "Determine what the account liquidity would be if the given amounts were redeemed/borrowed"
      },
      "liquidateBorrowAllowed(address,address,address,address,uint256)": {
        "notice": "Checks if the liquidation should be allowed to occur"
      },
      "liquidateBorrowVerify(address,address,address,address,uint256,uint256)": {
        "notice": "Validates liquidateBorrow and reverts on rejection. May emit logs."
      },
      "liquidateCalculateSeizeTokens(address,address,uint256)": {
        "notice": "Calculate number of tokens of collateral asset to seize given an underlying amount"
      },
      "mintAllowed(address,address,uint256)": {
        "notice": "Checks if the account should be allowed to mint tokens in the given market"
      },
      "mintVerify(address,address,uint256,uint256)": {
        "notice": "Validates mint and reverts on rejection. May emit logs."
      },
      "redeemAllowed(address,address,uint256)": {
        "notice": "Checks if the account should be allowed to redeem tokens in the given market"
      },
      "redeemVerify(address,address,uint256,uint256)": {
        "notice": "Validates redeem and reverts on rejection. May emit logs."
      },
      "repayBorrowAllowed(address,address,address,uint256)": {
        "notice": "Checks if the account should be allowed to repay a borrow in the given market"
      },
      "repayBorrowVerify(address,address,address,uint256,uint256)": {
        "notice": "Validates repayBorrow and reverts on rejection. May emit logs."
      },
      "seizeAllowed(address,address,address,address,uint256)": {
        "notice": "Checks if the seizing of assets should be allowed to occur"
      },
      "seizeVerify(address,address,address,address,uint256)": {
        "notice": "Validates seize and reverts on rejection. May emit logs."
      },
      "transferAllowed(address,address,address,uint256)": {
        "notice": "Checks if the account should be allowed to transfer tokens in the given market"
      },
      "transferVerify(address,address,address,uint256)": {
        "notice": "Validates transfer and reverts on rejection. May emit logs."
      }
    }
  }
}