{
  "contractName": "JugLike",
  "abi": [
    {
      "constant": true,
      "inputs": [],
      "name": "base",
      "outputs": [
        {
          "internalType": "uint256",
          "name": "",
          "type": "uint256"
        }
      ],
      "payable": false,
      "stateMutability": "view",
      "type": "function"
    },
    {
      "constant": true,
      "inputs": [
        {
          "internalType": "bytes32",
          "name": "",
          "type": "bytes32"
        }
      ],
      "name": "ilks",
      "outputs": [
        {
          "internalType": "uint256",
          "name": "duty",
          "type": "uint256"
        },
        {
          "internalType": "uint256",
          "name": "rho",
          "type": "uint256"
        }
      ],
      "payable": false,
      "stateMutability": "view",
      "type": "function"
    }
  ],
  "bytecode": "0x608060405234801561001057600080fd5b5060d68061001f6000396000f3fe6080604052348015600f57600080fd5b506004361060325760003560e01c80635001f3b5146037578063d9638d3614604f575b600080fd5b603d6082565b60408051918252519081900360200190f35b606960048036036020811015606357600080fd5b50356088565b6040805192835260208301919091528051918290030190f35b60015481565b600060208190529081526040902080546001909101548256fea265627a7a723158202535b8d03616adf0caa56bdcba89c5342b4c09583ff4c100795190dec2b27a4264736f6c63430005100032",
  "source": "pragma solidity ^0.5.16;\r\n\r\nimport \"./JumpRateModelV2.sol\";\r\nimport \"./SafeMath.sol\";\r\n\r\n/**\r\n  * @title Compound's DAIInterestRateModel Contract (version 3)\r\n  * @author Compound (modified by Dharma Labs)\r\n  * @notice The parameterized model described in section 2.4 of the original Compound Protocol whitepaper.\r\n  * Version 3 modifies the interest rate model in Version 2 by increasing the initial \"gap\" or slope of\r\n  * the model prior to the \"kink\" from 2% to 4%, and enabling updateable parameters.\r\n  */\r\ncontract DAIInterestRateModelV3 is JumpRateModelV2 {\r\n    using SafeMath for uint;\r\n\r\n    /**\r\n     * @notice The additional margin per block separating the base borrow rate from the roof.\r\n     */\r\n    uint public gapPerBlock;\r\n\r\n    /**\r\n     * @notice The assumed (1 - reserve factor) used to calculate the minimum borrow rate (reserve factor = 0.05)\r\n     */\r\n    uint public constant assumedOneMinusReserveFactorMantissa = 0.95e18;\r\n\r\n    PotLike pot;\r\n    JugLike jug;\r\n\r\n    /**\r\n     * @notice Construct an interest rate model\r\n     * @param jumpMultiplierPerYear The multiplierPerBlock after hitting a specified utilization point\r\n     * @param kink_ The utilization point at which the jump multiplier is applied\r\n     * @param pot_ The address of the Dai pot (where DSR is earned)\r\n     * @param jug_ The address of the Dai jug (where SF is kept)\r\n     * @param owner_ The address of the owner, i.e. the Timelock contract (which has the ability to update parameters directly)\r\n     */\r\n    constructor(uint jumpMultiplierPerYear, uint kink_, address pot_, address jug_, address owner_) JumpRateModelV2(0, 0, jumpMultiplierPerYear, kink_, owner_) public {\r\n        gapPerBlock = 4e16 / blocksPerYear;\r\n        pot = PotLike(pot_);\r\n        jug = JugLike(jug_);\r\n        poke();\r\n    }\r\n\r\n    /**\r\n     * @notice External function to update the parameters of the interest rate model\r\n     * @param baseRatePerYear The approximate target base APR, as a mantissa (scaled by 1e18). For DAI, this is calculated from DSR and SF. Input not used.\r\n     * @param gapPerYear The Additional margin per year separating the base borrow rate from the roof. (scaled by 1e18)\r\n     * @param jumpMultiplierPerYear The jumpMultiplierPerYear after hitting a specified utilization point\r\n     * @param kink_ The utilization point at which the jump multiplier is applied\r\n     */\r\n    function updateJumpRateModel(uint baseRatePerYear, uint gapPerYear, uint jumpMultiplierPerYear, uint kink_) external {\r\n        require(msg.sender == owner, \"only the owner may call this function.\");\r\n        gapPerBlock = gapPerYear / blocksPerYear;\r\n        updateJumpRateModelInternal(0, 0, jumpMultiplierPerYear, kink_);\r\n        poke();\r\n    }\r\n\r\n    /**\r\n     * @notice Calculates the current supply interest rate per block including the Dai savings rate\r\n     * @param cash The total amount of cash the market has\r\n     * @param borrows The total amount of borrows the market has outstanding\r\n     * @param reserves The total amnount of reserves the market has\r\n     * @param reserveFactorMantissa The current reserve factor the market has\r\n     * @return The supply rate per block (as a percentage, and scaled by 1e18)\r\n     */\r\n    function getSupplyRate(uint cash, uint borrows, uint reserves, uint reserveFactorMantissa) public view returns (uint) {\r\n        uint protocolRate = super.getSupplyRate(cash, borrows, reserves, reserveFactorMantissa);\r\n\r\n        uint underlying = cash.add(borrows).sub(reserves);\r\n        if (underlying == 0) {\r\n            return protocolRate;\r\n        } else {\r\n            uint cashRate = cash.mul(dsrPerBlock()).div(underlying);\r\n            return cashRate.add(protocolRate);\r\n        }\r\n    }\r\n\r\n    /**\r\n     * @notice Calculates the Dai savings rate per block\r\n     * @return The Dai savings rate per block (as a percentage, and scaled by 1e18)\r\n     */\r\n    function dsrPerBlock() public view returns (uint) {\r\n        return pot\r\n            .dsr().sub(1e27)  // scaled 1e27 aka RAY, and includes an extra \"ONE\" before subraction\r\n            .div(1e9) // descale to 1e18\r\n            .mul(15); // 15 seconds per block\r\n    }\r\n\r\n    /**\r\n     * @notice Resets the baseRate and multiplier per block based on the stability fee and Dai savings rate\r\n     */\r\n    function poke() public {\r\n        (uint duty, ) = jug.ilks(\"ETH-A\");\r\n        uint stabilityFeePerBlock = duty.add(jug.base()).sub(1e27).mul(1e18).div(1e27).mul(15);\r\n\r\n        // We ensure the minimum borrow rate >= DSR / (1 - reserve factor)\r\n        baseRatePerBlock = dsrPerBlock().mul(1e18).div(assumedOneMinusReserveFactorMantissa);\r\n\r\n        // The roof borrow rate is max(base rate, stability fee) + gap, from which we derive the slope\r\n        if (baseRatePerBlock < stabilityFeePerBlock) {\r\n            multiplierPerBlock = stabilityFeePerBlock.sub(baseRatePerBlock).add(gapPerBlock).mul(1e18).div(kink);\r\n        } else {\r\n            multiplierPerBlock = gapPerBlock.mul(1e18).div(kink);\r\n        }\r\n\r\n        emit NewInterestParams(baseRatePerBlock, multiplierPerBlock, jumpMultiplierPerBlock, kink);\r\n    }\r\n}\r\n\r\n\r\n/*** Maker Interfaces ***/\r\n\r\ncontract PotLike {\r\n    function chi() external view returns (uint);\r\n    function dsr() external view returns (uint);\r\n    function rho() external view returns (uint);\r\n    function pie(address) external view returns (uint);\r\n    function drip() external returns (uint);\r\n    function join(uint) external;\r\n    function exit(uint) external;\r\n}\r\n\r\ncontract JugLike {\r\n    // --- Data ---\r\n    struct Ilk {\r\n        uint256 duty;\r\n        uint256  rho;\r\n    }\r\n\r\n   mapping (bytes32 => Ilk) public ilks;\r\n   uint256 public base;\r\n}\r\n",
  "sourcePath": "F:\\7-hlf-github\\compound-play\\compound\\contracts\\DAIInterestRateModelV3.sol",
  "compiler": {
    "name": "solc",
    "version": "0.5.16+commit.9c3226ce.Emscripten.clang"
  },
  "schemaVersion": "3.4.3",
  "updatedAt": "2022-01-24T11:39:41.327Z",
  "devdoc": {
    "methods": {}
  },
  "userdoc": {
    "methods": {}
  }
}