{
  "contractName": "Maximillion",
  "abi": [
    {
      "inputs": [
        {
          "internalType": "contract CEther",
          "name": "cEther_",
          "type": "address"
        }
      ],
      "payable": false,
      "stateMutability": "nonpayable",
      "type": "constructor"
    },
    {
      "constant": true,
      "inputs": [],
      "name": "cEther",
      "outputs": [
        {
          "internalType": "contract CEther",
          "name": "",
          "type": "address"
        }
      ],
      "payable": false,
      "stateMutability": "view",
      "type": "function"
    },
    {
      "constant": false,
      "inputs": [
        {
          "internalType": "address",
          "name": "borrower",
          "type": "address"
        }
      ],
      "name": "repayBehalf",
      "outputs": [],
      "payable": true,
      "stateMutability": "payable",
      "type": "function"
    },
    {
      "constant": false,
      "inputs": [
        {
          "internalType": "address",
          "name": "borrower",
          "type": "address"
        },
        {
          "internalType": "contract CEther",
          "name": "cEther_",
          "type": "address"
        }
      ],
      "name": "repayBehalfExplicit",
      "outputs": [],
      "payable": true,
      "stateMutability": "payable",
      "type": "function"
    }
  ],
  "bytecode": "0x608060405234801561001057600080fd5b506040516103363803806103368339818101604052602081101561003357600080fd5b5051600080546001600160a01b039092166001600160a01b03199092169190911790556102d1806100656000396000f3fe6080604052600436106100345760003560e01c806319b68c0014610039578063367b7f051461006a5780639f35c3d51461009a575b600080fd5b34801561004557600080fd5b5061004e6100c0565b604080516001600160a01b039092168252519081900360200190f35b6100986004803603604081101561008057600080fd5b506001600160a01b03813581169160200135166100cf565b005b610098600480360360208110156100b057600080fd5b50356001600160a01b0316610282565b6000546001600160a01b031681565b60003490506000826001600160a01b03166317bfdfbc856040518263ffffffff1660e01b815260040180826001600160a01b03166001600160a01b03168152602001915050602060405180830381600087803b15801561012e57600080fd5b505af1158015610142573d6000803e3d6000fd5b505050506040513d602081101561015857600080fd5b505190508082111561020a57826001600160a01b031663e597461982866040518363ffffffff1660e01b815260040180826001600160a01b03166001600160a01b031681526020019150506000604051808303818588803b1580156101bc57600080fd5b505af11580156101d0573d6000803e3d6000fd5b505060405133935084860380156108fc02935091506000818181858888f19350505050158015610204573d6000803e3d6000fd5b5061027c565b826001600160a01b031663e597461983866040518363ffffffff1660e01b815260040180826001600160a01b03166001600160a01b031681526020019150506000604051808303818588803b15801561026257600080fd5b505af1158015610276573d6000803e3d6000fd5b50505050505b50505050565b6000546102999082906001600160a01b03166100cf565b5056fea265627a7a72315820a112e31a1e26e948ddcdec9a507a1b4f09a12cd9d34d71ebf0907ed1784074e564736f6c63430005100032",
  "source": "pragma solidity ^0.5.16;\r\n\r\nimport \"./CEther.sol\";\r\n\r\n/**\r\n * @title Compound's Maximillion Contract\r\n * @author Compound\r\n */\r\ncontract Maximillion {\r\n    /**\r\n     * @notice The default cEther market to repay in\r\n     */\r\n    CEther public cEther;\r\n\r\n    /**\r\n     * @notice Construct a Maximillion to repay max in a CEther market\r\n     */\r\n    constructor(CEther cEther_) public {\r\n        cEther = cEther_;\r\n    }\r\n\r\n    /**\r\n     * @notice msg.sender sends Ether to repay an account's borrow in the cEther market\r\n     * @dev The provided Ether is applied towards the borrow balance, any excess is refunded\r\n     * @param borrower The address of the borrower account to repay on behalf of\r\n     */\r\n    function repayBehalf(address borrower) public payable {\r\n        repayBehalfExplicit(borrower, cEther);\r\n    }\r\n\r\n    /**\r\n     * @notice msg.sender sends Ether to repay an account's borrow in a cEther market\r\n     * @dev The provided Ether is applied towards the borrow balance, any excess is refunded\r\n     * @param borrower The address of the borrower account to repay on behalf of\r\n     * @param cEther_ The address of the cEther contract to repay in\r\n     */\r\n    function repayBehalfExplicit(address borrower, CEther cEther_) public payable {\r\n        uint received = msg.value;\r\n        uint borrows = cEther_.borrowBalanceCurrent(borrower);\r\n        if (received > borrows) {\r\n            cEther_.repayBorrowBehalf.value(borrows)(borrower);\r\n            msg.sender.transfer(received - borrows);\r\n        } else {\r\n            cEther_.repayBorrowBehalf.value(received)(borrower);\r\n        }\r\n    }\r\n}\r\n",
  "sourcePath": "F:\\7-hlf-github\\compound-play\\compound\\contracts\\Maximillion.sol",
  "compiler": {
    "name": "solc",
    "version": "0.5.16+commit.9c3226ce.Emscripten.clang"
  },
  "schemaVersion": "3.4.3",
  "updatedAt": "2022-01-24T11:39:41.618Z",
  "devdoc": {
    "author": "Compound",
    "methods": {
      "repayBehalf(address)": {
        "details": "The provided Ether is applied towards the borrow balance, any excess is refunded",
        "params": {
          "borrower": "The address of the borrower account to repay on behalf of"
        }
      },
      "repayBehalfExplicit(address,address)": {
        "details": "The provided Ether is applied towards the borrow balance, any excess is refunded",
        "params": {
          "borrower": "The address of the borrower account to repay on behalf of",
          "cEther_": "The address of the cEther contract to repay in"
        }
      }
    },
    "title": "Compound's Maximillion Contract"
  },
  "userdoc": {
    "methods": {
      "constructor": "Construct a Maximillion to repay max in a CEther market",
      "repayBehalf(address)": {
        "notice": "msg.sender sends Ether to repay an account's borrow in the cEther market"
      },
      "repayBehalfExplicit(address,address)": {
        "notice": "msg.sender sends Ether to repay an account's borrow in a cEther market"
      }
    }
  }
}