{
  "contractName": "SimplePriceOracle",
  "abi": [
    {
      "anonymous": false,
      "inputs": [
        {
          "indexed": false,
          "internalType": "address",
          "name": "asset",
          "type": "address"
        },
        {
          "indexed": false,
          "internalType": "uint256",
          "name": "previousPriceMantissa",
          "type": "uint256"
        },
        {
          "indexed": false,
          "internalType": "uint256",
          "name": "requestedPriceMantissa",
          "type": "uint256"
        },
        {
          "indexed": false,
          "internalType": "uint256",
          "name": "newPriceMantissa",
          "type": "uint256"
        }
      ],
      "name": "PricePosted",
      "type": "event"
    },
    {
      "constant": true,
      "inputs": [],
      "name": "isPriceOracle",
      "outputs": [
        {
          "internalType": "bool",
          "name": "",
          "type": "bool"
        }
      ],
      "payable": false,
      "stateMutability": "view",
      "type": "function"
    },
    {
      "constant": true,
      "inputs": [
        {
          "internalType": "contract CToken",
          "name": "cToken",
          "type": "address"
        }
      ],
      "name": "getUnderlyingPrice",
      "outputs": [
        {
          "internalType": "uint256",
          "name": "",
          "type": "uint256"
        }
      ],
      "payable": false,
      "stateMutability": "view",
      "type": "function"
    },
    {
      "constant": false,
      "inputs": [
        {
          "internalType": "contract CToken",
          "name": "cToken",
          "type": "address"
        },
        {
          "internalType": "uint256",
          "name": "underlyingPriceMantissa",
          "type": "uint256"
        }
      ],
      "name": "setUnderlyingPrice",
      "outputs": [],
      "payable": false,
      "stateMutability": "nonpayable",
      "type": "function"
    },
    {
      "constant": false,
      "inputs": [
        {
          "internalType": "address",
          "name": "asset",
          "type": "address"
        },
        {
          "internalType": "uint256",
          "name": "price",
          "type": "uint256"
        }
      ],
      "name": "setDirectPrice",
      "outputs": [],
      "payable": false,
      "stateMutability": "nonpayable",
      "type": "function"
    },
    {
      "constant": true,
      "inputs": [
        {
          "internalType": "address",
          "name": "asset",
          "type": "address"
        }
      ],
      "name": "assetPrices",
      "outputs": [
        {
          "internalType": "uint256",
          "name": "",
          "type": "uint256"
        }
      ],
      "payable": false,
      "stateMutability": "view",
      "type": "function"
    }
  ],
  "bytecode": "0x608060405234801561001057600080fd5b5061056e806100206000396000f3fe608060405234801561001057600080fd5b50600436106100575760003560e01c806309a8acb01461005c578063127ffda01461008a5780635e9a523c146100b657806366331bba146100ee578063fc57d4df1461010a575b600080fd5b6100886004803603604081101561007257600080fd5b506001600160a01b038135169060200135610130565b005b610088600480360360408110156100a057600080fd5b506001600160a01b0381351690602001356101a8565b6100dc600480360360208110156100cc57600080fd5b50356001600160a01b031661022e565b60408051918252519081900360200190f35b6100f6610249565b604080519115158252519081900360200190f35b6100dc6004803603602081101561012057600080fd5b50356001600160a01b031661024e565b6001600160a01b038216600081815260208181526040918290205482519384529083015281810183905260608201839052517fdd71a1d19fcba687442a1d5c58578f1e409af71a79d10fd95a4d66efd8fa9ae79181900360800190a16001600160a01b03909116600090815260208190526040902055565b60006101b38361027c565b6001600160a01b038116600081815260208181526040918290205482519384529083015281810185905260608201859052519192507fdd71a1d19fcba687442a1d5c58578f1e409af71a79d10fd95a4d66efd8fa9ae7919081900360800190a16001600160a01b031660009081526020819052604090205550565b6001600160a01b031660009081526020819052604090205490565b600181565b600080600061025c8461027c565b6001600160a01b0316815260208101919091526040016000205492915050565b6000806103c4836001600160a01b03166395d89b416040518163ffffffff1660e01b815260040160006040518083038186803b1580156102bb57600080fd5b505afa1580156102cf573d6000803e3d6000fd5b505050506040513d6000823e601f3d908101601f1916820160405260208110156102f857600080fd5b810190808051604051939291908464010000000082111561031857600080fd5b90830190602082018581111561032d57600080fd5b825164010000000081118282018810171561034757600080fd5b82525081516020918201929091019080838360005b8381101561037457818101518382015260200161035c565b50505050905090810190601f1680156103a15780820380516001836020036101000a031916815260200191505b506040818101905260048152630c68aa8960e31b60208201529250610452915050565b156103e4575073eeeeeeeeeeeeeeeeeeeeeeeeeeeeeeeeeeeeeeee61044c565b826001600160a01b0316636f307dc36040518163ffffffff1660e01b815260040160206040518083038186803b15801561041d57600080fd5b505afa158015610431573d6000803e3d6000fd5b505050506040513d602081101561044757600080fd5b505190505b92915050565b6000816040516020018082805190602001908083835b602083106104875780518252601f199092019160209182019101610468565b6001836020036101000a03801982511681845116808217855250505050505090500191505060405160208183030381529060405280519060200120836040516020018082805190602001908083835b602083106104f55780518252601f1990920191602091820191016104d6565b6001836020036101000a038019825116818451168082178552505050505050905001915050604051602081830303815290604052805190602001201490509291505056fea265627a7a723158207a5dd6b70271ff6fbbf31cfb40b46f698713cc337d32742175cb6524b86229d464736f6c63430005100032",
  "source": "pragma solidity ^0.5.16;\r\n\r\nimport \"./PriceOracle.sol\";\r\nimport \"./CErc20.sol\";\r\n\r\ncontract SimplePriceOracle is PriceOracle {\r\n    mapping(address => uint) prices;\r\n    event PricePosted(address asset, uint previousPriceMantissa, uint requestedPriceMantissa, uint newPriceMantissa);\r\n\r\n    function _getUnderlyingAddress(CToken cToken) private view returns (address) {\r\n        address asset;\r\n        if (compareStrings(cToken.symbol(), \"cETH\")) {\r\n            asset = 0xEeeeeEeeeEeEeeEeEeEeeEEEeeeeEeeeeeeeEEeE;\r\n        } else {\r\n            asset = address(CErc20(address(cToken)).underlying());\r\n        }\r\n        return asset;\r\n    }\r\n\r\n    function getUnderlyingPrice(CToken cToken) public view returns (uint) {\r\n        return prices[_getUnderlyingAddress(cToken)];\r\n    }\r\n\r\n    function setUnderlyingPrice(CToken cToken, uint underlyingPriceMantissa) public {\r\n        address asset = _getUnderlyingAddress(cToken);\r\n        emit PricePosted(asset, prices[asset], underlyingPriceMantissa, underlyingPriceMantissa);\r\n        prices[asset] = underlyingPriceMantissa;\r\n    }\r\n\r\n    function setDirectPrice(address asset, uint price) public {\r\n        emit PricePosted(asset, prices[asset], price, price);\r\n        prices[asset] = price;\r\n    }\r\n\r\n    // v1 price oracle interface for use as backing of proxy\r\n    function assetPrices(address asset) external view returns (uint) {\r\n        return prices[asset];\r\n    }\r\n\r\n    function compareStrings(string memory a, string memory b) internal pure returns (bool) {\r\n        return (keccak256(abi.encodePacked((a))) == keccak256(abi.encodePacked((b))));\r\n    }\r\n}\r\n",
  "sourcePath": "F:\\7-hlf-github\\compound-play\\compound\\contracts\\SimplePriceOracle.sol",
  "compiler": {
    "name": "solc",
    "version": "0.5.16+commit.9c3226ce.Emscripten.clang"
  },
  "schemaVersion": "3.4.3",
  "updatedAt": "2022-01-24T11:39:41.643Z",
  "devdoc": {
    "methods": {}
  },
  "userdoc": {
    "methods": {}
  }
}